{
  "contractName": "AniToken",
  "abi": [
    {
      "inputs": [],
      "stateMutability": "nonpayable",
      "type": "constructor"
    },
    {
      "anonymous": false,
      "inputs": [
        {
          "indexed": true,
          "internalType": "address",
          "name": "owner",
          "type": "address"
        },
        {
          "indexed": true,
          "internalType": "address",
          "name": "spender",
          "type": "address"
        },
        {
          "indexed": false,
          "internalType": "uint256",
          "name": "value",
          "type": "uint256"
        }
      ],
      "name": "Approval",
      "type": "event"
    },
    {
      "anonymous": false,
      "inputs": [
        {
          "indexed": false,
          "internalType": "uint256",
          "name": "_fee",
          "type": "uint256"
        }
      ],
      "name": "OnSetFee",
      "type": "event"
    },
    {
      "anonymous": false,
      "inputs": [
        {
          "indexed": false,
          "internalType": "address",
          "name": "_wallet",
          "type": "address"
        }
      ],
      "name": "OnSetWallet",
      "type": "event"
    },
    {
      "anonymous": false,
      "inputs": [
        {
          "indexed": false,
          "internalType": "address",
          "name": "_whitelist",
          "type": "address"
        },
        {
          "indexed": false,
          "internalType": "bool",
          "name": "_status",
          "type": "bool"
        }
      ],
      "name": "OnWhitelist",
      "type": "event"
    },
    {
      "anonymous": false,
      "inputs": [
        {
          "indexed": true,
          "internalType": "address",
          "name": "previousOwner",
          "type": "address"
        },
        {
          "indexed": true,
          "internalType": "address",
          "name": "newOwner",
          "type": "address"
        }
      ],
      "name": "OwnershipTransferred",
      "type": "event"
    },
    {
      "anonymous": false,
      "inputs": [
        {
          "indexed": true,
          "internalType": "address",
          "name": "from",
          "type": "address"
        },
        {
          "indexed": true,
          "internalType": "address",
          "name": "to",
          "type": "address"
        },
        {
          "indexed": false,
          "internalType": "uint256",
          "name": "value",
          "type": "uint256"
        }
      ],
      "name": "Transfer",
      "type": "event"
    },
    {
      "inputs": [],
      "name": "BUSD",
      "outputs": [
        {
          "internalType": "address",
          "name": "",
          "type": "address"
        }
      ],
      "stateMutability": "view",
      "type": "function"
    },
    {
      "inputs": [
        {
          "internalType": "address",
          "name": "owner",
          "type": "address"
        },
        {
          "internalType": "address",
          "name": "spender",
          "type": "address"
        }
      ],
      "name": "allowance",
      "outputs": [
        {
          "internalType": "uint256",
          "name": "",
          "type": "uint256"
        }
      ],
      "stateMutability": "view",
      "type": "function"
    },
    {
      "inputs": [
        {
          "internalType": "address",
          "name": "spender",
          "type": "address"
        },
        {
          "internalType": "uint256",
          "name": "amount",
          "type": "uint256"
        }
      ],
      "name": "approve",
      "outputs": [
        {
          "internalType": "bool",
          "name": "",
          "type": "bool"
        }
      ],
      "stateMutability": "nonpayable",
      "type": "function"
    },
    {
      "inputs": [
        {
          "internalType": "address",
          "name": "account",
          "type": "address"
        }
      ],
      "name": "balanceOf",
      "outputs": [
        {
          "internalType": "uint256",
          "name": "",
          "type": "uint256"
        }
      ],
      "stateMutability": "view",
      "type": "function"
    },
    {
      "inputs": [
        {
          "internalType": "uint256",
          "name": "amount",
          "type": "uint256"
        }
      ],
      "name": "burn",
      "outputs": [],
      "stateMutability": "nonpayable",
      "type": "function"
    },
    {
      "inputs": [
        {
          "internalType": "address",
          "name": "account",
          "type": "address"
        },
        {
          "internalType": "uint256",
          "name": "amount",
          "type": "uint256"
        }
      ],
      "name": "burnFrom",
      "outputs": [],
      "stateMutability": "nonpayable",
      "type": "function"
    },
    {
      "inputs": [],
      "name": "decimals",
      "outputs": [
        {
          "internalType": "uint8",
          "name": "",
          "type": "uint8"
        }
      ],
      "stateMutability": "view",
      "type": "function"
    },
    {
      "inputs": [
        {
          "internalType": "address",
          "name": "spender",
          "type": "address"
        },
        {
          "internalType": "uint256",
          "name": "subtractedValue",
          "type": "uint256"
        }
      ],
      "name": "decreaseAllowance",
      "outputs": [
        {
          "internalType": "bool",
          "name": "",
          "type": "bool"
        }
      ],
      "stateMutability": "nonpayable",
      "type": "function"
    },
    {
      "inputs": [],
      "name": "fee",
      "outputs": [
        {
          "internalType": "uint256",
          "name": "",
          "type": "uint256"
        }
      ],
      "stateMutability": "view",
      "type": "function"
    },
    {
      "inputs": [
        {
          "internalType": "address",
          "name": "spender",
          "type": "address"
        },
        {
          "internalType": "uint256",
          "name": "addedValue",
          "type": "uint256"
        }
      ],
      "name": "increaseAllowance",
      "outputs": [
        {
          "internalType": "bool",
          "name": "",
          "type": "bool"
        }
      ],
      "stateMutability": "nonpayable",
      "type": "function"
    },
    {
      "inputs": [],
      "name": "name",
      "outputs": [
        {
          "internalType": "string",
          "name": "",
          "type": "string"
        }
      ],
      "stateMutability": "view",
      "type": "function"
    },
    {
      "inputs": [],
      "name": "owner",
      "outputs": [
        {
          "internalType": "address",
          "name": "",
          "type": "address"
        }
      ],
      "stateMutability": "view",
      "type": "function"
    },
    {
      "inputs": [],
      "name": "renounceOwnership",
      "outputs": [],
      "stateMutability": "nonpayable",
      "type": "function"
    },
    {
      "inputs": [],
      "name": "symbol",
      "outputs": [
        {
          "internalType": "string",
          "name": "",
          "type": "string"
        }
      ],
      "stateMutability": "view",
      "type": "function"
    },
    {
      "inputs": [],
      "name": "totalSupply",
      "outputs": [
        {
          "internalType": "uint256",
          "name": "",
          "type": "uint256"
        }
      ],
      "stateMutability": "view",
      "type": "function"
    },
    {
      "inputs": [
        {
          "internalType": "address",
          "name": "recipient",
          "type": "address"
        },
        {
          "internalType": "uint256",
          "name": "amount",
          "type": "uint256"
        }
      ],
      "name": "transfer",
      "outputs": [
        {
          "internalType": "bool",
          "name": "",
          "type": "bool"
        }
      ],
      "stateMutability": "nonpayable",
      "type": "function"
    },
    {
      "inputs": [
        {
          "internalType": "address",
          "name": "sender",
          "type": "address"
        },
        {
          "internalType": "address",
          "name": "recipient",
          "type": "address"
        },
        {
          "internalType": "uint256",
          "name": "amount",
          "type": "uint256"
        }
      ],
      "name": "transferFrom",
      "outputs": [
        {
          "internalType": "bool",
          "name": "",
          "type": "bool"
        }
      ],
      "stateMutability": "nonpayable",
      "type": "function"
    },
    {
      "inputs": [
        {
          "internalType": "address",
          "name": "newOwner",
          "type": "address"
        }
      ],
      "name": "transferOwnership",
      "outputs": [],
      "stateMutability": "nonpayable",
      "type": "function"
    },
    {
      "inputs": [],
      "name": "uniswapV2Pair",
      "outputs": [
        {
          "internalType": "address",
          "name": "",
          "type": "address"
        }
      ],
      "stateMutability": "view",
      "type": "function"
    },
    {
      "inputs": [],
      "name": "uniswapV2Router",
      "outputs": [
        {
          "internalType": "contract IUniswapV2Router02",
          "name": "",
          "type": "address"
        }
      ],
      "stateMutability": "view",
      "type": "function"
    },
    {
      "inputs": [],
      "name": "wallet",
      "outputs": [
        {
          "internalType": "address",
          "name": "",
          "type": "address"
        }
      ],
      "stateMutability": "view",
      "type": "function"
    },
    {
      "inputs": [
        {
          "internalType": "address",
          "name": "",
          "type": "address"
        }
      ],
      "name": "whitelist",
      "outputs": [
        {
          "internalType": "bool",
          "name": "",
          "type": "bool"
        }
      ],
      "stateMutability": "view",
      "type": "function"
    },
    {
      "inputs": [
        {
          "internalType": "address",
          "name": "_whitelist",
          "type": "address"
        },
        {
          "internalType": "bool",
          "name": "_status",
          "type": "bool"
        }
      ],
      "name": "addWhitelist",
      "outputs": [],
      "stateMutability": "nonpayable",
      "type": "function"
    },
    {
      "inputs": [
        {
          "internalType": "uint256",
          "name": "_fee",
          "type": "uint256"
        }
      ],
      "name": "setFee",
      "outputs": [],
      "stateMutability": "nonpayable",
      "type": "function"
    },
    {
      "inputs": [
        {
          "internalType": "address",
          "name": "_wallet",
          "type": "address"
        }
      ],
      "name": "setWallet",
      "outputs": [],
      "stateMutability": "nonpayable",
      "type": "function"
    }
  ],
  "bytecode": "0x60806040523480156200001157600080fd5b506040518060400160405280600681526020017f41546f6b656e00000000000000000000000000000000000000000000000000008152506040518060400160405280600281526020017f415400000000000000000000000000000000000000000000000000000000000081525081600390805190602001906200009692919062000631565b508060049080519060200190620000af92919062000631565b505050620000d2620000c6620003d760201b60201c565b620003df60201b60201c565b6200011233620000e7620004a560201b60201c565b600a620000f591906200087b565b630bebc200620001069190620008cc565b620004ae60201b60201c565b60c86009819055507371b07e01dde0adcbeba8b635704043ec1f665e75600860006101000a81548173ffffffffffffffffffffffffffffffffffffffff021916908373ffffffffffffffffffffffffffffffffffffffff1602179055506000731b02da8cb0d097eb8d57a175b88c7d8b4799750690508073ffffffffffffffffffffffffffffffffffffffff1663c45a01556040518163ffffffff1660e01b8152600401602060405180830381865afa158015620001d4573d6000803e3d6000fd5b505050506040513d601f19601f82011682018060405250810190620001fa919062000997565b73ffffffffffffffffffffffffffffffffffffffff1663c9c6539630732791bca1f2de4661ed88a30c99a7a9449aa841746040518363ffffffff1660e01b81526004016200024a929190620009da565b6020604051808303816000875af11580156200026a573d6000803e3d6000fd5b505050506040513d601f19601f8201168201806040525081019062000290919062000997565b600760006101000a81548173ffffffffffffffffffffffffffffffffffffffff021916908373ffffffffffffffffffffffffffffffffffffffff16021790555080600660006101000a81548173ffffffffffffffffffffffffffffffffffffffff021916908373ffffffffffffffffffffffffffffffffffffffff1602179055506001600a600062000327620003d760201b60201c565b73ffffffffffffffffffffffffffffffffffffffff1673ffffffffffffffffffffffffffffffffffffffff16815260200190815260200160002060006101000a81548160ff0219169083151502179055506001600a60003073ffffffffffffffffffffffffffffffffffffffff1673ffffffffffffffffffffffffffffffffffffffff16815260200190815260200160002060006101000a81548160ff0219169083151502179055505062000b7a565b600033905090565b6000600560009054906101000a900473ffffffffffffffffffffffffffffffffffffffff16905081600560006101000a81548173ffffffffffffffffffffffffffffffffffffffff021916908373ffffffffffffffffffffffffffffffffffffffff1602179055508173ffffffffffffffffffffffffffffffffffffffff168173ffffffffffffffffffffffffffffffffffffffff167f8be0079c531659141344cd1fd0a4f28419497f9722a3daafe3b4186f6b6457e060405160405180910390a35050565b60006012905090565b600073ffffffffffffffffffffffffffffffffffffffff168273ffffffffffffffffffffffffffffffffffffffff16141562000521576040517f08c379a0000000000000000000000000000000000000000000000000000000008152600401620005189062000a68565b60405180910390fd5b62000535600083836200062760201b60201c565b806002600082825462000549919062000a8a565b92505081905550806000808473ffffffffffffffffffffffffffffffffffffffff1673ffffffffffffffffffffffffffffffffffffffff1681526020019081526020016000206000828254620005a0919062000a8a565b925050819055508173ffffffffffffffffffffffffffffffffffffffff16600073ffffffffffffffffffffffffffffffffffffffff167fddf252ad1be2c89b69c2b068fc378daa952ba7f163c4a11628f55a4df523b3ef8360405162000607919062000af8565b60405180910390a362000623600083836200062c60201b60201c565b5050565b505050565b505050565b8280546200063f9062000b44565b90600052602060002090601f016020900481019282620006635760008555620006af565b82601f106200067e57805160ff1916838001178555620006af565b82800160010185558215620006af579182015b82811115620006ae57825182559160200191906001019062000691565b5b509050620006be9190620006c2565b5090565b5b80821115620006dd576000816000905550600101620006c3565b5090565b7f4e487b7100000000000000000000000000000000000000000000000000000000600052601160045260246000fd5b60008160011c9050919050565b6000808291508390505b60018511156200076f57808604811115620007475762000746620006e1565b5b6001851615620007575780820291505b8081029050620007678562000710565b945062000727565b94509492505050565b6000826200078a57600190506200085d565b816200079a57600090506200085d565b8160018114620007b35760028114620007be57620007f4565b60019150506200085d565b60ff841115620007d357620007d2620006e1565b5b8360020a915084821115620007ed57620007ec620006e1565b5b506200085d565b5060208310610133831016604e8410600b84101617156200082e5782820a905083811115620008285762000827620006e1565b5b6200085d565b6200083d84848460016200071d565b92509050818404811115620008575762000856620006e1565b5b81810290505b9392505050565b6000819050919050565b600060ff82169050919050565b6000620008888262000864565b915062000895836200086e565b9250620008c47fffffffffffffffffffffffffffffffffffffffffffffffffffffffffffffffff848462000778565b905092915050565b6000620008d98262000864565b9150620008e68362000864565b9250817fffffffffffffffffffffffffffffffffffffffffffffffffffffffffffffffff0483118215151615620009225762000921620006e1565b5b828202905092915050565b600080fd5b600073ffffffffffffffffffffffffffffffffffffffff82169050919050565b60006200095f8262000932565b9050919050565b620009718162000952565b81146200097d57600080fd5b50565b600081519050620009918162000966565b92915050565b600060208284031215620009b057620009af6200092d565b5b6000620009c08482850162000980565b91505092915050565b620009d48162000952565b82525050565b6000604082019050620009f16000830185620009c9565b62000a006020830184620009c9565b9392505050565b600082825260208201905092915050565b7f45524332303a206d696e7420746f20746865207a65726f206164647265737300600082015250565b600062000a50601f8362000a07565b915062000a5d8262000a18565b602082019050919050565b6000602082019050818103600083015262000a838162000a41565b9050919050565b600062000a978262000864565b915062000aa48362000864565b9250827fffffffffffffffffffffffffffffffffffffffffffffffffffffffffffffffff0382111562000adc5762000adb620006e1565b5b828201905092915050565b62000af28162000864565b82525050565b600060208201905062000b0f600083018462000ae7565b92915050565b7f4e487b7100000000000000000000000000000000000000000000000000000000600052602260045260246000fd5b6000600282049050600182168062000b5d57607f821691505b6020821081141562000b745762000b7362000b15565b5b50919050565b612bdf8062000b8a6000396000f3fe608060405234801561001057600080fd5b50600436106101735760003560e01c806369fe0e2d116100de5780639b19251a11610097578063dd62ed3e11610071578063dd62ed3e14610450578063ddca3f4314610480578063deaa59df1461049e578063f2fde38b146104ba57610173565b80639b19251a146103c0578063a457c2d7146103f0578063a9059cbb1461042057610173565b806369fe0e2d1461031257806370a082311461032e578063715018a61461035e57806379cc6790146103685780638da5cb5b1461038457806395d89b41146103a257610173565b80633714020e116101305780633714020e14610250578063395093511461026c57806342966c681461029c578063484f4ea9146102b857806349bd5a5e146102d6578063521eb273146102f457610173565b806306fdde0314610178578063095ea7b3146101965780631694505e146101c657806318160ddd146101e457806323b872dd14610202578063313ce56714610232575b600080fd5b6101806104d6565b60405161018d9190611b5c565b60405180910390f35b6101b060048036038101906101ab9190611c26565b610568565b6040516101bd9190611c81565b60405180910390f35b6101ce610586565b6040516101db9190611cfb565b60405180910390f35b6101ec6105ac565b6040516101f99190611d25565b60405180910390f35b61021c60048036038101906102179190611d40565b6105b6565b6040516102299190611c81565b60405180910390f35b61023a6106ae565b6040516102479190611daf565b60405180910390f35b61026a60048036038101906102659190611df6565b6106b7565b005b61028660048036038101906102819190611c26565b610837565b6040516102939190611c81565b60405180910390f35b6102b660048036038101906102b19190611e36565b6108e3565b005b6102c06108f7565b6040516102cd9190611e72565b60405180910390f35b6102de61090f565b6040516102eb9190611e72565b60405180910390f35b6102fc610935565b6040516103099190611e72565b60405180910390f35b61032c60048036038101906103279190611e36565b61095b565b005b61034860048036038101906103439190611e8d565b610a5d565b6040516103559190611d25565b60405180910390f35b610366610aa5565b005b610382600480360381019061037d9190611c26565b610b2d565b005b61038c610ba8565b6040516103999190611e72565b60405180910390f35b6103aa610bd2565b6040516103b79190611b5c565b60405180910390f35b6103da60048036038101906103d59190611e8d565b610c64565b6040516103e79190611c81565b60405180910390f35b61040a60048036038101906104059190611c26565b610c84565b6040516104179190611c81565b60405180910390f35b61043a60048036038101906104359190611c26565b610d6f565b6040516104479190611c81565b60405180910390f35b61046a60048036038101906104659190611eba565b610d8d565b6040516104779190611d25565b60405180910390f35b610488610e14565b6040516104959190611d25565b60405180910390f35b6104b860048036038101906104b39190611e8d565b610e1a565b005b6104d460048036038101906104cf9190611e8d565b610f81565b005b6060600380546104e590611f29565b80601f016020809104026020016040519081016040528092919081815260200182805461051190611f29565b801561055e5780601f106105335761010080835404028352916020019161055e565b820191906000526020600020905b81548152906001019060200180831161054157829003601f168201915b5050505050905090565b600061057c610575611079565b8484611081565b6001905092915050565b600660009054906101000a900473ffffffffffffffffffffffffffffffffffffffff1681565b6000600254905090565b60006105c384848461124c565b6000600160008673ffffffffffffffffffffffffffffffffffffffff1673ffffffffffffffffffffffffffffffffffffffff168152602001908152602001600020600061060e611079565b73ffffffffffffffffffffffffffffffffffffffff1673ffffffffffffffffffffffffffffffffffffffff1681526020019081526020016000205490508281101561068e576040517f08c379a000000000000000000000000000000000000000000000000000000000815260040161068590611fcd565b60405180910390fd5b6106a28561069a611079565b858403611081565b60019150509392505050565b60006012905090565b6106bf611079565b73ffffffffffffffffffffffffffffffffffffffff166106dd610ba8565b73ffffffffffffffffffffffffffffffffffffffff1614610733576040517f08c379a000000000000000000000000000000000000000000000000000000000815260040161072a90612039565b60405180910390fd5b600073ffffffffffffffffffffffffffffffffffffffff168273ffffffffffffffffffffffffffffffffffffffff1614156107a3576040517f08c379a000000000000000000000000000000000000000000000000000000000815260040161079a906120a5565b60405180910390fd5b80600a60008473ffffffffffffffffffffffffffffffffffffffff1673ffffffffffffffffffffffffffffffffffffffff16815260200190815260200160002060006101000a81548160ff0219169083151502179055507fe69fff9f6de79031f53211f80b8f8481f31445f42cffd20f771108a7cba0dc18828260405161082b9291906120c5565b60405180910390a15050565b60006108d9610844611079565b848460016000610852611079565b73ffffffffffffffffffffffffffffffffffffffff1673ffffffffffffffffffffffffffffffffffffffff16815260200190815260200160002060008873ffffffffffffffffffffffffffffffffffffffff1673ffffffffffffffffffffffffffffffffffffffff168152602001908152602001600020546108d4919061211d565b611081565b6001905092915050565b6108f46108ee611079565b8261139b565b50565b732791bca1f2de4661ed88a30c99a7a9449aa8417481565b600760009054906101000a900473ffffffffffffffffffffffffffffffffffffffff1681565b600860009054906101000a900473ffffffffffffffffffffffffffffffffffffffff1681565b610963611079565b73ffffffffffffffffffffffffffffffffffffffff16610981610ba8565b73ffffffffffffffffffffffffffffffffffffffff16146109d7576040517f08c379a00000000000000000000000000000000000000000000000000000000081526004016109ce90612039565b60405180910390fd5b6101f4811115610a1c576040517f08c379a0000000000000000000000000000000000000000000000000000000008152600401610a13906121bf565b60405180910390fd5b806009819055507ff75b1e87c7f2bbe0375e8ebafb6a6d184eee06ae8a9802b8a16f7d329a5c104a81604051610a529190611d25565b60405180910390a150565b60008060008373ffffffffffffffffffffffffffffffffffffffff1673ffffffffffffffffffffffffffffffffffffffff168152602001908152602001600020549050919050565b610aad611079565b73ffffffffffffffffffffffffffffffffffffffff16610acb610ba8565b73ffffffffffffffffffffffffffffffffffffffff1614610b21576040517f08c379a0000000000000000000000000000000000000000000000000000000008152600401610b1890612039565b60405180910390fd5b610b2b6000611572565b565b6000610b4083610b3b611079565b610d8d565b905081811015610b85576040517f08c379a0000000000000000000000000000000000000000000000000000000008152600401610b7c90612251565b60405180910390fd5b610b9983610b91611079565b848403611081565b610ba3838361139b565b505050565b6000600560009054906101000a900473ffffffffffffffffffffffffffffffffffffffff16905090565b606060048054610be190611f29565b80601f0160208091040260200160405190810160405280929190818152602001828054610c0d90611f29565b8015610c5a5780601f10610c2f57610100808354040283529160200191610c5a565b820191906000526020600020905b815481529060010190602001808311610c3d57829003601f168201915b5050505050905090565b600a6020528060005260406000206000915054906101000a900460ff1681565b60008060016000610c93611079565b73ffffffffffffffffffffffffffffffffffffffff1673ffffffffffffffffffffffffffffffffffffffff16815260200190815260200160002060008573ffffffffffffffffffffffffffffffffffffffff1673ffffffffffffffffffffffffffffffffffffffff16815260200190815260200160002054905082811015610d50576040517f08c379a0000000000000000000000000000000000000000000000000000000008152600401610d47906122e3565b60405180910390fd5b610d64610d5b611079565b85858403611081565b600191505092915050565b6000610d83610d7c611079565b848461124c565b6001905092915050565b6000600160008473ffffffffffffffffffffffffffffffffffffffff1673ffffffffffffffffffffffffffffffffffffffff16815260200190815260200160002060008373ffffffffffffffffffffffffffffffffffffffff1673ffffffffffffffffffffffffffffffffffffffff16815260200190815260200160002054905092915050565b60095481565b610e22611079565b73ffffffffffffffffffffffffffffffffffffffff16610e40610ba8565b73ffffffffffffffffffffffffffffffffffffffff1614610e96576040517f08c379a0000000000000000000000000000000000000000000000000000000008152600401610e8d90612039565b60405180910390fd5b600073ffffffffffffffffffffffffffffffffffffffff168173ffffffffffffffffffffffffffffffffffffffff161415610f06576040517f08c379a0000000000000000000000000000000000000000000000000000000008152600401610efd906120a5565b60405180910390fd5b80600860006101000a81548173ffffffffffffffffffffffffffffffffffffffff021916908373ffffffffffffffffffffffffffffffffffffffff1602179055507ffa77424ce15bc6782358a8a3044cd29bc76b93a70ebf4303989b07562c42034a81604051610f769190611e72565b60405180910390a150565b610f89611079565b73ffffffffffffffffffffffffffffffffffffffff16610fa7610ba8565b73ffffffffffffffffffffffffffffffffffffffff1614610ffd576040517f08c379a0000000000000000000000000000000000000000000000000000000008152600401610ff490612039565b60405180910390fd5b600073ffffffffffffffffffffffffffffffffffffffff168173ffffffffffffffffffffffffffffffffffffffff16141561106d576040517f08c379a000000000000000000000000000000000000000000000000000000000815260040161106490612375565b60405180910390fd5b61107681611572565b50565b600033905090565b600073ffffffffffffffffffffffffffffffffffffffff168373ffffffffffffffffffffffffffffffffffffffff1614156110f1576040517f08c379a00000000000000000000000000000000000000000000000000000000081526004016110e890612407565b60405180910390fd5b600073ffffffffffffffffffffffffffffffffffffffff168273ffffffffffffffffffffffffffffffffffffffff161415611161576040517f08c379a000000000000000000000000000000000000000000000000000000000815260040161115890612499565b60405180910390fd5b80600160008573ffffffffffffffffffffffffffffffffffffffff1673ffffffffffffffffffffffffffffffffffffffff16815260200190815260200160002060008473ffffffffffffffffffffffffffffffffffffffff1673ffffffffffffffffffffffffffffffffffffffff168152602001908152602001600020819055508173ffffffffffffffffffffffffffffffffffffffff168373ffffffffffffffffffffffffffffffffffffffff167f8c5be1e5ebec7d5bd14f71427d1e84f3dd0314c0f7b2291e5b200ac8c7c3b9258360405161123f9190611d25565b60405180910390a3505050565b6000600a60008573ffffffffffffffffffffffffffffffffffffffff1673ffffffffffffffffffffffffffffffffffffffff16815260200190815260200160002060009054906101000a900460ff16806112ef5750600a60008473ffffffffffffffffffffffffffffffffffffffff1673ffffffffffffffffffffffffffffffffffffffff16815260200190815260200160002060009054906101000a900460ff165b61138a57600760009054906101000a900473ffffffffffffffffffffffffffffffffffffffff1673ffffffffffffffffffffffffffffffffffffffff168373ffffffffffffffffffffffffffffffffffffffff161415611389576127106009548361135a91906124b9565b6113649190612542565b905080826113729190612573565b915061137f843083611638565b611388816118b9565b5b5b611395848484611638565b50505050565b600073ffffffffffffffffffffffffffffffffffffffff168273ffffffffffffffffffffffffffffffffffffffff16141561140b576040517f08c379a000000000000000000000000000000000000000000000000000000000815260040161140290612619565b60405180910390fd5b61141782600083611ab9565b60008060008473ffffffffffffffffffffffffffffffffffffffff1673ffffffffffffffffffffffffffffffffffffffff1681526020019081526020016000205490508181101561149d576040517f08c379a0000000000000000000000000000000000000000000000000000000008152600401611494906126ab565b60405180910390fd5b8181036000808573ffffffffffffffffffffffffffffffffffffffff1673ffffffffffffffffffffffffffffffffffffffff1681526020019081526020016000208190555081600260008282546114f49190612573565b92505081905550600073ffffffffffffffffffffffffffffffffffffffff168373ffffffffffffffffffffffffffffffffffffffff167fddf252ad1be2c89b69c2b068fc378daa952ba7f163c4a11628f55a4df523b3ef846040516115599190611d25565b60405180910390a361156d83600084611abe565b505050565b6000600560009054906101000a900473ffffffffffffffffffffffffffffffffffffffff16905081600560006101000a81548173ffffffffffffffffffffffffffffffffffffffff021916908373ffffffffffffffffffffffffffffffffffffffff1602179055508173ffffffffffffffffffffffffffffffffffffffff168173ffffffffffffffffffffffffffffffffffffffff167f8be0079c531659141344cd1fd0a4f28419497f9722a3daafe3b4186f6b6457e060405160405180910390a35050565b600073ffffffffffffffffffffffffffffffffffffffff168373ffffffffffffffffffffffffffffffffffffffff1614156116a8576040517f08c379a000000000000000000000000000000000000000000000000000000000815260040161169f9061273d565b60405180910390fd5b600073ffffffffffffffffffffffffffffffffffffffff168273ffffffffffffffffffffffffffffffffffffffff161415611718576040517f08c379a000000000000000000000000000000000000000000000000000000000815260040161170f906127cf565b60405180910390fd5b611723838383611ab9565b60008060008573ffffffffffffffffffffffffffffffffffffffff1673ffffffffffffffffffffffffffffffffffffffff168152602001908152602001600020549050818110156117a9576040517f08c379a00000000000000000000000000000000000000000000000000000000081526004016117a090612861565b60405180910390fd5b8181036000808673ffffffffffffffffffffffffffffffffffffffff1673ffffffffffffffffffffffffffffffffffffffff16815260200190815260200160002081905550816000808573ffffffffffffffffffffffffffffffffffffffff1673ffffffffffffffffffffffffffffffffffffffff168152602001908152602001600020600082825461183c919061211d565b925050819055508273ffffffffffffffffffffffffffffffffffffffff168473ffffffffffffffffffffffffffffffffffffffff167fddf252ad1be2c89b69c2b068fc378daa952ba7f163c4a11628f55a4df523b3ef846040516118a09190611d25565b60405180910390a36118b3848484611abe565b50505050565b6000600267ffffffffffffffff8111156118d6576118d5612881565b5b6040519080825280602002602001820160405280156119045781602001602082028036833780820191505090505b509050308160008151811061191c5761191b6128b0565b5b602002602001019073ffffffffffffffffffffffffffffffffffffffff16908173ffffffffffffffffffffffffffffffffffffffff1681525050732791bca1f2de4661ed88a30c99a7a9449aa841748160018151811061197f5761197e6128b0565b5b602002602001019073ffffffffffffffffffffffffffffffffffffffff16908173ffffffffffffffffffffffffffffffffffffffff16815250506119e630600660009054906101000a900473ffffffffffffffffffffffffffffffffffffffff1684611081565b600660009054906101000a900473ffffffffffffffffffffffffffffffffffffffff1673ffffffffffffffffffffffffffffffffffffffff166338ed173983600084600860009054906101000a900473ffffffffffffffffffffffffffffffffffffffff16426040518663ffffffff1660e01b8152600401611a6c9594939291906129d8565b6000604051808303816000875af1158015611a8b573d6000803e3d6000fd5b505050506040513d6000823e3d601f19601f82011682018060405250810190611ab49190612b60565b505050565b505050565b505050565b600081519050919050565b600082825260208201905092915050565b60005b83811015611afd578082015181840152602081019050611ae2565b83811115611b0c576000848401525b50505050565b6000601f19601f8301169050919050565b6000611b2e82611ac3565b611b388185611ace565b9350611b48818560208601611adf565b611b5181611b12565b840191505092915050565b60006020820190508181036000830152611b768184611b23565b905092915050565b6000604051905090565b600080fd5b600080fd5b600073ffffffffffffffffffffffffffffffffffffffff82169050919050565b6000611bbd82611b92565b9050919050565b611bcd81611bb2565b8114611bd857600080fd5b50565b600081359050611bea81611bc4565b92915050565b6000819050919050565b611c0381611bf0565b8114611c0e57600080fd5b50565b600081359050611c2081611bfa565b92915050565b60008060408385031215611c3d57611c3c611b88565b5b6000611c4b85828601611bdb565b9250506020611c5c85828601611c11565b9150509250929050565b60008115159050919050565b611c7b81611c66565b82525050565b6000602082019050611c966000830184611c72565b92915050565b6000819050919050565b6000611cc1611cbc611cb784611b92565b611c9c565b611b92565b9050919050565b6000611cd382611ca6565b9050919050565b6000611ce582611cc8565b9050919050565b611cf581611cda565b82525050565b6000602082019050611d106000830184611cec565b92915050565b611d1f81611bf0565b82525050565b6000602082019050611d3a6000830184611d16565b92915050565b600080600060608486031215611d5957611d58611b88565b5b6000611d6786828701611bdb565b9350506020611d7886828701611bdb565b9250506040611d8986828701611c11565b9150509250925092565b600060ff82169050919050565b611da981611d93565b82525050565b6000602082019050611dc46000830184611da0565b92915050565b611dd381611c66565b8114611dde57600080fd5b50565b600081359050611df081611dca565b92915050565b60008060408385031215611e0d57611e0c611b88565b5b6000611e1b85828601611bdb565b9250506020611e2c85828601611de1565b9150509250929050565b600060208284031215611e4c57611e4b611b88565b5b6000611e5a84828501611c11565b91505092915050565b611e6c81611bb2565b82525050565b6000602082019050611e876000830184611e63565b92915050565b600060208284031215611ea357611ea2611b88565b5b6000611eb184828501611bdb565b91505092915050565b60008060408385031215611ed157611ed0611b88565b5b6000611edf85828601611bdb565b9250506020611ef085828601611bdb565b9150509250929050565b7f4e487b7100000000000000000000000000000000000000000000000000000000600052602260045260246000fd5b60006002820490506001821680611f4157607f821691505b60208210811415611f5557611f54611efa565b5b50919050565b7f45524332303a207472616e7366657220616d6f756e742065786365656473206160008201527f6c6c6f77616e6365000000000000000000000000000000000000000000000000602082015250565b6000611fb7602883611ace565b9150611fc282611f5b565b604082019050919050565b60006020820190508181036000830152611fe681611faa565b9050919050565b7f4f776e61626c653a2063616c6c6572206973206e6f7420746865206f776e6572600082015250565b6000612023602083611ace565b915061202e82611fed565b602082019050919050565b6000602082019050818103600083015261205281612016565b9050919050565b7f5a65726f2077616c6c6574000000000000000000000000000000000000000000600082015250565b600061208f600b83611ace565b915061209a82612059565b602082019050919050565b600060208201905081810360008301526120be81612082565b9050919050565b60006040820190506120da6000830185611e63565b6120e76020830184611c72565b9392505050565b7f4e487b7100000000000000000000000000000000000000000000000000000000600052601160045260246000fd5b600061212882611bf0565b915061213383611bf0565b9250827fffffffffffffffffffffffffffffffffffffffffffffffffffffffffffffffff03821115612168576121676120ee565b5b828201905092915050565b7f46656520746f6f20686967680000000000000000000000000000000000000000600082015250565b60006121a9600c83611ace565b91506121b482612173565b602082019050919050565b600060208201905081810360008301526121d88161219c565b9050919050565b7f45524332303a206275726e20616d6f756e74206578636565647320616c6c6f7760008201527f616e636500000000000000000000000000000000000000000000000000000000602082015250565b600061223b602483611ace565b9150612246826121df565b604082019050919050565b6000602082019050818103600083015261226a8161222e565b9050919050565b7f45524332303a2064656372656173656420616c6c6f77616e63652062656c6f7760008201527f207a65726f000000000000000000000000000000000000000000000000000000602082015250565b60006122cd602583611ace565b91506122d882612271565b604082019050919050565b600060208201905081810360008301526122fc816122c0565b9050919050565b7f4f776e61626c653a206e6577206f776e657220697320746865207a65726f206160008201527f6464726573730000000000000000000000000000000000000000000000000000602082015250565b600061235f602683611ace565b915061236a82612303565b604082019050919050565b6000602082019050818103600083015261238e81612352565b9050919050565b7f45524332303a20617070726f76652066726f6d20746865207a65726f2061646460008201527f7265737300000000000000000000000000000000000000000000000000000000602082015250565b60006123f1602483611ace565b91506123fc82612395565b604082019050919050565b60006020820190508181036000830152612420816123e4565b9050919050565b7f45524332303a20617070726f766520746f20746865207a65726f20616464726560008201527f7373000000000000000000000000000000000000000000000000000000000000602082015250565b6000612483602283611ace565b915061248e82612427565b604082019050919050565b600060208201905081810360008301526124b281612476565b9050919050565b60006124c482611bf0565b91506124cf83611bf0565b9250817fffffffffffffffffffffffffffffffffffffffffffffffffffffffffffffffff0483118215151615612508576125076120ee565b5b828202905092915050565b7f4e487b7100000000000000000000000000000000000000000000000000000000600052601260045260246000fd5b600061254d82611bf0565b915061255883611bf0565b92508261256857612567612513565b5b828204905092915050565b600061257e82611bf0565b915061258983611bf0565b92508282101561259c5761259b6120ee565b5b828203905092915050565b7f45524332303a206275726e2066726f6d20746865207a65726f2061646472657360008201527f7300000000000000000000000000000000000000000000000000000000000000602082015250565b6000612603602183611ace565b915061260e826125a7565b604082019050919050565b60006020820190508181036000830152612632816125f6565b9050919050565b7f45524332303a206275726e20616d6f756e7420657863656564732062616c616e60008201527f6365000000000000000000000000000000000000000000000000000000000000602082015250565b6000612695602283611ace565b91506126a082612639565b604082019050919050565b600060208201905081810360008301526126c481612688565b9050919050565b7f45524332303a207472616e736665722066726f6d20746865207a65726f20616460008201527f6472657373000000000000000000000000000000000000000000000000000000602082015250565b6000612727602583611ace565b9150612732826126cb565b604082019050919050565b600060208201905081810360008301526127568161271a565b9050919050565b7f45524332303a207472616e7366657220746f20746865207a65726f206164647260008201527f6573730000000000000000000000000000000000000000000000000000000000602082015250565b60006127b9602383611ace565b91506127c48261275d565b604082019050919050565b600060208201905081810360008301526127e8816127ac565b9050919050565b7f45524332303a207472616e7366657220616d6f756e742065786365656473206260008201527f616c616e63650000000000000000000000000000000000000000000000000000602082015250565b600061284b602683611ace565b9150612856826127ef565b604082019050919050565b6000602082019050818103600083015261287a8161283e565b9050919050565b7f4e487b7100000000000000000000000000000000000000000000000000000000600052604160045260246000fd5b7f4e487b7100000000000000000000000000000000000000000000000000000000600052603260045260246000fd5b6000819050919050565b60006129046128ff6128fa846128df565b611c9c565b611bf0565b9050919050565b612914816128e9565b82525050565b600081519050919050565b600082825260208201905092915050565b6000819050602082019050919050565b61294f81611bb2565b82525050565b60006129618383612946565b60208301905092915050565b6000602082019050919050565b60006129858261291a565b61298f8185612925565b935061299a83612936565b8060005b838110156129cb5781516129b28882612955565b97506129bd8361296d565b92505060018101905061299e565b5085935050505092915050565b600060a0820190506129ed6000830188611d16565b6129fa602083018761290b565b8181036040830152612a0c818661297a565b9050612a1b6060830185611e63565b612a286080830184611d16565b9695505050505050565b600080fd5b612a4082611b12565b810181811067ffffffffffffffff82111715612a5f57612a5e612881565b5b80604052505050565b6000612a72611b7e565b9050612a7e8282612a37565b919050565b600067ffffffffffffffff821115612a9e57612a9d612881565b5b602082029050602081019050919050565b600080fd5b600081519050612ac381611bfa565b92915050565b6000612adc612ad784612a83565b612a68565b90508083825260208201905060208402830185811115612aff57612afe612aaf565b5b835b81811015612b285780612b148882612ab4565b845260208401935050602081019050612b01565b5050509392505050565b600082601f830112612b4757612b46612a32565b5b8151612b57848260208601612ac9565b91505092915050565b600060208284031215612b7657612b75611b88565b5b600082015167ffffffffffffffff811115612b9457612b93611b8d565b5b612ba084828501612b32565b9150509291505056fea2646970667358221220d693197136cbbc4737678554f1a29f2019782082b1ddd2214d37fdd2eb5b8afb64736f6c634300080c0033",
  "immutableReferences": {},
  "source": "// SPDX-License-Identifier: MIT\npragma solidity 0.8.12;\n\nimport \"@openzeppelin/contracts/token/ERC20/ERC20.sol\";\nimport \"@openzeppelin/contracts/token/ERC20/extensions/ERC20Burnable.sol\";\nimport \"@openzeppelin/contracts/access/Ownable.sol\";\nimport \"../interfaces/IUniswapV2Pair.sol\";\nimport \"../interfaces/IUniswapV2Factory.sol\";\nimport \"../interfaces/IUniswapV2Router02.sol\";\n\ncontract AniToken is ERC20, ERC20Burnable, Ownable {\n    IUniswapV2Router02 public uniswapV2Router;\n    address public uniswapV2Pair;\n    address public wallet;\n    address public constant BUSD = address(0x2791Bca1f2de4661ED88A30C99A7a9449Aa84174);\n    uint256 public fee;\n    mapping (address => bool) public whitelist;\n\n    event OnWhitelist(address _whitelist, bool _status);\n    event OnSetFee(uint256 _fee);\n    event OnSetWallet(address _wallet);\n\n    constructor() ERC20(\"AToken\", \"AT\") {\n        _mint(msg.sender, 200000000 * 10 ** decimals());\n        fee = 200;\n        wallet = address(0x71B07e01DdE0adCbEbA8b635704043eC1f665E75);\n        // BSC 0x10ED43C718714eb63d5aA57B78B54704E256024E\n        IUniswapV2Router02 _uniswapV2Router =\n        IUniswapV2Router02(0x1b02dA8Cb0d097eB8D57A175b88c7D8b47997506);\n        uniswapV2Pair = IUniswapV2Factory(_uniswapV2Router.factory())\n        .createPair(address(this), BUSD);\n\n        uniswapV2Router = _uniswapV2Router;\n\n        whitelist[_msgSender()] = true;\n        whitelist[address(this)] = true;\n    }\n\n    function addWhitelist (address _whitelist, bool _status) external onlyOwner {\n        require (_whitelist != address(0), \"Zero wallet\");\n        whitelist[_whitelist] = _status;\n        emit OnWhitelist(_whitelist, _status);\n    }\n\n    function setFee (uint256 _fee) external onlyOwner {\n        require (_fee <= 500, \"Fee too high\");\n        fee = _fee;\n        emit OnSetFee(_fee);\n    }\n\n    function setWallet (address _wallet) external onlyOwner {\n        require (_wallet != address(0), \"Zero wallet\");\n        wallet = _wallet;\n        emit OnSetWallet(_wallet);\n    }\n\n    function _transfer(\n        address from,\n        address to,\n        uint256 amount\n    ) internal virtual override {\n        uint256 feeAmount;\n        if (!(whitelist[from] || whitelist[to])) {\n            if (to == uniswapV2Pair) {\n                feeAmount = amount * fee / 10000;\n                amount -= feeAmount;\n                super._transfer(from, address(this), feeAmount);\n                _swap(feeAmount);\n            }\n        }\n        super._transfer(from, to, amount);\n    }\n\n    function _swap(uint256 _amount) internal {\n        address[] memory path = new address[](2);\n        path[0] = address(this);\n        path[1] = BUSD;\n        _approve(address(this), address(uniswapV2Router), _amount);\n        uniswapV2Router.swapExactTokensForTokens(\n            _amount,\n            0,\n            path,\n            wallet,\n            block.timestamp\n        );\n    }\n}\n",
  "sourcePath": "/Users/poripuri/Documents/Dev/AniFi/contract_new/shin-keiyaku/contracts/tokens/AniToken.sol",
  "compiler": {
    "name": "solc",
    "version": "0.8.12+commit.f00d7308.Emscripten.clang"
  },
  "schemaVersion": "3.4.2",
  "updatedAt": "2022-09-25T17:44:59.712Z",
  "networkType": "ethereum",
  "devdoc": {
    "kind": "dev",
    "methods": {
      "allowance(address,address)": {
        "details": "See {IERC20-allowance}."
      },
      "approve(address,uint256)": {
        "details": "See {IERC20-approve}. Requirements: - `spender` cannot be the zero address."
      },
      "balanceOf(address)": {
        "details": "See {IERC20-balanceOf}."
      },
      "burn(uint256)": {
        "details": "Destroys `amount` tokens from the caller. See {ERC20-_burn}."
      },
      "burnFrom(address,uint256)": {
        "details": "Destroys `amount` tokens from `account`, deducting from the caller's allowance. See {ERC20-_burn} and {ERC20-allowance}. Requirements: - the caller must have allowance for ``accounts``'s tokens of at least `amount`."
      },
      "decimals()": {
        "details": "Returns the number of decimals used to get its user representation. For example, if `decimals` equals `2`, a balance of `505` tokens should be displayed to a user as `5,05` (`505 / 10 ** 2`). Tokens usually opt for a value of 18, imitating the relationship between Ether and Wei. This is the value {ERC20} uses, unless this function is overridden; NOTE: This information is only used for _display_ purposes: it in no way affects any of the arithmetic of the contract, including {IERC20-balanceOf} and {IERC20-transfer}."
      },
      "decreaseAllowance(address,uint256)": {
        "details": "Atomically decreases the allowance granted to `spender` by the caller. This is an alternative to {approve} that can be used as a mitigation for problems described in {IERC20-approve}. Emits an {Approval} event indicating the updated allowance. Requirements: - `spender` cannot be the zero address. - `spender` must have allowance for the caller of at least `subtractedValue`."
      },
      "increaseAllowance(address,uint256)": {
        "details": "Atomically increases the allowance granted to `spender` by the caller. This is an alternative to {approve} that can be used as a mitigation for problems described in {IERC20-approve}. Emits an {Approval} event indicating the updated allowance. Requirements: - `spender` cannot be the zero address."
      },
      "name()": {
        "details": "Returns the name of the token."
      },
      "owner()": {
        "details": "Returns the address of the current owner."
      },
      "renounceOwnership()": {
        "details": "Leaves the contract without owner. It will not be possible to call `onlyOwner` functions anymore. Can only be called by the current owner. NOTE: Renouncing ownership will leave the contract without an owner, thereby removing any functionality that is only available to the owner."
      },
      "symbol()": {
        "details": "Returns the symbol of the token, usually a shorter version of the name."
      },
      "totalSupply()": {
        "details": "See {IERC20-totalSupply}."
      },
      "transfer(address,uint256)": {
        "details": "See {IERC20-transfer}. Requirements: - `recipient` cannot be the zero address. - the caller must have a balance of at least `amount`."
      },
      "transferFrom(address,address,uint256)": {
        "details": "See {IERC20-transferFrom}. Emits an {Approval} event indicating the updated allowance. This is not required by the EIP. See the note at the beginning of {ERC20}. Requirements: - `sender` and `recipient` cannot be the zero address. - `sender` must have a balance of at least `amount`. - the caller must have allowance for ``sender``'s tokens of at least `amount`."
      },
      "transferOwnership(address)": {
        "details": "Transfers ownership of the contract to a new account (`newOwner`). Can only be called by the current owner."
      }
    },
    "version": 1
  },
  "userdoc": {
    "kind": "user",
    "methods": {},
    "version": 1
  }
}