{
  "contractName": "Hero",
  "abi": [
    {
      "anonymous": false,
      "inputs": [
        {
          "indexed": false,
          "internalType": "address",
          "name": "to",
          "type": "address"
        },
        {
          "indexed": false,
          "internalType": "uint256",
          "name": "heroId",
          "type": "uint256"
        },
        {
          "indexed": false,
          "internalType": "uint256",
          "name": "gotId",
          "type": "uint256"
        },
        {
          "indexed": false,
          "internalType": "uint256",
          "name": "gotAmount",
          "type": "uint256"
        }
      ],
      "name": "HeroDecomposed",
      "type": "event"
    },
    {
      "anonymous": false,
      "inputs": [
        {
          "indexed": false,
          "internalType": "address",
          "name": "to",
          "type": "address"
        },
        {
          "indexed": false,
          "internalType": "uint256[]",
          "name": "heroId",
          "type": "uint256[]"
        },
        {
          "indexed": false,
          "internalType": "uint256[]",
          "name": "gotIds",
          "type": "uint256[]"
        },
        {
          "indexed": false,
          "internalType": "uint256[]",
          "name": "gotAmounts",
          "type": "uint256[]"
        }
      ],
      "name": "HeroDecomposedBatch",
      "type": "event"
    },
    {
      "anonymous": false,
      "inputs": [
        {
          "indexed": false,
          "internalType": "uint256",
          "name": "tokenId",
          "type": "uint256"
        },
        {
          "components": [
            {
              "internalType": "uint32",
              "name": "STR",
              "type": "uint32"
            },
            {
              "internalType": "uint32",
              "name": "INT",
              "type": "uint32"
            },
            {
              "internalType": "uint32",
              "name": "VIT",
              "type": "uint32"
            },
            {
              "internalType": "uint32",
              "name": "AGI",
              "type": "uint32"
            },
            {
              "internalType": "uint32",
              "name": "RANK",
              "type": "uint32"
            }
          ],
          "indexed": false,
          "internalType": "struct IHero.Status",
          "name": "status",
          "type": "tuple"
        }
      ],
      "name": "HeroMinted",
      "type": "event"
    },
    {
      "anonymous": false,
      "inputs": [
        {
          "indexed": false,
          "internalType": "uint256",
          "name": "heroId",
          "type": "uint256"
        },
        {
          "components": [
            {
              "internalType": "uint32",
              "name": "STR",
              "type": "uint32"
            },
            {
              "internalType": "uint32",
              "name": "INT",
              "type": "uint32"
            },
            {
              "internalType": "uint32",
              "name": "VIT",
              "type": "uint32"
            },
            {
              "internalType": "uint32",
              "name": "AGI",
              "type": "uint32"
            },
            {
              "internalType": "uint32",
              "name": "RANK",
              "type": "uint32"
            }
          ],
          "indexed": false,
          "internalType": "struct IHero.Status",
          "name": "status",
          "type": "tuple"
        }
      ],
      "name": "HeroStatusChanged",
      "type": "event"
    },
    {
      "anonymous": false,
      "inputs": [
        {
          "indexed": false,
          "internalType": "address",
          "name": "owner",
          "type": "address"
        },
        {
          "indexed": false,
          "internalType": "uint256",
          "name": "heroId",
          "type": "uint256"
        },
        {
          "indexed": false,
          "internalType": "uint32",
          "name": "toRank",
          "type": "uint32"
        }
      ],
      "name": "HeroUpgraded",
      "type": "event"
    },
    {
      "inputs": [],
      "name": "ASSET_CONTROLLER_ROLE",
      "outputs": [
        {
          "internalType": "bytes32",
          "name": "",
          "type": "bytes32"
        }
      ],
      "stateMutability": "view",
      "type": "function",
      "constant": true
    },
    {
      "inputs": [],
      "name": "GAME_MANAGER_ROLE",
      "outputs": [
        {
          "internalType": "bytes32",
          "name": "",
          "type": "bytes32"
        }
      ],
      "stateMutability": "view",
      "type": "function",
      "constant": true
    },
    {
      "inputs": [],
      "name": "HERO_MANAGER_ROLE",
      "outputs": [
        {
          "internalType": "bytes32",
          "name": "",
          "type": "bytes32"
        }
      ],
      "stateMutability": "view",
      "type": "function",
      "constant": true
    },
    {
      "inputs": [],
      "name": "INITIALIZER_ROLE",
      "outputs": [
        {
          "internalType": "bytes32",
          "name": "",
          "type": "bytes32"
        }
      ],
      "stateMutability": "view",
      "type": "function",
      "constant": true
    },
    {
      "inputs": [],
      "name": "NFT_BURNER_ROLE",
      "outputs": [
        {
          "internalType": "bytes32",
          "name": "",
          "type": "bytes32"
        }
      ],
      "stateMutability": "view",
      "type": "function",
      "constant": true
    },
    {
      "inputs": [],
      "name": "NFT_MINTER_ROLE",
      "outputs": [
        {
          "internalType": "bytes32",
          "name": "",
          "type": "bytes32"
        }
      ],
      "stateMutability": "view",
      "type": "function",
      "constant": true
    },
    {
      "inputs": [],
      "name": "ORACLE_ROLE",
      "outputs": [
        {
          "internalType": "bytes32",
          "name": "",
          "type": "bytes32"
        }
      ],
      "stateMutability": "view",
      "type": "function",
      "constant": true
    },
    {
      "inputs": [],
      "name": "VENDOR_MANAGER_ROLE",
      "outputs": [
        {
          "internalType": "bytes32",
          "name": "",
          "type": "bytes32"
        }
      ],
      "stateMutability": "view",
      "type": "function",
      "constant": true
    },
    {
      "inputs": [
        {
          "internalType": "uint256",
          "name": "",
          "type": "uint256"
        }
      ],
      "name": "_heroStats",
      "outputs": [
        {
          "internalType": "uint32",
          "name": "STR",
          "type": "uint32"
        },
        {
          "internalType": "uint32",
          "name": "INT",
          "type": "uint32"
        },
        {
          "internalType": "uint32",
          "name": "VIT",
          "type": "uint32"
        },
        {
          "internalType": "uint32",
          "name": "AGI",
          "type": "uint32"
        },
        {
          "internalType": "uint32",
          "name": "RANK",
          "type": "uint32"
        }
      ],
      "stateMutability": "view",
      "type": "function",
      "constant": true
    },
    {
      "inputs": [],
      "name": "nft",
      "outputs": [
        {
          "internalType": "contract INFT",
          "name": "",
          "type": "address"
        }
      ],
      "stateMutability": "view",
      "type": "function",
      "constant": true
    },
    {
      "inputs": [],
      "name": "utils",
      "outputs": [
        {
          "internalType": "contract IUtils",
          "name": "",
          "type": "address"
        }
      ],
      "stateMutability": "view",
      "type": "function",
      "constant": true
    },
    {
      "inputs": [
        {
          "internalType": "address",
          "name": "_roleManager",
          "type": "address"
        },
        {
          "internalType": "contract INFT",
          "name": "_nft",
          "type": "address"
        },
        {
          "internalType": "contract IUtils",
          "name": "_utils",
          "type": "address"
        }
      ],
      "name": "initialize",
      "outputs": [],
      "stateMutability": "nonpayable",
      "type": "function"
    },
    {
      "inputs": [
        {
          "internalType": "address",
          "name": "_to",
          "type": "address"
        },
        {
          "internalType": "bool",
          "name": "_isTradable",
          "type": "bool"
        },
        {
          "internalType": "uint256",
          "name": "_randomness",
          "type": "uint256"
        },
        {
          "internalType": "uint8",
          "name": "_boxType",
          "type": "uint8"
        }
      ],
      "name": "randomHero",
      "outputs": [
        {
          "internalType": "uint256",
          "name": "",
          "type": "uint256"
        }
      ],
      "stateMutability": "nonpayable",
      "type": "function"
    },
    {
      "inputs": [
        {
          "internalType": "address",
          "name": "_to",
          "type": "address"
        },
        {
          "internalType": "bool",
          "name": "_isTradable",
          "type": "bool"
        },
        {
          "internalType": "uint16",
          "name": "_type",
          "type": "uint16"
        },
        {
          "internalType": "uint8",
          "name": "_class",
          "type": "uint8"
        },
        {
          "internalType": "uint8",
          "name": "_rarity",
          "type": "uint8"
        },
        {
          "components": [
            {
              "internalType": "uint32",
              "name": "STR",
              "type": "uint32"
            },
            {
              "internalType": "uint32",
              "name": "INT",
              "type": "uint32"
            },
            {
              "internalType": "uint32",
              "name": "VIT",
              "type": "uint32"
            },
            {
              "internalType": "uint32",
              "name": "AGI",
              "type": "uint32"
            },
            {
              "internalType": "uint32",
              "name": "RANK",
              "type": "uint32"
            }
          ],
          "internalType": "struct IHero.Status",
          "name": "_status",
          "type": "tuple"
        }
      ],
      "name": "mintHero",
      "outputs": [],
      "stateMutability": "nonpayable",
      "type": "function"
    },
    {
      "inputs": [
        {
          "internalType": "uint256",
          "name": "_heroId",
          "type": "uint256"
        }
      ],
      "name": "upgradeHero",
      "outputs": [],
      "stateMutability": "nonpayable",
      "type": "function"
    },
    {
      "inputs": [
        {
          "internalType": "uint256",
          "name": "_heroId",
          "type": "uint256"
        },
        {
          "internalType": "uint32",
          "name": "_targetRank",
          "type": "uint32"
        }
      ],
      "name": "upgradeHeroTo",
      "outputs": [],
      "stateMutability": "nonpayable",
      "type": "function"
    },
    {
      "inputs": [
        {
          "internalType": "uint256",
          "name": "_heroId",
          "type": "uint256"
        }
      ],
      "name": "decomposeHero",
      "outputs": [],
      "stateMutability": "nonpayable",
      "type": "function"
    },
    {
      "inputs": [
        {
          "internalType": "uint256[]",
          "name": "_heroIds",
          "type": "uint256[]"
        }
      ],
      "name": "decomposeHeroBatch",
      "outputs": [],
      "stateMutability": "nonpayable",
      "type": "function"
    }
  ],
  "bytecode": "0x608060405234801561001057600080fd5b50614634806100206000396000f3fe608060405234801561001057600080fd5b50600436106101165760003560e01c8063a3ea06ba116100a2578063c0c53b8b11610071578063c0c53b8b146102b1578063c63ac1dc146102cd578063cda15828146102e9578063eec0525b14610305578063ff6fcdbd1461033557610116565b8063a3ea06ba14610239578063ac5242b814610257578063b259631414610275578063c0833ee41461029357610116565b806347ccca02116100e957806347ccca021461018f57806358922a5f146101ad5780635a29638d146101c95780635e8248c0146101e757806368e8e0d81461020557610116565b806307e2cea51461011b578063084a47aa146101395780630c41cb801461015557806327df3d3e14610171575b600080fd5b610123610353565b6040516101309190612cc6565b60405180910390f35b610153600480360381019061014e9190612e84565b610377565b005b61016f600480360381019061016a91906130a3565b610b48565b005b610179610b92565b6040516101869190612cc6565b60405180910390f35b610197610bb6565b6040516101a49190613190565b60405180910390f35b6101c760048036038101906101c291906131ab565b610bdc565b005b6101d1611105565b6040516101de91906131f9565b60405180910390f35b6101ef61112b565b6040516101fc9190612cc6565b60405180910390f35b61021f600480360381019061021a91906131ab565b61114f565b604051610230959493929190613223565b60405180910390f35b6102416111d5565b60405161024e9190612cc6565b60405180910390f35b61025f6111f9565b60405161026c9190612cc6565b60405180910390f35b61027d61121d565b60405161028a9190612cc6565b60405180910390f35b61029b611241565b6040516102a89190612cc6565b60405180910390f35b6102cb60048036038101906102c691906132f2565b611265565b005b6102e760048036038101906102e291906131ab565b6113cc565b005b61030360048036038101906102fe9190613345565b611976565b005b61031f600480360381019061031a9190613385565b611f1a565b60405161032c91906133fb565b60405180910390f35b61033d612334565b60405161034a9190612cc6565b60405180910390f35b7f68e79a7bf1e0bc45d0a330c573bc367f9cf464fd326078812f301165fbda4ef181565b60008151116103bb576040517f08c379a00000000000000000000000000000000000000000000000000000000081526004016103b290613473565b60405180910390fd5b6000815167ffffffffffffffff8111156103d8576103d7612d0b565b5b6040519080825280602002602001820160405280156104065781602001602082028036833780820191505090505b5090506000825167ffffffffffffffff81111561042657610425612d0b565b5b6040519080825280602002602001820160405280156104545781602001602082028036833780820191505090505b5090506000835167ffffffffffffffff81111561047457610473612d0b565b5b6040519080825280602002602001820160405280156104a25781602001602082028036833780820191505090505b50905060005b84518110156109cd576001603460009054906101000a900473ffffffffffffffffffffffffffffffffffffffff1673ffffffffffffffffffffffffffffffffffffffff1662fdd58e6104f8612358565b88858151811061050b5761050a613493565b5b60200260200101516040518363ffffffff1660e01b81526004016105309291906134d1565b602060405180830381865afa15801561054d573d6000803e3d6000fd5b505050506040513d601f19601f82011682018060405250810190610571919061350f565b1480156106305750603560009054906101000a900473ffffffffffffffffffffffffffffffffffffffff1673ffffffffffffffffffffffffffffffffffffffff166336a54b908683815181106105ca576105c9613493565b5b60200260200101516040518263ffffffff1660e01b81526004016105ee91906133fb565b602060405180830381865afa15801561060b573d6000803e3d6000fd5b505050506040513d601f19601f8201168201806040525081019061062f9190613551565b5b80156106ee5750603560009054906101000a900473ffffffffffffffffffffffffffffffffffffffff1673ffffffffffffffffffffffffffffffffffffffff1663e27aa1d886838151811061068857610687613493565b5b60200260200101516040518263ffffffff1660e01b81526004016106ac91906133fb565b602060405180830381865afa1580156106c9573d6000803e3d6000fd5b505050506040513d601f19601f820116820180604052508101906106ed9190613551565b5b61072d576040517f08c379a0000000000000000000000000000000000000000000000000000000008152600401610724906135ca565b60405180910390fd5b600184828151811061074257610741613493565b5b602002602001018181525050603560009054906101000a900473ffffffffffffffffffffffffffffffffffffffff1673ffffffffffffffffffffffffffffffffffffffff1663d6f705666001603560009054906101000a900473ffffffffffffffffffffffffffffffffffffffff1673ffffffffffffffffffffffffffffffffffffffff1663b43cf2368986815181106107df576107de613493565b5b60200260200101516040518263ffffffff1660e01b815260040161080391906133fb565b602060405180830381865afa158015610820573d6000803e3d6000fd5b505050506040513d601f19601f8201168201806040525081019061084491906135ff565b6064610850919061365b565b6040518363ffffffff1660e01b815260040161086d9291906136eb565b602060405180830381865afa15801561088a573d6000803e3d6000fd5b505050506040513d601f19601f820116820180604052508101906108ae919061350f565b8382815181106108c1576108c0613493565b5b6020026020010181815250506001603560009054906101000a900473ffffffffffffffffffffffffffffffffffffffff1673ffffffffffffffffffffffffffffffffffffffff1663bd63c6298784815181106109205761091f613493565b5b60200260200101516040518263ffffffff1660e01b815260040161094491906133fb565b602060405180830381865afa158015610961573d6000803e3d6000fd5b505050506040513d601f19601f820116820180604052508101906109859190613729565b61098f9190613756565b600261099b91906138bd565b8282815181106109ae576109ad613493565b5b60200260200101818152505080806109c590613908565b9150506104a8565b50603460009054906101000a900473ffffffffffffffffffffffffffffffffffffffff1673ffffffffffffffffffffffffffffffffffffffff16636b20c454610a14612358565b86866040518463ffffffff1660e01b8152600401610a3493929190613a0f565b600060405180830381600087803b158015610a4e57600080fd5b505af1158015610a62573d6000803e3d6000fd5b50505050603460009054906101000a900473ffffffffffffffffffffffffffffffffffffffff1673ffffffffffffffffffffffffffffffffffffffff16631f7fdffa610aac612358565b84846040518463ffffffff1660e01b8152600401610acc93929190613a8b565b600060405180830381600087803b158015610ae657600080fd5b505af1158015610afa573d6000803e3d6000fd5b505050507f3fa861fe4386117337e02aaa28dda73d929b2d49ff3cbed7bac6a121a3b581d6610b27612358565b858484604051610b3a9493929190613ae3565b60405180910390a150505050565b7fe2e48373e7e83dec5a305c3b1f25465a29e74a534a34c2e3f3b73a15ffa4a6fb610b7a81610b75612358565b612360565b610b88878787878787612491565b5050505050505050565b7f30d41a597cac127d8249d31298b50e481ee82c3f4a49ff93c76a22735aa9f3ad81565b603460009054906101000a900473ffffffffffffffffffffffffffffffffffffffff1681565b6001603460009054906101000a900473ffffffffffffffffffffffffffffffffffffffff1673ffffffffffffffffffffffffffffffffffffffff1662fdd58e610c23612358565b846040518363ffffffff1660e01b8152600401610c419291906134d1565b602060405180830381865afa158015610c5e573d6000803e3d6000fd5b505050506040513d601f19601f82011682018060405250810190610c82919061350f565b148015610d275750603560009054906101000a900473ffffffffffffffffffffffffffffffffffffffff1673ffffffffffffffffffffffffffffffffffffffff166336a54b90826040518263ffffffff1660e01b8152600401610ce591906133fb565b602060405180830381865afa158015610d02573d6000803e3d6000fd5b505050506040513d601f19601f82011682018060405250810190610d269190613551565b5b610d66576040517f08c379a0000000000000000000000000000000000000000000000000000000008152600401610d5d906135ca565b60405180910390fd5b60006036600083815260200190815260200160002060000160109054906101000a900463ffffffff16905060058163ffffffff1610610dda576040517f08c379a0000000000000000000000000000000000000000000000000000000008152600401610dd190613b89565b60405180910390fd5b6000603560009054906101000a900473ffffffffffffffffffffffffffffffffffffffff1673ffffffffffffffffffffffffffffffffffffffff1663bd63c629846040518263ffffffff1660e01b8152600401610e3791906133fb565b602060405180830381865afa158015610e54573d6000803e3d6000fd5b505050506040513d601f19601f82011682018060405250810190610e789190613729565b60ff16826002610e889190613ba9565b610e929190613bf4565b9050603460009054906101000a900473ffffffffffffffffffffffffffffffffffffffff1673ffffffffffffffffffffffffffffffffffffffff1663f5298aca610eda612358565b603560009054906101000a900473ffffffffffffffffffffffffffffffffffffffff1673ffffffffffffffffffffffffffffffffffffffff1663d6f705666001603560009054906101000a900473ffffffffffffffffffffffffffffffffffffffff1673ffffffffffffffffffffffffffffffffffffffff1663b43cf2368a6040518263ffffffff1660e01b8152600401610f7591906133fb565b602060405180830381865afa158015610f92573d6000803e3d6000fd5b505050506040513d601f19601f82011682018060405250810190610fb691906135ff565b6064610fc2919061365b565b6040518363ffffffff1660e01b8152600401610fdf9291906136eb565b602060405180830381865afa158015610ffc573d6000803e3d6000fd5b505050506040513d601f19601f82011682018060405250810190611020919061350f565b846040518463ffffffff1660e01b815260040161103f93929190613c4e565b600060405180830381600087803b15801561105957600080fd5b505af115801561106d573d6000803e3d6000fd5b5050505060018261107e9190613c85565b6036600085815260200190815260200160002060000160106101000a81548163ffffffff021916908363ffffffff1602179055507f9a018e0dbfb4332bed73486383f01b35547a0bb7fc8bbd50c005afd471f3d2d56110db612358565b846001856110e99190613c85565b6040516110f893929190613cbf565b60405180910390a1505050565b603560009054906101000a900473ffffffffffffffffffffffffffffffffffffffff1681565b7f51f8f2c5ee2fca3a67ad56221434bd562ae85739b13d878dc7708a17bb93bfb081565b60366020528060005260406000206000915090508060000160009054906101000a900463ffffffff16908060000160049054906101000a900463ffffffff16908060000160089054906101000a900463ffffffff169080600001600c9054906101000a900463ffffffff16908060000160109054906101000a900463ffffffff16905085565b7fa29120b87765615bebca1f1e843c7f216a8bd4c48a5a77241db99f1fa258593581565b7fe2e48373e7e83dec5a305c3b1f25465a29e74a534a34c2e3f3b73a15ffa4a6fb81565b7f93c2de005b627b4148f1ed7c443ee399c7341c199aab7243d5c24d1c32a0463681565b7f3a5b873628a2c49bf313473942acc8932f6f84c76b74bf3db0e4d8b51277a62381565b600060019054906101000a900460ff168061128b575060008054906101000a900460ff16155b6112ca576040517f08c379a00000000000000000000000000000000000000000000000000000000081526004016112c190613d68565b60405180910390fd5b60008060019054906101000a900460ff16159050801561131a576001600060016101000a81548160ff02191690831515021790555060016000806101000a81548160ff0219169083151502179055505b611323846127a9565b82603460006101000a81548173ffffffffffffffffffffffffffffffffffffffff021916908373ffffffffffffffffffffffffffffffffffffffff16021790555081603560006101000a81548173ffffffffffffffffffffffffffffffffffffffff021916908373ffffffffffffffffffffffffffffffffffffffff16021790555080156113c65760008060016101000a81548160ff0219169083151502179055505b50505050565b6001603460009054906101000a900473ffffffffffffffffffffffffffffffffffffffff1673ffffffffffffffffffffffffffffffffffffffff1662fdd58e611413612358565b846040518363ffffffff1660e01b81526004016114319291906134d1565b602060405180830381865afa15801561144e573d6000803e3d6000fd5b505050506040513d601f19601f82011682018060405250810190611472919061350f565b1480156115175750603560009054906101000a900473ffffffffffffffffffffffffffffffffffffffff1673ffffffffffffffffffffffffffffffffffffffff166336a54b90826040518263ffffffff1660e01b81526004016114d591906133fb565b602060405180830381865afa1580156114f2573d6000803e3d6000fd5b505050506040513d601f19601f820116820180604052508101906115169190613551565b5b80156115bb5750603560009054906101000a900473ffffffffffffffffffffffffffffffffffffffff1673ffffffffffffffffffffffffffffffffffffffff1663e27aa1d8826040518263ffffffff1660e01b815260040161157991906133fb565b602060405180830381865afa158015611596573d6000803e3d6000fd5b505050506040513d601f19601f820116820180604052508101906115ba9190613551565b5b6115fa576040517f08c379a00000000000000000000000000000000000000000000000000000000081526004016115f1906135ca565b60405180910390fd5b603460009054906101000a900473ffffffffffffffffffffffffffffffffffffffff1673ffffffffffffffffffffffffffffffffffffffff1663f5298aca611640612358565b8360016040518463ffffffff1660e01b815260040161166193929190613dc3565b600060405180830381600087803b15801561167b57600080fd5b505af115801561168f573d6000803e3d6000fd5b505050506000603560009054906101000a900473ffffffffffffffffffffffffffffffffffffffff1673ffffffffffffffffffffffffffffffffffffffff1663d6f705666001603560009054906101000a900473ffffffffffffffffffffffffffffffffffffffff1673ffffffffffffffffffffffffffffffffffffffff1663b43cf236866040518263ffffffff1660e01b815260040161173091906133fb565b602060405180830381865afa15801561174d573d6000803e3d6000fd5b505050506040513d601f19601f8201168201806040525081019061177191906135ff565b606461177d919061365b565b6040518363ffffffff1660e01b815260040161179a9291906136eb565b602060405180830381865afa1580156117b7573d6000803e3d6000fd5b505050506040513d601f19601f820116820180604052508101906117db919061350f565b905060006001603560009054906101000a900473ffffffffffffffffffffffffffffffffffffffff1673ffffffffffffffffffffffffffffffffffffffff1663bd63c629856040518263ffffffff1660e01b815260040161183c91906133fb565b602060405180830381865afa158015611859573d6000803e3d6000fd5b505050506040513d601f19601f8201168201806040525081019061187d9190613729565b6118879190613756565b600261189391906138bd565b9050603460009054906101000a900473ffffffffffffffffffffffffffffffffffffffff1673ffffffffffffffffffffffffffffffffffffffff1663731133e96118db612358565b84846040518463ffffffff1660e01b81526004016118fb93929190613dfa565b600060405180830381600087803b15801561191557600080fd5b505af1158015611929573d6000803e3d6000fd5b505050507f38864f6682a0943e6eda8b95f00cf95e86ae4c45984e7a68279f88bbef1f2478611956612358565b8484846040516119699493929190613e44565b60405180910390a1505050565b6001603460009054906101000a900473ffffffffffffffffffffffffffffffffffffffff1673ffffffffffffffffffffffffffffffffffffffff1662fdd58e6119bd612358565b856040518363ffffffff1660e01b81526004016119db9291906134d1565b602060405180830381865afa1580156119f8573d6000803e3d6000fd5b505050506040513d601f19601f82011682018060405250810190611a1c919061350f565b148015611ac15750603560009054906101000a900473ffffffffffffffffffffffffffffffffffffffff1673ffffffffffffffffffffffffffffffffffffffff166336a54b90836040518263ffffffff1660e01b8152600401611a7f91906133fb565b602060405180830381865afa158015611a9c573d6000803e3d6000fd5b505050506040513d601f19601f82011682018060405250810190611ac09190613551565b5b611b00576040517f08c379a0000000000000000000000000000000000000000000000000000000008152600401611af7906135ca565b60405180910390fd5b60058163ffffffff161115611b4a576040517f08c379a0000000000000000000000000000000000000000000000000000000008152600401611b4190613ed5565b60405180910390fd5b60006036600084815260200190815260200160002060000160109054906101000a900463ffffffff1690508163ffffffff168163ffffffff1610611bc3576040517f08c379a0000000000000000000000000000000000000000000000000000000008152600401611bba90613f41565b60405180910390fd5b6000603560009054906101000a900473ffffffffffffffffffffffffffffffffffffffff1673ffffffffffffffffffffffffffffffffffffffff1663bd63c629856040518263ffffffff1660e01b8152600401611c2091906133fb565b602060405180830381865afa158015611c3d573d6000803e3d6000fd5b505050506040513d601f19601f82011682018060405250810190611c619190613729565b60ff1690506000808390505b8463ffffffff168163ffffffff1611611cbe578263ffffffff16816002611c949190613ba9565b611c9e9190613bf4565b82611ca99190613f61565b91508080611cb690613fb7565b915050611c6d565b50603460009054906101000a900473ffffffffffffffffffffffffffffffffffffffff1673ffffffffffffffffffffffffffffffffffffffff1663f5298aca611d05612358565b603560009054906101000a900473ffffffffffffffffffffffffffffffffffffffff1673ffffffffffffffffffffffffffffffffffffffff1663d6f705666001603560009054906101000a900473ffffffffffffffffffffffffffffffffffffffff1673ffffffffffffffffffffffffffffffffffffffff1663b43cf2368c6040518263ffffffff1660e01b8152600401611da091906133fb565b602060405180830381865afa158015611dbd573d6000803e3d6000fd5b505050506040513d601f19601f82011682018060405250810190611de191906135ff565b6064611ded919061365b565b6040518363ffffffff1660e01b8152600401611e0a9291906136eb565b602060405180830381865afa158015611e27573d6000803e3d6000fd5b505050506040513d601f19601f82011682018060405250810190611e4b919061350f565b846040518463ffffffff1660e01b8152600401611e6a93929190613c4e565b600060405180830381600087803b158015611e8457600080fd5b505af1158015611e98573d6000803e3d6000fd5b50505050836036600087815260200190815260200160002060000160106101000a81548163ffffffff021916908363ffffffff1602179055507f9a018e0dbfb4332bed73486383f01b35547a0bb7fc8bbd50c005afd471f3d2d5611efa612358565b8686604051611f0b93929190613cbf565b60405180910390a15050505050565b60007fe2e48373e7e83dec5a305c3b1f25465a29e74a534a34c2e3f3b73a15ffa4a6fb611f4e81611f49612358565b612360565b60018360ff1610158015611f66575060048360ff1611155b611fa5576040517f08c379a0000000000000000000000000000000000000000000000000000000008152600401611f9c90614030565b60405180910390fd5b60006040518060a00160405280600160ff168152602001600160ff168152602001600160ff168152602001600160ff168152602001600060ff168152509050600063ffffffff86169050600063ffffffff602088901c169050600064ffffffffff604089901c16905060008060008060048b60ff161415612029576006905061209e565b63333333338763ffffffff161015612044576001905061209d565b63666666668763ffffffff16101561205f576002905061209c565b63999999998763ffffffff16101561207a576003905061209b565b63cccccccc8763ffffffff161015612095576004905061209a565b600590505b5b5b5b5b60018b60ff1614806120b3575060048b60ff16145b156120dc576120d586638ccccccd63deb851ec63f851eb8663feb851ec6128c4565b9150612176565b60028b60ff16141561210c5761210586631999999a63a666666763e8f5c29063fc28f5c36128c4565b9150612175565b60038b60ff16141561213957612132866000631999999a63a666666763eccccccd6128c4565b9150612174565b6040517f08c379a000000000000000000000000000000000000000000000000000000000815260040161216b9061409c565b60405180910390fd5b5b5b60018260ff16141561218f5760149250600893506121f3565b60028260ff1614156121a85760169250600993506121f2565b60038260ff1614156121c15760189250600a93506121f1565b60048260ff1614156121da57601a9250600b93506121f0565b60058260ff1614156121ef57601c9250600c93505b5b5b5b5b60005b8360ff168160ff1610156122395760006003871690506122178a8288612948565b60028764ffffffffff16901c9650508080612231906140bc565b9150506121f6565b5060006040518060a001604052808a60006005811061225b5761225a613493565b5b602002015160ff1663ffffffff1681526020018a60016005811061228257612281613493565b5b602002015160ff1663ffffffff1681526020018a6002600581106122a9576122a8613493565b5b602002015160ff1663ffffffff1681526020018a6003600581106122d0576122cf613493565b5b602002015160ff1663ffffffff1681526020018a6004600581106122f7576122f6613493565b5b602002015160ff1663ffffffff1681525090506123208f8f84612319866129d7565b8786612491565b9a5050505050505050505050949350505050565b7fef17b1f3c5a412f9c8e887e3abd186802afec7dc657fd3b7002bf87b128dd0b181565b600033905090565b603360009054906101000a900473ffffffffffffffffffffffffffffffffffffffff1673ffffffffffffffffffffffffffffffffffffffff166391d1485483836040518363ffffffff1660e01b81526004016123bd9291906140e6565b602060405180830381865afa1580156123da573d6000803e3d6000fd5b505050506040513d601f19601f820116820180604052508101906123fe9190613551565b61248d576124238173ffffffffffffffffffffffffffffffffffffffff166014612a71565b6124318360001c6020612a71565b604051602001612442929190614221565b6040516020818303038152906040526040517f08c379a00000000000000000000000000000000000000000000000000000000081526004016124849190614294565b60405180910390fd5b5050565b60008073ffffffffffffffffffffffffffffffffffffffff168773ffffffffffffffffffffffffffffffffffffffff161415612502576040517f08c379a00000000000000000000000000000000000000000000000000000000081526004016124f990614302565b60405180910390fd5b60006035601481819054906101000a900467ffffffffffffffff1661252690614336565b91906101000a81548167ffffffffffffffff021916908367ffffffffffffffff160217905590506000603560009054906101000a900473ffffffffffffffffffffffffffffffffffffffff1673ffffffffffffffffffffffffffffffffffffffff16633836cbb189898989876040518663ffffffff1660e01b81526004016125b2959493929190614394565b602060405180830381865afa1580156125cf573d6000803e3d6000fd5b505050506040513d601f19601f820116820180604052508101906125f3919061350f565b9050603460009054906101000a900473ffffffffffffffffffffffffffffffffffffffff1673ffffffffffffffffffffffffffffffffffffffff1663731133e98a8360016040518463ffffffff1660e01b8152600401612655939291906143e7565b600060405180830381600087803b15801561266f57600080fd5b505af1158015612683573d6000803e3d6000fd5b50505050836036600083815260200190815260200160002060008201518160000160006101000a81548163ffffffff021916908363ffffffff16021790555060208201518160000160046101000a81548163ffffffff021916908363ffffffff16021790555060408201518160000160086101000a81548163ffffffff021916908363ffffffff160217905550606082015181600001600c6101000a81548163ffffffff021916908363ffffffff16021790555060808201518160000160106101000a81548163ffffffff021916908363ffffffff1602179055509050507f7d7352a0cff761b88b93d78e4856ea2e04da5f9266419834b656d7e3fc9c0df081856040516127929291906144a8565b60405180910390a180925050509695505050505050565b600060019054906101000a900460ff16806127cf575060008054906101000a900460ff16155b61280e576040517f08c379a000000000000000000000000000000000000000000000000000000000815260040161280590613d68565b60405180910390fd5b60008060019054906101000a900460ff16159050801561285e576001600060016101000a81548160ff02191690831515021790555060016000806101000a81548160ff0219169083151502179055505b81603360006101000a81548173ffffffffffffffffffffffffffffffffffffffff021916908373ffffffffffffffffffffffffffffffffffffffff16021790555080156128c05760008060016101000a81548160ff0219169083151502179055505b5050565b60008463ffffffff168663ffffffff1610156128e3576001905061293f565b8363ffffffff168663ffffffff161015612900576002905061293f565b8263ffffffff168663ffffffff16101561291d576003905061293f565b8163ffffffff168663ffffffff16101561293a576004905061293f565b600590505b95945050505050565b6000838360ff16600581106129605761295f613493565b5b602002015190508160ff168160ff161061299c5761299784600460018661298791906144d1565b6129919190614537565b84612948565b6129d1565b6001816129a991906144d1565b848460ff16600581106129bf576129be613493565b5b602002019060ff16908160ff16815250505b50505050565b60008060018361ffff1614156129f05760029050612a68565b60028361ffff161415612a065760019050612a67565b60038361ffff161415612a1c5760019050612a66565b60048361ffff161415612a325760029050612a65565b60058361ffff161415612a485760019050612a64565b60068361ffff161415612a5e5760029050612a63565b600190505b5b5b5b5b5b80915050919050565b606060006002836002612a849190613bf4565b612a8e9190613f61565b67ffffffffffffffff811115612aa757612aa6612d0b565b5b6040519080825280601f01601f191660200182016040528015612ad95781602001600182028036833780820191505090505b5090507f300000000000000000000000000000000000000000000000000000000000000081600081518110612b1157612b10613493565b5b60200101907effffffffffffffffffffffffffffffffffffffffffffffffffffffffffffff1916908160001a9053507f780000000000000000000000000000000000000000000000000000000000000081600181518110612b7557612b74613493565b5b60200101907effffffffffffffffffffffffffffffffffffffffffffffffffffffffffffff1916908160001a90535060006001846002612bb59190613bf4565b612bbf9190613f61565b90505b6001811115612c5f577f3031323334353637383961626364656600000000000000000000000000000000600f861660108110612c0157612c00613493565b5b1a60f81b828281518110612c1857612c17613493565b5b60200101907effffffffffffffffffffffffffffffffffffffffffffffffffffffffffffff1916908160001a905350600485901c945080612c5890614568565b9050612bc2565b5060008414612ca3576040517f08c379a0000000000000000000000000000000000000000000000000000000008152600401612c9a906145de565b60405180910390fd5b8091505092915050565b6000819050919050565b612cc081612cad565b82525050565b6000602082019050612cdb6000830184612cb7565b92915050565b6000604051905090565b600080fd5b600080fd5b600080fd5b6000601f19601f8301169050919050565b7f4e487b7100000000000000000000000000000000000000000000000000000000600052604160045260246000fd5b612d4382612cfa565b810181811067ffffffffffffffff82111715612d6257612d61612d0b565b5b80604052505050565b6000612d75612ce1565b9050612d818282612d3a565b919050565b600067ffffffffffffffff821115612da157612da0612d0b565b5b602082029050602081019050919050565b600080fd5b6000819050919050565b612dca81612db7565b8114612dd557600080fd5b50565b600081359050612de781612dc1565b92915050565b6000612e00612dfb84612d86565b612d6b565b90508083825260208201905060208402830185811115612e2357612e22612db2565b5b835b81811015612e4c5780612e388882612dd8565b845260208401935050602081019050612e25565b5050509392505050565b600082601f830112612e6b57612e6a612cf5565b5b8135612e7b848260208601612ded565b91505092915050565b600060208284031215612e9a57612e99612ceb565b5b600082013567ffffffffffffffff811115612eb857612eb7612cf0565b5b612ec484828501612e56565b91505092915050565b600073ffffffffffffffffffffffffffffffffffffffff82169050919050565b6000612ef882612ecd565b9050919050565b612f0881612eed565b8114612f1357600080fd5b50565b600081359050612f2581612eff565b92915050565b60008115159050919050565b612f4081612f2b565b8114612f4b57600080fd5b50565b600081359050612f5d81612f37565b92915050565b600061ffff82169050919050565b612f7a81612f63565b8114612f8557600080fd5b50565b600081359050612f9781612f71565b92915050565b600060ff82169050919050565b612fb381612f9d565b8114612fbe57600080fd5b50565b600081359050612fd081612faa565b92915050565b600080fd5b600063ffffffff82169050919050565b612ff481612fdb565b8114612fff57600080fd5b50565b60008135905061301181612feb565b92915050565b600060a0828403121561302d5761302c612fd6565b5b61303760a0612d6b565b9050600061304784828501613002565b600083015250602061305b84828501613002565b602083015250604061306f84828501613002565b604083015250606061308384828501613002565b606083015250608061309784828501613002565b60808301525092915050565b60008060008060008061014087890312156130c1576130c0612ceb565b5b60006130cf89828a01612f16565b96505060206130e089828a01612f4e565b95505060406130f189828a01612f88565b945050606061310289828a01612fc1565b935050608061311389828a01612fc1565b92505060a061312489828a01613017565b9150509295509295509295565b6000819050919050565b600061315661315161314c84612ecd565b613131565b612ecd565b9050919050565b60006131688261313b565b9050919050565b600061317a8261315d565b9050919050565b61318a8161316f565b82525050565b60006020820190506131a56000830184613181565b92915050565b6000602082840312156131c1576131c0612ceb565b5b60006131cf84828501612dd8565b91505092915050565b60006131e38261315d565b9050919050565b6131f3816131d8565b82525050565b600060208201905061320e60008301846131ea565b92915050565b61321d81612fdb565b82525050565b600060a0820190506132386000830188613214565b6132456020830187613214565b6132526040830186613214565b61325f6060830185613214565b61326c6080830184613214565b9695505050505050565b600061328182612eed565b9050919050565b61329181613276565b811461329c57600080fd5b50565b6000813590506132ae81613288565b92915050565b60006132bf82612eed565b9050919050565b6132cf816132b4565b81146132da57600080fd5b50565b6000813590506132ec816132c6565b92915050565b60008060006060848603121561330b5761330a612ceb565b5b600061331986828701612f16565b935050602061332a8682870161329f565b925050604061333b868287016132dd565b9150509250925092565b6000806040838503121561335c5761335b612ceb565b5b600061336a85828601612dd8565b925050602061337b85828601613002565b9150509250929050565b6000806000806080858703121561339f5761339e612ceb565b5b60006133ad87828801612f16565b94505060206133be87828801612f4e565b93505060406133cf87828801612dd8565b92505060606133e087828801612fc1565b91505092959194509250565b6133f581612db7565b82525050565b600060208201905061341060008301846133ec565b92915050565b600082825260208201905092915050565b7f456d707479204865726f204c6973740000000000000000000000000000000000600082015250565b600061345d600f83613416565b915061346882613427565b602082019050919050565b6000602082019050818103600083015261348c81613450565b9050919050565b7f4e487b7100000000000000000000000000000000000000000000000000000000600052603260045260246000fd5b6134cb81612eed565b82525050565b60006040820190506134e660008301856134c2565b6134f360208301846133ec565b9392505050565b60008151905061350981612dc1565b92915050565b60006020828403121561352557613524612ceb565b5b6000613533848285016134fa565b91505092915050565b60008151905061354b81612f37565b92915050565b60006020828403121561356757613566612ceb565b5b60006135758482850161353c565b91505092915050565b7f496e76616c6964206865726f4964000000000000000000000000000000000000600082015250565b60006135b4600e83613416565b91506135bf8261357e565b602082019050919050565b600060208201905081810360008301526135e3816135a7565b9050919050565b6000815190506135f981612f71565b92915050565b60006020828403121561361557613614612ceb565b5b6000613623848285016135ea565b91505092915050565b7f4e487b7100000000000000000000000000000000000000000000000000000000600052601160045260246000fd5b600061366682612f63565b915061367183612f63565b92508261ffff038211156136885761368761362c565b5b828201905092915050565b61369c81612f2b565b82525050565b60006bffffffffffffffffffffffff82169050919050565b60006136d56136d06136cb84612f63565b613131565b6136a2565b9050919050565b6136e5816136ba565b82525050565b60006040820190506137006000830185613693565b61370d60208301846136dc565b9392505050565b60008151905061372381612faa565b92915050565b60006020828403121561373f5761373e612ceb565b5b600061374d84828501613714565b91505092915050565b600061376182612f9d565b915061376c83612f9d565b92508282101561377f5761377e61362c565b5b828203905092915050565b60008160011c9050919050565b6000808291508390505b60018511156137e1578086048111156137bd576137bc61362c565b5b60018516156137cc5780820291505b80810290506137da8561378a565b94506137a1565b94509492505050565b6000826137fa57600190506138b6565b8161380857600090506138b6565b816001811461381e576002811461382857613857565b60019150506138b6565b60ff84111561383a5761383961362c565b5b8360020a9150848211156138515761385061362c565b5b506138b6565b5060208310610133831016604e8410600b841016171561388c5782820a9050838111156138875761388661362c565b5b6138b6565b6138998484846001613797565b925090508184048111156138b0576138af61362c565b5b81810290505b9392505050565b60006138c882612db7565b91506138d383612f9d565b92506139007fffffffffffffffffffffffffffffffffffffffffffffffffffffffffffffffff84846137ea565b905092915050565b600061391382612db7565b91507fffffffffffffffffffffffffffffffffffffffffffffffffffffffffffffffff8214156139465761394561362c565b5b600182019050919050565b600081519050919050565b600082825260208201905092915050565b6000819050602082019050919050565b61398681612db7565b82525050565b6000613998838361397d565b60208301905092915050565b6000602082019050919050565b60006139bc82613951565b6139c6818561395c565b93506139d18361396d565b8060005b83811015613a025781516139e9888261398c565b97506139f4836139a4565b9250506001810190506139d5565b5085935050505092915050565b6000606082019050613a2460008301866134c2565b8181036020830152613a3681856139b1565b90508181036040830152613a4a81846139b1565b9050949350505050565b600082825260208201905092915050565b50565b6000613a75600083613a54565b9150613a8082613a65565b600082019050919050565b6000608082019050613aa060008301866134c2565b8181036020830152613ab281856139b1565b90508181036040830152613ac681846139b1565b90508181036060830152613ad981613a68565b9050949350505050565b6000608082019050613af860008301876134c2565b8181036020830152613b0a81866139b1565b90508181036040830152613b1e81856139b1565b90508181036060830152613b3281846139b1565b905095945050505050565b7f4d6178696d756d2072616e6b0000000000000000000000000000000000000000600082015250565b6000613b73600c83613416565b9150613b7e82613b3d565b602082019050919050565b60006020820190508181036000830152613ba281613b66565b9050919050565b6000613bb482612db7565b9150613bbf83612fdb565b9250613bec7fffffffffffffffffffffffffffffffffffffffffffffffffffffffffffffffff84846137ea565b905092915050565b6000613bff82612db7565b9150613c0a83612db7565b9250817fffffffffffffffffffffffffffffffffffffffffffffffffffffffffffffffff0483118215151615613c4357613c4261362c565b5b828202905092915050565b6000606082019050613c6360008301866134c2565b613c7060208301856133ec565b613c7d60408301846133ec565b949350505050565b6000613c9082612fdb565b9150613c9b83612fdb565b92508263ffffffff03821115613cb457613cb361362c565b5b828201905092915050565b6000606082019050613cd460008301866134c2565b613ce160208301856133ec565b613cee6040830184613214565b949350505050565b7f496e697469616c697a61626c653a20636f6e747261637420697320616c72656160008201527f647920696e697469616c697a6564000000000000000000000000000000000000602082015250565b6000613d52602e83613416565b9150613d5d82613cf6565b604082019050919050565b60006020820190508181036000830152613d8181613d45565b9050919050565b6000819050919050565b6000613dad613da8613da384613d88565b613131565b612db7565b9050919050565b613dbd81613d92565b82525050565b6000606082019050613dd860008301866134c2565b613de560208301856133ec565b613df26040830184613db4565b949350505050565b6000608082019050613e0f60008301866134c2565b613e1c60208301856133ec565b613e2960408301846133ec565b8181036060830152613e3a81613a68565b9050949350505050565b6000608082019050613e5960008301876134c2565b613e6660208301866133ec565b613e7360408301856133ec565b613e8060608301846133ec565b95945050505050565b7f4d6178696d756d2072616e6b2065786365656465640000000000000000000000600082015250565b6000613ebf601583613416565b9150613eca82613e89565b602082019050919050565b60006020820190508181036000830152613eee81613eb2565b9050919050565b7f496e76616c69642074617267657452616e6b0000000000000000000000000000600082015250565b6000613f2b601283613416565b9150613f3682613ef5565b602082019050919050565b60006020820190508181036000830152613f5a81613f1e565b9050919050565b6000613f6c82612db7565b9150613f7783612db7565b9250827fffffffffffffffffffffffffffffffffffffffffffffffffffffffffffffffff03821115613fac57613fab61362c565b5b828201905092915050565b6000613fc282612fdb565b915063ffffffff821415613fd957613fd861362c565b5b600182019050919050565b7f496e76616c696420626f78547970650000000000000000000000000000000000600082015250565b600061401a600f83613416565b915061402582613fe4565b602082019050919050565b600060208201905081810360008301526140498161400d565b9050919050565b7f536f6d657468696e672077726f6e670000000000000000000000000000000000600082015250565b6000614086600f83613416565b915061409182614050565b602082019050919050565b600060208201905081810360008301526140b581614079565b9050919050565b60006140c782612f9d565b915060ff8214156140db576140da61362c565b5b600182019050919050565b60006040820190506140fb6000830185612cb7565b61410860208301846134c2565b9392505050565b600081905092915050565b7f416363657373436f6e74726f6c3a206163636f756e7420000000000000000000600082015250565b600061415060178361410f565b915061415b8261411a565b601782019050919050565b600081519050919050565b60005b8381101561418f578082015181840152602081019050614174565b8381111561419e576000848401525b50505050565b60006141af82614166565b6141b9818561410f565b93506141c9818560208601614171565b80840191505092915050565b7f206973206d697373696e6720726f6c6520000000000000000000000000000000600082015250565b600061420b60118361410f565b9150614216826141d5565b601182019050919050565b600061422c82614143565b915061423882856141a4565b9150614243826141fe565b915061424f82846141a4565b91508190509392505050565b600061426682614166565b6142708185613416565b9350614280818560208601614171565b61428981612cfa565b840191505092915050565b600060208201905081810360008301526142ae818461425b565b905092915050565b7f496e76616c696420616464726573730000000000000000000000000000000000600082015250565b60006142ec600f83613416565b91506142f7826142b6565b602082019050919050565b6000602082019050818103600083015261431b816142df565b9050919050565b600067ffffffffffffffff82169050919050565b600061434182614322565b915067ffffffffffffffff82141561435c5761435b61362c565b5b600182019050919050565b61437081612f63565b82525050565b61437f81612f9d565b82525050565b61438e81614322565b82525050565b600060a0820190506143a96000830188613693565b6143b66020830187614367565b6143c36040830186614376565b6143d06060830185614376565b6143dd6080830184614385565b9695505050505050565b60006080820190506143fc60008301866134c2565b61440960208301856133ec565b6144166040830184613db4565b818103606083015261442781613a68565b9050949350505050565b61443a81612fdb565b82525050565b60a0820160008201516144566000850182614431565b5060208201516144696020850182614431565b50604082015161447c6040850182614431565b50606082015161448f6060850182614431565b5060808201516144a26080850182614431565b50505050565b600060c0820190506144bd60008301856133ec565b6144ca6020830184614440565b9392505050565b60006144dc82612f9d565b91506144e783612f9d565b92508260ff038211156144fd576144fc61362c565b5b828201905092915050565b7f4e487b7100000000000000000000000000000000000000000000000000000000600052601260045260246000fd5b600061454282612f9d565b915061454d83612f9d565b92508261455d5761455c614508565b5b828206905092915050565b600061457382612db7565b915060008214156145875761458661362c565b5b600182039050919050565b7f537472696e67733a20686578206c656e67746820696e73756666696369656e74600082015250565b60006145c8602083613416565b91506145d382614592565b602082019050919050565b600060208201905081810360008301526145f7816145bb565b905091905056fea2646970667358221220f5a725aaa8ccfe9e91a25c64d1a9674c88ba4820832cff01f95f36e61537486764736f6c634300080c0033",
  "immutableReferences": {},
  "source": "// SPDX-License-Identifier: MIT\npragma solidity 0.8.12;\n\nimport \"./interfaces/INFT.sol\";\nimport \"./interfaces/IUtils.sol\";\nimport \"./interfaces/IHero.sol\";\nimport \"./utils/CentralAccessControl.sol\";\n\ncontract Hero is CentralAccessControl {\n\n    INFT public nft;\n    IUtils public utils;\n    uint64 latestHeroId;\n\n    mapping(uint256 => IHero.Status) public _heroStats;\n\n    event HeroStatusChanged(uint256 heroId, IHero.Status status);\n    event HeroMinted(uint256 tokenId, IHero.Status status);\n    event HeroDecomposed(address to, uint256 heroId, uint256 gotId, uint256 gotAmount);\n    event HeroDecomposedBatch(address to, uint256[] heroId, uint256[] gotIds, uint256[] gotAmounts);\n    event HeroUpgraded(address owner, uint256 heroId, uint32 toRank);\n\n    function initialize(address _roleManager, INFT _nft, IUtils _utils) public initializer {\n        __CentralAccessControl_init(_roleManager);\n        nft = _nft;\n        utils = _utils;\n    }\n\n    function randomHero(address _to, bool _isTradable, uint256 _randomness, uint8 _boxType) public onlyRole(HERO_MANAGER_ROLE) returns (uint256) {\n        require(_boxType >= 1 && _boxType <= 4, \"Invalid boxType\");\n        uint8[5] memory tempStat = [1, 1, 1, 1, 0];\n        uint32 heroTypeSeed = uint32(_randomness & 0xFFFFFFFF);\n        uint32 heroRaritySeed = uint32((_randomness >> 32) & 0xFFFFFFFF);\n        uint40 heroStatSeed = uint40((_randomness >> 64) & 0xFFFFFFFFFF);\n        uint8 maxStat;\n        uint8 statPoint;\n        uint8 _rarity;\n        uint16 _type;\n        if (_boxType == 4) {\n            _type = 6;\n        } else {\n            if (heroTypeSeed < 858993459) {\n                _type = 1;\n            } else if (heroTypeSeed < 1717986918) {\n                _type = 2;\n            } else if (heroTypeSeed < 2576980377) {\n                _type = 3;\n            } else if (heroTypeSeed < 3435973836) {\n                _type = 4;\n            } else {\n                _type = 5;\n            }\n        }\n\n        // Common/Loki Box\n        if (_boxType == 1 || _boxType == 4) {\n            // 55.0000000046566% Common\n            // 32.0000000065193% Uncommon\n            // 10.0000000093132% Rare\n            // 2.49999999068677% Epic\n            // 0.499999988824129% Legend\n            _rarity = getRandomRarity(heroRaritySeed, 2362232013, 3736621548, 4166118278, 4273492460);\n        }\n        // Uncommon Box\n        else if (_boxType == 2) {\n            // 10.0000000093132% Common\n            // 55.0000000046566% Uncommon\n            // 26.0000000009313% Rare\n            // 7.49999999534339% Epic\n            // 1.49999998975545% Legend\n            _rarity = getRandomRarity(heroRaritySeed, 429496730, 2791728743, 3908420240, 4230542787);\n        }\n        // Rare Box\n        else if (_boxType == 3) {\n            // 0% Common\n            // 10.0000000093132% Uncommon\n            // 55.0000000046566% Rare\n            // 27.4999999906868% Epic\n            // 7.49999999534339% Legend\n            _rarity = getRandomRarity(heroRaritySeed, 0, 429496730, 2791728743, 3972844749);\n        } else {\n            revert(\"Something wrong\");\n        }\n\n        if (_rarity == 1) {\n            statPoint = 20;\n            maxStat = 8;\n        } else if (_rarity == 2) {\n            statPoint = 22;\n            maxStat = 9;\n        } else if (_rarity == 3) {\n            statPoint = 24;\n            maxStat = 10;\n        } else if (_rarity == 4) {\n            statPoint = 26;\n            maxStat = 11;\n        } else if (_rarity == 5) {\n            statPoint = 28;\n            maxStat = 12;\n        }\n\n        for (uint8 i = 0; i < statPoint; i++) {\n            uint8 targetStatIndex = uint8(heroStatSeed & 0x3);\n            _upStat(tempStat, targetStatIndex, maxStat);\n            heroStatSeed = heroStatSeed >> 2;\n        }\n        IHero.Status memory stat = IHero.Status(tempStat[0], tempStat[1], tempStat[2], tempStat[3], tempStat[4]);\n        return _mintHero(_to, _isTradable, _type, getClass(_type), _rarity, stat);\n    }\n\n    function getClass (uint16 _type) internal pure returns(uint8) {\n        uint8 _class;\n        if (_type == 1) {\n            _class = 2;\n        } else if (_type == 2) {\n            _class = 1;\n        } else if (_type == 3) {\n            _class = 1;\n        } else if (_type == 4) {\n            _class = 2;\n        } else if (_type == 5) {\n            _class = 1;\n        } else if (_type == 6) {\n            _class = 2;\n        } else {\n            _class = 1;\n        }\n        return _class;\n    }\n\n    function getRandomRarity(uint32 _seed, uint32 _common, uint32 _uncommon, uint32 _rare, uint32 _epic) internal pure returns (uint8){\n        if (_seed < _common) {\n            return 1;\n        }\n        else if (_seed < _uncommon) {\n            return 2;\n        }\n        else if (_seed < _rare) {\n            return 3;\n        }\n        else if (_seed < _epic) {\n            return 4;\n        }\n        return 5;\n    }\n\n    function _upStat(uint8[5] memory _currentStat, uint8 _statIndex, uint8 _max) internal {\n        uint8 currentStatPoint = _currentStat[_statIndex];\n        if (currentStatPoint >= _max)\n            _upStat(_currentStat, (_statIndex + 1) % 4, _max);\n        else\n            _currentStat[_statIndex] = currentStatPoint + 1;\n    }\n\n    function _mintHero(address _to, bool _isTradable, uint16 _type, uint8 _class, uint8 _rarity, IHero.Status memory _status) internal returns (uint256) {\n        require(_to != address(0), \"Invalid address\");\n        uint64 heroId = ++latestHeroId;\n        uint256 heroTokenId = utils.getHeroTokenId(_isTradable, _type, _class, _rarity, heroId);\n        nft.mint(_to, heroTokenId, 1, \"\");\n        _heroStats[heroTokenId] = _status;\n        emit HeroMinted(heroTokenId, _status);\n        return heroTokenId;\n    }\n\n    function mintHero(address _to, bool _isTradable, uint16 _type, uint8 _class, uint8 _rarity, IHero.Status memory _status) public onlyRole(HERO_MANAGER_ROLE) {\n        _mintHero(_to, _isTradable, _type, _class, _rarity, _status);\n    }\n\n    function upgradeHero(uint256 _heroId) public {\n        require(nft.balanceOf(_msgSender(), _heroId) == 1 && utils.isHero(_heroId), \"Invalid heroId\");\n        uint32 curRank = _heroStats[_heroId].RANK;\n        require(curRank < 5, \"Maximum rank\");\n        uint256 fragmentAmount = (2 ** curRank) * utils.heroRarity(_heroId);\n        nft.burn(_msgSender(), utils.getItemTokenId(true, 100 + utils.heroType(_heroId)), fragmentAmount);\n        _heroStats[_heroId].RANK = curRank + 1;\n        emit HeroUpgraded(_msgSender(), _heroId, curRank + 1);\n    }\n\n    function upgradeHeroTo(uint256 _heroId, uint32 _targetRank) public {\n        require(nft.balanceOf(_msgSender(), _heroId) == 1 && utils.isHero(_heroId), \"Invalid heroId\");\n        require(_targetRank <= 5, \"Maximum rank exceeded\");\n        uint32 curRank = _heroStats[_heroId].RANK;\n        require(curRank < _targetRank, \"Invalid targetRank\");\n        uint32 rarity = utils.heroRarity(_heroId);\n        uint256 fragmentAmount = 0;\n        for (uint32 i = curRank; i <= _targetRank; i++) {\n            fragmentAmount += (2 ** i) * rarity;\n        }\n        nft.burn(_msgSender(), utils.getItemTokenId(true, 100 + utils.heroType(_heroId)), fragmentAmount);\n        _heroStats[_heroId].RANK = _targetRank;\n        emit HeroUpgraded(_msgSender(), _heroId, _targetRank);\n    }\n\n    function decomposeHero(uint256 _heroId) external {\n        require(nft.balanceOf(_msgSender(), _heroId) == 1 && utils.isHero(_heroId) && utils.isTradable(_heroId), \"Invalid heroId\");\n        nft.burn(_msgSender(), _heroId, 1);\n        uint256 mintId = utils.getItemTokenId(true, 100 + utils.heroType(_heroId));\n        uint256 mintAmount = 2 ** (utils.heroRarity(_heroId) - 1);\n        nft.mint(_msgSender(), mintId, mintAmount, \"\");\n        emit HeroDecomposed(_msgSender(), _heroId, mintId, mintAmount);\n    }\n\n    function decomposeHeroBatch(uint256[] memory _heroIds) external {\n        require(_heroIds.length > 0, \"Empty Hero List\");\n        uint256[] memory amounts = new uint256[](_heroIds.length);\n        uint256[] memory mintIds = new uint256[](_heroIds.length);\n        uint256[] memory mintAmounts = new uint256[](_heroIds.length);\n        for (uint256 i = 0; i < _heroIds.length; i++) {\n            require(nft.balanceOf(_msgSender(), _heroIds[i]) == 1 && utils.isHero(_heroIds[i]) && utils.isTradable(_heroIds[i]), \"Invalid heroId\");\n            amounts[i] = 1;\n            mintIds[i] = utils.getItemTokenId(true, 100 + utils.heroType(_heroIds[i]));\n            mintAmounts[i] = 2 ** (utils.heroRarity(_heroIds[i]) - 1);\n        }\n        nft.burnBatch(_msgSender(), _heroIds, amounts);\n        nft.mintBatch(_msgSender(), mintIds, mintAmounts, \"\");\n        emit HeroDecomposedBatch(_msgSender(), _heroIds, mintIds, mintAmounts);\n    }\n}\n",
  "sourcePath": "/Users/poripuri/Documents/Dev/AniFi/contract_new/shin-keiyaku/contracts/Hero.sol",
  "compiler": {
    "name": "solc",
    "version": "0.8.12+commit.f00d7308.Emscripten.clang"
  },
  "schemaVersion": "3.4.2",
  "updatedAt": "2022-09-25T17:46:15.134Z",
  "networkType": "ethereum",
  "devdoc": {
    "kind": "dev",
    "methods": {},
    "version": 1
  },
  "userdoc": {
    "kind": "user",
    "methods": {},
    "version": 1
  }
}