{
  "contractName": "NFT",
  "abi": [
    {
      "anonymous": false,
      "inputs": [
        {
          "indexed": true,
          "internalType": "address",
          "name": "account",
          "type": "address"
        },
        {
          "indexed": true,
          "internalType": "address",
          "name": "operator",
          "type": "address"
        },
        {
          "indexed": false,
          "internalType": "bool",
          "name": "approved",
          "type": "bool"
        }
      ],
      "name": "ApprovalForAll",
      "type": "event"
    },
    {
      "anonymous": false,
      "inputs": [
        {
          "indexed": true,
          "internalType": "address",
          "name": "previousOwner",
          "type": "address"
        },
        {
          "indexed": true,
          "internalType": "address",
          "name": "newOwner",
          "type": "address"
        }
      ],
      "name": "OwnershipTransferred",
      "type": "event"
    },
    {
      "anonymous": false,
      "inputs": [
        {
          "indexed": true,
          "internalType": "address",
          "name": "operator",
          "type": "address"
        },
        {
          "indexed": true,
          "internalType": "address",
          "name": "from",
          "type": "address"
        },
        {
          "indexed": true,
          "internalType": "address",
          "name": "to",
          "type": "address"
        },
        {
          "indexed": false,
          "internalType": "uint256[]",
          "name": "ids",
          "type": "uint256[]"
        },
        {
          "indexed": false,
          "internalType": "uint256[]",
          "name": "values",
          "type": "uint256[]"
        }
      ],
      "name": "TransferBatch",
      "type": "event"
    },
    {
      "anonymous": false,
      "inputs": [
        {
          "indexed": true,
          "internalType": "address",
          "name": "operator",
          "type": "address"
        },
        {
          "indexed": true,
          "internalType": "address",
          "name": "from",
          "type": "address"
        },
        {
          "indexed": true,
          "internalType": "address",
          "name": "to",
          "type": "address"
        },
        {
          "indexed": false,
          "internalType": "uint256",
          "name": "id",
          "type": "uint256"
        },
        {
          "indexed": false,
          "internalType": "uint256",
          "name": "value",
          "type": "uint256"
        }
      ],
      "name": "TransferSingle",
      "type": "event"
    },
    {
      "anonymous": false,
      "inputs": [
        {
          "indexed": false,
          "internalType": "string",
          "name": "value",
          "type": "string"
        },
        {
          "indexed": true,
          "internalType": "uint256",
          "name": "id",
          "type": "uint256"
        }
      ],
      "name": "URI",
      "type": "event"
    },
    {
      "inputs": [],
      "name": "ASSET_CONTROLLER_ROLE",
      "outputs": [
        {
          "internalType": "bytes32",
          "name": "",
          "type": "bytes32"
        }
      ],
      "stateMutability": "view",
      "type": "function",
      "constant": true
    },
    {
      "inputs": [],
      "name": "GAME_MANAGER_ROLE",
      "outputs": [
        {
          "internalType": "bytes32",
          "name": "",
          "type": "bytes32"
        }
      ],
      "stateMutability": "view",
      "type": "function",
      "constant": true
    },
    {
      "inputs": [],
      "name": "HERO_MANAGER_ROLE",
      "outputs": [
        {
          "internalType": "bytes32",
          "name": "",
          "type": "bytes32"
        }
      ],
      "stateMutability": "view",
      "type": "function",
      "constant": true
    },
    {
      "inputs": [],
      "name": "INITIALIZER_ROLE",
      "outputs": [
        {
          "internalType": "bytes32",
          "name": "",
          "type": "bytes32"
        }
      ],
      "stateMutability": "view",
      "type": "function",
      "constant": true
    },
    {
      "inputs": [],
      "name": "NFT_BURNER_ROLE",
      "outputs": [
        {
          "internalType": "bytes32",
          "name": "",
          "type": "bytes32"
        }
      ],
      "stateMutability": "view",
      "type": "function",
      "constant": true
    },
    {
      "inputs": [],
      "name": "NFT_MINTER_ROLE",
      "outputs": [
        {
          "internalType": "bytes32",
          "name": "",
          "type": "bytes32"
        }
      ],
      "stateMutability": "view",
      "type": "function",
      "constant": true
    },
    {
      "inputs": [],
      "name": "ORACLE_ROLE",
      "outputs": [
        {
          "internalType": "bytes32",
          "name": "",
          "type": "bytes32"
        }
      ],
      "stateMutability": "view",
      "type": "function",
      "constant": true
    },
    {
      "inputs": [],
      "name": "VENDOR_MANAGER_ROLE",
      "outputs": [
        {
          "internalType": "bytes32",
          "name": "",
          "type": "bytes32"
        }
      ],
      "stateMutability": "view",
      "type": "function",
      "constant": true
    },
    {
      "inputs": [
        {
          "internalType": "address",
          "name": "account",
          "type": "address"
        },
        {
          "internalType": "uint256",
          "name": "id",
          "type": "uint256"
        }
      ],
      "name": "balanceOf",
      "outputs": [
        {
          "internalType": "uint256",
          "name": "",
          "type": "uint256"
        }
      ],
      "stateMutability": "view",
      "type": "function",
      "constant": true
    },
    {
      "inputs": [
        {
          "internalType": "address[]",
          "name": "accounts",
          "type": "address[]"
        },
        {
          "internalType": "uint256[]",
          "name": "ids",
          "type": "uint256[]"
        }
      ],
      "name": "balanceOfBatch",
      "outputs": [
        {
          "internalType": "uint256[]",
          "name": "",
          "type": "uint256[]"
        }
      ],
      "stateMutability": "view",
      "type": "function",
      "constant": true
    },
    {
      "inputs": [
        {
          "internalType": "uint256",
          "name": "id",
          "type": "uint256"
        }
      ],
      "name": "exists",
      "outputs": [
        {
          "internalType": "bool",
          "name": "",
          "type": "bool"
        }
      ],
      "stateMutability": "view",
      "type": "function",
      "constant": true
    },
    {
      "inputs": [
        {
          "internalType": "address",
          "name": "account",
          "type": "address"
        },
        {
          "internalType": "address",
          "name": "operator",
          "type": "address"
        }
      ],
      "name": "isApprovedForAll",
      "outputs": [
        {
          "internalType": "bool",
          "name": "",
          "type": "bool"
        }
      ],
      "stateMutability": "view",
      "type": "function",
      "constant": true
    },
    {
      "inputs": [],
      "name": "name",
      "outputs": [
        {
          "internalType": "string",
          "name": "",
          "type": "string"
        }
      ],
      "stateMutability": "view",
      "type": "function",
      "constant": true
    },
    {
      "inputs": [],
      "name": "owner",
      "outputs": [
        {
          "internalType": "address",
          "name": "",
          "type": "address"
        }
      ],
      "stateMutability": "view",
      "type": "function",
      "constant": true
    },
    {
      "inputs": [],
      "name": "renounceOwnership",
      "outputs": [],
      "stateMutability": "nonpayable",
      "type": "function"
    },
    {
      "inputs": [
        {
          "internalType": "address",
          "name": "operator",
          "type": "address"
        },
        {
          "internalType": "bool",
          "name": "approved",
          "type": "bool"
        }
      ],
      "name": "setApprovalForAll",
      "outputs": [],
      "stateMutability": "nonpayable",
      "type": "function"
    },
    {
      "inputs": [
        {
          "internalType": "bytes4",
          "name": "interfaceId",
          "type": "bytes4"
        }
      ],
      "name": "supportsInterface",
      "outputs": [
        {
          "internalType": "bool",
          "name": "",
          "type": "bool"
        }
      ],
      "stateMutability": "view",
      "type": "function",
      "constant": true
    },
    {
      "inputs": [],
      "name": "symbol",
      "outputs": [
        {
          "internalType": "string",
          "name": "",
          "type": "string"
        }
      ],
      "stateMutability": "view",
      "type": "function",
      "constant": true
    },
    {
      "inputs": [
        {
          "internalType": "uint256",
          "name": "id",
          "type": "uint256"
        }
      ],
      "name": "totalSupply",
      "outputs": [
        {
          "internalType": "uint256",
          "name": "",
          "type": "uint256"
        }
      ],
      "stateMutability": "view",
      "type": "function",
      "constant": true
    },
    {
      "inputs": [
        {
          "internalType": "address",
          "name": "newOwner",
          "type": "address"
        }
      ],
      "name": "transferOwnership",
      "outputs": [],
      "stateMutability": "nonpayable",
      "type": "function"
    },
    {
      "inputs": [
        {
          "internalType": "address",
          "name": "_roleManager",
          "type": "address"
        },
        {
          "internalType": "contract IUtils",
          "name": "_utils",
          "type": "address"
        }
      ],
      "name": "initialize",
      "outputs": [],
      "stateMutability": "nonpayable",
      "type": "function"
    },
    {
      "inputs": [
        {
          "internalType": "string",
          "name": "newuri",
          "type": "string"
        }
      ],
      "name": "setURI",
      "outputs": [],
      "stateMutability": "nonpayable",
      "type": "function"
    },
    {
      "inputs": [
        {
          "internalType": "address",
          "name": "account",
          "type": "address"
        },
        {
          "internalType": "uint256",
          "name": "id",
          "type": "uint256"
        },
        {
          "internalType": "uint256",
          "name": "amount",
          "type": "uint256"
        },
        {
          "internalType": "bytes",
          "name": "data",
          "type": "bytes"
        }
      ],
      "name": "mint",
      "outputs": [],
      "stateMutability": "nonpayable",
      "type": "function"
    },
    {
      "inputs": [
        {
          "internalType": "address",
          "name": "to",
          "type": "address"
        },
        {
          "internalType": "uint256[]",
          "name": "ids",
          "type": "uint256[]"
        },
        {
          "internalType": "uint256[]",
          "name": "amounts",
          "type": "uint256[]"
        },
        {
          "internalType": "bytes",
          "name": "data",
          "type": "bytes"
        }
      ],
      "name": "mintBatch",
      "outputs": [],
      "stateMutability": "nonpayable",
      "type": "function"
    },
    {
      "inputs": [
        {
          "internalType": "address",
          "name": "account",
          "type": "address"
        },
        {
          "internalType": "uint256",
          "name": "id",
          "type": "uint256"
        },
        {
          "internalType": "uint256",
          "name": "value",
          "type": "uint256"
        }
      ],
      "name": "burn",
      "outputs": [],
      "stateMutability": "nonpayable",
      "type": "function"
    },
    {
      "inputs": [
        {
          "internalType": "address",
          "name": "account",
          "type": "address"
        },
        {
          "internalType": "uint256[]",
          "name": "ids",
          "type": "uint256[]"
        },
        {
          "internalType": "uint256[]",
          "name": "values",
          "type": "uint256[]"
        }
      ],
      "name": "burnBatch",
      "outputs": [],
      "stateMutability": "nonpayable",
      "type": "function"
    },
    {
      "inputs": [
        {
          "internalType": "address",
          "name": "from",
          "type": "address"
        },
        {
          "internalType": "address",
          "name": "to",
          "type": "address"
        },
        {
          "internalType": "uint256",
          "name": "id",
          "type": "uint256"
        },
        {
          "internalType": "uint256",
          "name": "amount",
          "type": "uint256"
        },
        {
          "internalType": "bytes",
          "name": "data",
          "type": "bytes"
        }
      ],
      "name": "safeTransferFrom",
      "outputs": [],
      "stateMutability": "nonpayable",
      "type": "function"
    },
    {
      "inputs": [
        {
          "internalType": "address",
          "name": "from",
          "type": "address"
        },
        {
          "internalType": "address",
          "name": "to",
          "type": "address"
        },
        {
          "internalType": "uint256[]",
          "name": "ids",
          "type": "uint256[]"
        },
        {
          "internalType": "uint256[]",
          "name": "amounts",
          "type": "uint256[]"
        },
        {
          "internalType": "bytes",
          "name": "data",
          "type": "bytes"
        }
      ],
      "name": "safeBatchTransferFrom",
      "outputs": [],
      "stateMutability": "nonpayable",
      "type": "function"
    },
    {
      "inputs": [
        {
          "internalType": "uint256",
          "name": "_tokenId",
          "type": "uint256"
        }
      ],
      "name": "uri",
      "outputs": [
        {
          "internalType": "string",
          "name": "",
          "type": "string"
        }
      ],
      "stateMutability": "view",
      "type": "function",
      "constant": true
    }
  ],
  "bytecode": "0x608060405234801561001057600080fd5b506154c3806100206000396000f3fe608060405234801561001057600080fd5b50600436106101ce5760003560e01c8063715018a611610104578063b2596314116100a2578063f242432a11610071578063f242432a1461051d578063f2fde38b14610539578063f5298aca14610555578063ff6fcdbd14610571576101ce565b8063b259631414610481578063bd85b0391461049f578063c0833ee4146104cf578063e985e9c5146104ed576101ce565b806395d89b41116100de57806395d89b411461040b578063a22cb46514610429578063a3ea06ba14610445578063ac5242b814610463576101ce565b8063715018a6146103c7578063731133e9146103d15780638da5cb5b146103ed576101ce565b806327df3d3e116101715780634e1273f41161014b5780634e1273f41461032d5780634f558e791461035d5780635e8248c01461038d5780636b20c454146103ab576101ce565b806327df3d3e146102d75780632eb2c2d6146102f5578063485cc95514610311576101ce565b806306fdde03116101ad57806306fdde031461024f57806307e2cea51461026d5780630e89341c1461028b5780631f7fdffa146102bb576101ce565b8062fdd58e146101d357806301ffc9a71461020357806302fe530514610233575b600080fd5b6101ed60048036038101906101e8919061371f565b61058f565b6040516101fa919061376e565b60405180910390f35b61021d600480360381019061021891906137e1565b610659565b60405161022a9190613829565b60405180910390f35b61024d6004803603810190610248919061398a565b61073b565b005b610257610788565b6040516102649190613a5b565b60405180910390f35b610275610816565b6040516102829190613a96565b60405180910390f35b6102a560048036038101906102a09190613ab1565b61083a565b6040516102b29190613a5b565b60405180910390f35b6102d560048036038101906102d09190613c47565b61086e565b005b6102df6108b3565b6040516102ec9190613a96565b60405180910390f35b61030f600480360381019061030a9190613d02565b6108d7565b005b61032b60048036038101906103269190613e0f565b6109fe565b005b61034760048036038101906103429190613f12565b610bdb565b6040516103549190614048565b60405180910390f35b61037760048036038101906103729190613ab1565b610cf4565b6040516103849190613829565b60405180910390f35b610395610d08565b6040516103a29190613a96565b60405180910390f35b6103c560048036038101906103c0919061406a565b610d2c565b005b6103cf610d6f565b005b6103eb60048036038101906103e691906140f5565b610df7565b005b6103f5610e3c565b6040516104029190614187565b60405180910390f35b610413610e66565b6040516104209190613a5b565b60405180910390f35b610443600480360381019061043e91906141ce565b610ef4565b005b61044d611075565b60405161045a9190613a96565b60405180910390f35b61046b611099565b6040516104789190613a96565b60405180910390f35b6104896110bd565b6040516104969190613a96565b60405180910390f35b6104b960048036038101906104b49190613ab1565b6110e1565b6040516104c6919061376e565b60405180910390f35b6104d76110fe565b6040516104e49190613a96565b60405180910390f35b6105076004803603810190610502919061420e565b611122565b6040516105149190613829565b60405180910390f35b6105376004803603810190610532919061424e565b6111b6565b005b610553600480360381019061054e91906142e5565b6112a5565b005b61056f600480360381019061056a9190614312565b61139d565b005b6105796113e0565b6040516105869190613a96565b60405180910390f35b60008073ffffffffffffffffffffffffffffffffffffffff168373ffffffffffffffffffffffffffffffffffffffff161415610600576040517f08c379a00000000000000000000000000000000000000000000000000000000081526004016105f7906143d7565b60405180910390fd5b6065600083815260200190815260200160002060008473ffffffffffffffffffffffffffffffffffffffff1673ffffffffffffffffffffffffffffffffffffffff16815260200190815260200160002054905092915050565b60007fd9b67a26000000000000000000000000000000000000000000000000000000007bffffffffffffffffffffffffffffffffffffffffffffffffffffffff1916827bffffffffffffffffffffffffffffffffffffffffffffffffffffffff1916148061072457507f0e89341c000000000000000000000000000000000000000000000000000000007bffffffffffffffffffffffffffffffffffffffffffffffffffffffff1916827bffffffffffffffffffffffffffffffffffffffffffffffffffffffff1916145b80610734575061073382611404565b5b9050919050565b7f30d41a597cac127d8249d31298b50e481ee82c3f4a49ff93c76a22735aa9f3ad61076d8161076861146e565b611476565b8160fe90805190602001906107839291906135d4565b505050565b60fc805461079590614426565b80601f01602080910402602001604051908101604052809291908181526020018280546107c190614426565b801561080e5780601f106107e35761010080835404028352916020019161080e565b820191906000526020600020905b8154815290600101906020018083116107f157829003601f168201915b505050505081565b7f68e79a7bf1e0bc45d0a330c573bc367f9cf464fd326078812f301165fbda4ef181565b606060fe610847836115a7565b604051602001610858929190614528565b6040516020818303038152906040529050919050565b7f3a5b873628a2c49bf313473942acc8932f6f84c76b74bf3db0e4d8b51277a6236108a08161089b61146e565b611476565b6108ac85858585611708565b5050505050565b7f30d41a597cac127d8249d31298b50e481ee82c3f4a49ff93c76a22735aa9f3ad81565b60005b83518110156109e95760ff60009054906101000a900473ffffffffffffffffffffffffffffffffffffffff1673ffffffffffffffffffffffffffffffffffffffff1663e27aa1d88583815181106109345761093361454c565b5b60200260200101516040518263ffffffff1660e01b8152600401610958919061376e565b602060405180830381865afa158015610975573d6000803e3d6000fd5b505050506040513d601f19601f820116820180604052508101906109999190614590565b6109d8576040517f08c379a00000000000000000000000000000000000000000000000000000000081526004016109cf90614609565b60405180910390fd5b806109e290614658565b90506108da565b506109f78585858585611796565b5050505050565b600060019054906101000a900460ff1680610a24575060008054906101000a900460ff16155b610a63576040517f08c379a0000000000000000000000000000000000000000000000000000000008152600401610a5a90614713565b60405180910390fd5b60008060019054906101000a900460ff161590508015610ab3576001600060016101000a81548160ff02191690831515021790555060016000806101000a81548160ff0219169083151502179055505b610acb60405180602001604052806000815250611837565b610ad361192a565b610adc83611a13565b6040518060400160405280601681526020017f416e69466920576f726c6420436f6c6c656374696f6e0000000000000000000081525060fc9080519060200190610b279291906135d4565b506040518060400160405280600881526020017f414e4946494e465400000000000000000000000000000000000000000000000081525060fd9080519060200190610b739291906135d4565b508160ff60006101000a81548173ffffffffffffffffffffffffffffffffffffffff021916908373ffffffffffffffffffffffffffffffffffffffff1602179055508015610bd65760008060016101000a81548160ff0219169083151502179055505b505050565b60608151835114610c21576040517f08c379a0000000000000000000000000000000000000000000000000000000008152600401610c18906147a5565b60405180910390fd5b6000835167ffffffffffffffff811115610c3e57610c3d61385f565b5b604051908082528060200260200182016040528015610c6c5781602001602082028036833780820191505090505b50905060005b8451811015610ce957610cb9858281518110610c9157610c9061454c565b5b6020026020010151858381518110610cac57610cab61454c565b5b602002602001015161058f565b828281518110610ccc57610ccb61454c565b5b60200260200101818152505080610ce290614658565b9050610c72565b508091505092915050565b600080610d00836110e1565b119050919050565b7f51f8f2c5ee2fca3a67ad56221434bd562ae85739b13d878dc7708a17bb93bfb081565b7f51f8f2c5ee2fca3a67ad56221434bd562ae85739b13d878dc7708a17bb93bfb0610d5e81610d5961146e565b611476565b610d69848484611b2e565b50505050565b610d7761146e565b73ffffffffffffffffffffffffffffffffffffffff16610d95610e3c565b73ffffffffffffffffffffffffffffffffffffffff1614610deb576040517f08c379a0000000000000000000000000000000000000000000000000000000008152600401610de290614811565b60405180910390fd5b610df56000611bba565b565b7f3a5b873628a2c49bf313473942acc8932f6f84c76b74bf3db0e4d8b51277a623610e2981610e2461146e565b611476565b610e3585858585611c80565b5050505050565b600060ca60009054906101000a900473ffffffffffffffffffffffffffffffffffffffff16905090565b60fd8054610e7390614426565b80601f0160208091040260200160405190810160405280929190818152602001828054610e9f90614426565b8015610eec5780601f10610ec157610100808354040283529160200191610eec565b820191906000526020600020905b815481529060010190602001808311610ecf57829003601f168201915b505050505081565b8173ffffffffffffffffffffffffffffffffffffffff16610f1361146e565b73ffffffffffffffffffffffffffffffffffffffff161415610f6a576040517f08c379a0000000000000000000000000000000000000000000000000000000008152600401610f61906148a3565b60405180910390fd5b8060666000610f7761146e565b73ffffffffffffffffffffffffffffffffffffffff1673ffffffffffffffffffffffffffffffffffffffff16815260200190815260200160002060008473ffffffffffffffffffffffffffffffffffffffff1673ffffffffffffffffffffffffffffffffffffffff16815260200190815260200160002060006101000a81548160ff0219169083151502179055508173ffffffffffffffffffffffffffffffffffffffff1661102461146e565b73ffffffffffffffffffffffffffffffffffffffff167f17307eab39ab6107e8899845ad3d59bd9653f200f220920489ca2b5937696c31836040516110699190613829565b60405180910390a35050565b7fa29120b87765615bebca1f1e843c7f216a8bd4c48a5a77241db99f1fa258593581565b7fe2e48373e7e83dec5a305c3b1f25465a29e74a534a34c2e3f3b73a15ffa4a6fb81565b7f93c2de005b627b4148f1ed7c443ee399c7341c199aab7243d5c24d1c32a0463681565b600060976000838152602001908152602001600020549050919050565b7f3a5b873628a2c49bf313473942acc8932f6f84c76b74bf3db0e4d8b51277a62381565b6000606660008473ffffffffffffffffffffffffffffffffffffffff1673ffffffffffffffffffffffffffffffffffffffff16815260200190815260200160002060008373ffffffffffffffffffffffffffffffffffffffff1673ffffffffffffffffffffffffffffffffffffffff16815260200190815260200160002060009054906101000a900460ff16905092915050565b60ff60009054906101000a900473ffffffffffffffffffffffffffffffffffffffff1673ffffffffffffffffffffffffffffffffffffffff1663e27aa1d8846040518263ffffffff1660e01b8152600401611211919061376e565b602060405180830381865afa15801561122e573d6000803e3d6000fd5b505050506040513d601f19601f820116820180604052508101906112529190614590565b611291576040517f08c379a000000000000000000000000000000000000000000000000000000000815260040161128890614609565b60405180910390fd5b61129e8585858585611cbc565b5050505050565b6112ad61146e565b73ffffffffffffffffffffffffffffffffffffffff166112cb610e3c565b73ffffffffffffffffffffffffffffffffffffffff1614611321576040517f08c379a000000000000000000000000000000000000000000000000000000000815260040161131890614811565b60405180910390fd5b600073ffffffffffffffffffffffffffffffffffffffff168173ffffffffffffffffffffffffffffffffffffffff161415611391576040517f08c379a000000000000000000000000000000000000000000000000000000000815260040161138890614935565b60405180910390fd5b61139a81611bba565b50565b7f51f8f2c5ee2fca3a67ad56221434bd562ae85739b13d878dc7708a17bb93bfb06113cf816113ca61146e565b611476565b6113da848484611d5d565b50505050565b7fef17b1f3c5a412f9c8e887e3abd186802afec7dc657fd3b7002bf87b128dd0b181565b60007f01ffc9a7000000000000000000000000000000000000000000000000000000007bffffffffffffffffffffffffffffffffffffffffffffffffffffffff1916827bffffffffffffffffffffffffffffffffffffffffffffffffffffffff1916149050919050565b600033905090565b60c960009054906101000a900473ffffffffffffffffffffffffffffffffffffffff1673ffffffffffffffffffffffffffffffffffffffff166391d1485483836040518363ffffffff1660e01b81526004016114d3929190614955565b602060405180830381865afa1580156114f0573d6000803e3d6000fd5b505050506040513d601f19601f820116820180604052508101906115149190614590565b6115a3576115398173ffffffffffffffffffffffffffffffffffffffff166014611d97565b6115478360001c6020611d97565b604051602001611558929190614a16565b6040516020818303038152906040526040517f08c379a000000000000000000000000000000000000000000000000000000000815260040161159a9190613a5b565b60405180910390fd5b5050565b606060008214156115ef576040518060400160405280600181526020017f30000000000000000000000000000000000000000000000000000000000000008152509050611703565b600082905060005b6000821461162157808061160a90614658565b915050600a8261161a9190614a7f565b91506115f7565b60008167ffffffffffffffff81111561163d5761163c61385f565b5b6040519080825280601f01601f19166020018201604052801561166f5781602001600182028036833780820191505090505b5090505b600085146116fc576001826116889190614ab0565b9150600a856116979190614ae4565b60306116a39190614b15565b60f81b8183815181106116b9576116b861454c565b5b60200101907effffffffffffffffffffffffffffffffffffffffffffffffffffffffffffff1916908160001a905350600a856116f59190614a7f565b9450611673565b8093505050505b919050565b61171484848484611fd3565b60005b835181101561178f578281815181106117335761173261454c565b5b6020026020010151609760008684815181106117525761175161454c565b5b6020026020010151815260200190815260200160002060008282546117779190614b15565b925050819055508061178890614658565b9050611717565b5050505050565b61179e61146e565b73ffffffffffffffffffffffffffffffffffffffff168573ffffffffffffffffffffffffffffffffffffffff1614806117e457506117e3856117de61146e565b611122565b5b611823576040517f08c379a000000000000000000000000000000000000000000000000000000000815260040161181a90614bdd565b60405180910390fd5b61183085858585856121f2565b5050505050565b600060019054906101000a900460ff168061185d575060008054906101000a900460ff16155b61189c576040517f08c379a000000000000000000000000000000000000000000000000000000000815260040161189390614713565b60405180910390fd5b60008060019054906101000a900460ff1615905080156118ec576001600060016101000a81548160ff02191690831515021790555060016000806101000a81548160ff0219169083151502179055505b6118f4612509565b6118fc6125e2565b611905826126bb565b80156119265760008060016101000a81548160ff0219169083151502179055505b5050565b600060019054906101000a900460ff1680611950575060008054906101000a900460ff16155b61198f576040517f08c379a000000000000000000000000000000000000000000000000000000000815260040161198690614713565b60405180910390fd5b60008060019054906101000a900460ff1615905080156119df576001600060016101000a81548160ff02191690831515021790555060016000806101000a81548160ff0219169083151502179055505b6119e7612509565b6119ef61279e565b8015611a105760008060016101000a81548160ff0219169083151502179055505b50565b600060019054906101000a900460ff1680611a39575060008054906101000a900460ff16155b611a78576040517f08c379a0000000000000000000000000000000000000000000000000000000008152600401611a6f90614713565b60405180910390fd5b60008060019054906101000a900460ff161590508015611ac8576001600060016101000a81548160ff02191690831515021790555060016000806101000a81548160ff0219169083151502179055505b8160c960006101000a81548173ffffffffffffffffffffffffffffffffffffffff021916908373ffffffffffffffffffffffffffffffffffffffff1602179055508015611b2a5760008060016101000a81548160ff0219169083151502179055505b5050565b611b39838383612887565b60005b8251811015611bb457818181518110611b5857611b5761454c565b5b602002602001015160976000858481518110611b7757611b7661454c565b5b602002602001015181526020019081526020016000206000828254611b9c9190614ab0565b9250508190555080611bad90614658565b9050611b3c565b50505050565b600060ca60009054906101000a900473ffffffffffffffffffffffffffffffffffffffff1690508160ca60006101000a81548173ffffffffffffffffffffffffffffffffffffffff021916908373ffffffffffffffffffffffffffffffffffffffff1602179055508173ffffffffffffffffffffffffffffffffffffffff168173ffffffffffffffffffffffffffffffffffffffff167f8be0079c531659141344cd1fd0a4f28419497f9722a3daafe3b4186f6b6457e060405160405180910390a35050565b611c8c84848484612b3a565b81609760008581526020019081526020016000206000828254611caf9190614b15565b9250508190555050505050565b611cc461146e565b73ffffffffffffffffffffffffffffffffffffffff168573ffffffffffffffffffffffffffffffffffffffff161480611d0a5750611d0985611d0461146e565b611122565b5b611d49576040517f08c379a0000000000000000000000000000000000000000000000000000000008152600401611d4090614c6f565b60405180910390fd5b611d568585858585612cd1565b5050505050565b611d68838383612f56565b80609760008481526020019081526020016000206000828254611d8b9190614ab0565b92505081905550505050565b606060006002836002611daa9190614c8f565b611db49190614b15565b67ffffffffffffffff811115611dcd57611dcc61385f565b5b6040519080825280601f01601f191660200182016040528015611dff5781602001600182028036833780820191505090505b5090507f300000000000000000000000000000000000000000000000000000000000000081600081518110611e3757611e3661454c565b5b60200101907effffffffffffffffffffffffffffffffffffffffffffffffffffffffffffff1916908160001a9053507f780000000000000000000000000000000000000000000000000000000000000081600181518110611e9b57611e9a61454c565b5b60200101907effffffffffffffffffffffffffffffffffffffffffffffffffffffffffffff1916908160001a90535060006001846002611edb9190614c8f565b611ee59190614b15565b90505b6001811115611f85577f3031323334353637383961626364656600000000000000000000000000000000600f861660108110611f2757611f2661454c565b5b1a60f81b828281518110611f3e57611f3d61454c565b5b60200101907effffffffffffffffffffffffffffffffffffffffffffffffffffffffffffff1916908160001a905350600485901c945080611f7e90614ce9565b9050611ee8565b5060008414611fc9576040517f08c379a0000000000000000000000000000000000000000000000000000000008152600401611fc090614d5f565b60405180910390fd5b8091505092915050565b600073ffffffffffffffffffffffffffffffffffffffff168473ffffffffffffffffffffffffffffffffffffffff161415612043576040517f08c379a000000000000000000000000000000000000000000000000000000000815260040161203a90614df1565b60405180910390fd5b8151835114612087576040517f08c379a000000000000000000000000000000000000000000000000000000000815260040161207e90614e83565b60405180910390fd5b600061209161146e565b90506120a281600087878787613175565b60005b845181101561215c578381815181106120c1576120c061454c565b5b6020026020010151606560008784815181106120e0576120df61454c565b5b6020026020010151815260200190815260200160002060008873ffffffffffffffffffffffffffffffffffffffff1673ffffffffffffffffffffffffffffffffffffffff16815260200190815260200160002060008282546121429190614b15565b92505081905550808061215490614658565b9150506120a5565b508473ffffffffffffffffffffffffffffffffffffffff16600073ffffffffffffffffffffffffffffffffffffffff168273ffffffffffffffffffffffffffffffffffffffff167f4a39dc06d4c0dbc64b70af90fd698a233a518aa5d07e595d983b8c0526c8f7fb87876040516121d4929190614ea3565b60405180910390a46121eb8160008787878761317d565b5050505050565b8151835114612236576040517f08c379a000000000000000000000000000000000000000000000000000000000815260040161222d90614e83565b60405180910390fd5b600073ffffffffffffffffffffffffffffffffffffffff168473ffffffffffffffffffffffffffffffffffffffff1614156122a6576040517f08c379a000000000000000000000000000000000000000000000000000000000815260040161229d90614f4c565b60405180910390fd5b60006122b061146e565b90506122c0818787878787613175565b60005b84518110156124745760008582815181106122e1576122e061454c565b5b602002602001015190506000858381518110612300576122ff61454c565b5b6020026020010151905060006065600084815260200190815260200160002060008b73ffffffffffffffffffffffffffffffffffffffff1673ffffffffffffffffffffffffffffffffffffffff168152602001908152602001600020549050818110156123a2576040517f08c379a000000000000000000000000000000000000000000000000000000000815260040161239990614fde565b60405180910390fd5b8181036065600085815260200190815260200160002060008c73ffffffffffffffffffffffffffffffffffffffff1673ffffffffffffffffffffffffffffffffffffffff16815260200190815260200160002081905550816065600085815260200190815260200160002060008b73ffffffffffffffffffffffffffffffffffffffff1673ffffffffffffffffffffffffffffffffffffffff16815260200190815260200160002060008282546124599190614b15565b925050819055505050508061246d90614658565b90506122c3565b508473ffffffffffffffffffffffffffffffffffffffff168673ffffffffffffffffffffffffffffffffffffffff168273ffffffffffffffffffffffffffffffffffffffff167f4a39dc06d4c0dbc64b70af90fd698a233a518aa5d07e595d983b8c0526c8f7fb87876040516124eb929190614ea3565b60405180910390a461250181878787878761317d565b505050505050565b600060019054906101000a900460ff168061252f575060008054906101000a900460ff16155b61256e576040517f08c379a000000000000000000000000000000000000000000000000000000000815260040161256590614713565b60405180910390fd5b60008060019054906101000a900460ff1615905080156125be576001600060016101000a81548160ff02191690831515021790555060016000806101000a81548160ff0219169083151502179055505b80156125df5760008060016101000a81548160ff0219169083151502179055505b50565b600060019054906101000a900460ff1680612608575060008054906101000a900460ff16155b612647576040517f08c379a000000000000000000000000000000000000000000000000000000000815260040161263e90614713565b60405180910390fd5b60008060019054906101000a900460ff161590508015612697576001600060016101000a81548160ff02191690831515021790555060016000806101000a81548160ff0219169083151502179055505b80156126b85760008060016101000a81548160ff0219169083151502179055505b50565b600060019054906101000a900460ff16806126e1575060008054906101000a900460ff16155b612720576040517f08c379a000000000000000000000000000000000000000000000000000000000815260040161271790614713565b60405180910390fd5b60008060019054906101000a900460ff161590508015612770576001600060016101000a81548160ff02191690831515021790555060016000806101000a81548160ff0219169083151502179055505b61277982613355565b801561279a5760008060016101000a81548160ff0219169083151502179055505b5050565b600060019054906101000a900460ff16806127c4575060008054906101000a900460ff16155b612803576040517f08c379a00000000000000000000000000000000000000000000000000000000081526004016127fa90614713565b60405180910390fd5b60008060019054906101000a900460ff161590508015612853576001600060016101000a81548160ff02191690831515021790555060016000806101000a81548160ff0219169083151502179055505b61286361285e61146e565b611bba565b80156128845760008060016101000a81548160ff0219169083151502179055505b50565b600073ffffffffffffffffffffffffffffffffffffffff168373ffffffffffffffffffffffffffffffffffffffff1614156128f7576040517f08c379a00000000000000000000000000000000000000000000000000000000081526004016128ee90615070565b60405180910390fd5b805182511461293b576040517f08c379a000000000000000000000000000000000000000000000000000000000815260040161293290614e83565b60405180910390fd5b600061294561146e565b905061296581856000868660405180602001604052806000815250613175565b60005b8351811015612ab45760008482815181106129865761298561454c565b5b6020026020010151905060008483815181106129a5576129a461454c565b5b6020026020010151905060006065600084815260200190815260200160002060008973ffffffffffffffffffffffffffffffffffffffff1673ffffffffffffffffffffffffffffffffffffffff16815260200190815260200160002054905081811015612a47576040517f08c379a0000000000000000000000000000000000000000000000000000000008152600401612a3e90615102565b60405180910390fd5b8181036065600085815260200190815260200160002060008a73ffffffffffffffffffffffffffffffffffffffff1673ffffffffffffffffffffffffffffffffffffffff168152602001908152602001600020819055505050508080612aac90614658565b915050612968565b50600073ffffffffffffffffffffffffffffffffffffffff168473ffffffffffffffffffffffffffffffffffffffff168273ffffffffffffffffffffffffffffffffffffffff167f4a39dc06d4c0dbc64b70af90fd698a233a518aa5d07e595d983b8c0526c8f7fb8686604051612b2c929190614ea3565b60405180910390a450505050565b600073ffffffffffffffffffffffffffffffffffffffff168473ffffffffffffffffffffffffffffffffffffffff161415612baa576040517f08c379a0000000000000000000000000000000000000000000000000000000008152600401612ba190614df1565b60405180910390fd5b6000612bb461146e565b9050612bd581600087612bc68861336f565b612bcf8861336f565b87613175565b826065600086815260200190815260200160002060008773ffffffffffffffffffffffffffffffffffffffff1673ffffffffffffffffffffffffffffffffffffffff1681526020019081526020016000206000828254612c359190614b15565b925050819055508473ffffffffffffffffffffffffffffffffffffffff16600073ffffffffffffffffffffffffffffffffffffffff168273ffffffffffffffffffffffffffffffffffffffff167fc3d58168c5ae7397731d063d5bbf3d657854427343f4c083240f7aacaa2d0f628787604051612cb3929190615122565b60405180910390a4612cca816000878787876133e9565b5050505050565b600073ffffffffffffffffffffffffffffffffffffffff168473ffffffffffffffffffffffffffffffffffffffff161415612d41576040517f08c379a0000000000000000000000000000000000000000000000000000000008152600401612d3890614f4c565b60405180910390fd5b6000612d4b61146e565b9050612d6b818787612d5c8861336f565b612d658861336f565b87613175565b60006065600086815260200190815260200160002060008873ffffffffffffffffffffffffffffffffffffffff1673ffffffffffffffffffffffffffffffffffffffff16815260200190815260200160002054905083811015612e03576040517f08c379a0000000000000000000000000000000000000000000000000000000008152600401612dfa90614fde565b60405180910390fd5b8381036065600087815260200190815260200160002060008973ffffffffffffffffffffffffffffffffffffffff1673ffffffffffffffffffffffffffffffffffffffff16815260200190815260200160002081905550836065600087815260200190815260200160002060008873ffffffffffffffffffffffffffffffffffffffff1673ffffffffffffffffffffffffffffffffffffffff1681526020019081526020016000206000828254612eba9190614b15565b925050819055508573ffffffffffffffffffffffffffffffffffffffff168773ffffffffffffffffffffffffffffffffffffffff168373ffffffffffffffffffffffffffffffffffffffff167fc3d58168c5ae7397731d063d5bbf3d657854427343f4c083240f7aacaa2d0f628888604051612f37929190615122565b60405180910390a4612f4d8288888888886133e9565b50505050505050565b600073ffffffffffffffffffffffffffffffffffffffff168373ffffffffffffffffffffffffffffffffffffffff161415612fc6576040517f08c379a0000000000000000000000000000000000000000000000000000000008152600401612fbd90615070565b60405180910390fd5b6000612fd061146e565b905061300081856000612fe28761336f565b612feb8761336f565b60405180602001604052806000815250613175565b60006065600085815260200190815260200160002060008673ffffffffffffffffffffffffffffffffffffffff1673ffffffffffffffffffffffffffffffffffffffff16815260200190815260200160002054905082811015613098576040517f08c379a000000000000000000000000000000000000000000000000000000000815260040161308f90615102565b60405180910390fd5b8281036065600086815260200190815260200160002060008773ffffffffffffffffffffffffffffffffffffffff1673ffffffffffffffffffffffffffffffffffffffff16815260200190815260200160002081905550600073ffffffffffffffffffffffffffffffffffffffff168573ffffffffffffffffffffffffffffffffffffffff168373ffffffffffffffffffffffffffffffffffffffff167fc3d58168c5ae7397731d063d5bbf3d657854427343f4c083240f7aacaa2d0f628787604051613166929190615122565b60405180910390a45050505050565b505050505050565b61319c8473ffffffffffffffffffffffffffffffffffffffff166135c1565b1561334d578373ffffffffffffffffffffffffffffffffffffffff1663bc197c8187878686866040518663ffffffff1660e01b81526004016131e29594939291906151a0565b6020604051808303816000875af192505050801561321e57506040513d601f19601f8201168201806040525081019061321b919061521d565b60015b6132c45761322a615257565b806308c379a01415613287575061323f615279565b8061324a5750613289565b806040517f08c379a000000000000000000000000000000000000000000000000000000000815260040161327e9190613a5b565b60405180910390fd5b505b6040517f08c379a00000000000000000000000000000000000000000000000000000000081526004016132bb90615381565b60405180910390fd5b63bc197c8160e01b7bffffffffffffffffffffffffffffffffffffffffffffffffffffffff1916817bffffffffffffffffffffffffffffffffffffffffffffffffffffffff19161461334b576040517f08c379a000000000000000000000000000000000000000000000000000000000815260040161334290615413565b60405180910390fd5b505b505050505050565b806067908051906020019061336b9291906135d4565b5050565b60606000600167ffffffffffffffff81111561338e5761338d61385f565b5b6040519080825280602002602001820160405280156133bc5781602001602082028036833780820191505090505b50905082816000815181106133d4576133d361454c565b5b60200260200101818152505080915050919050565b6134088473ffffffffffffffffffffffffffffffffffffffff166135c1565b156135b9578373ffffffffffffffffffffffffffffffffffffffff1663f23a6e6187878686866040518663ffffffff1660e01b815260040161344e959493929190615433565b6020604051808303816000875af192505050801561348a57506040513d601f19601f82011682018060405250810190613487919061521d565b60015b61353057613496615257565b806308c379a014156134f357506134ab615279565b806134b657506134f5565b806040517f08c379a00000000000000000000000000000000000000000000000000000000081526004016134ea9190613a5b565b60405180910390fd5b505b6040517f08c379a000000000000000000000000000000000000000000000000000000000815260040161352790615381565b60405180910390fd5b63f23a6e6160e01b7bffffffffffffffffffffffffffffffffffffffffffffffffffffffff1916817bffffffffffffffffffffffffffffffffffffffffffffffffffffffff1916146135b7576040517f08c379a00000000000000000000000000000000000000000000000000000000081526004016135ae90615413565b60405180910390fd5b505b505050505050565b600080823b905060008111915050919050565b8280546135e090614426565b90600052602060002090601f0160209004810192826136025760008555613649565b82601f1061361b57805160ff1916838001178555613649565b82800160010185558215613649579182015b8281111561364857825182559160200191906001019061362d565b5b509050613656919061365a565b5090565b5b8082111561367357600081600090555060010161365b565b5090565b6000604051905090565b600080fd5b600080fd5b600073ffffffffffffffffffffffffffffffffffffffff82169050919050565b60006136b68261368b565b9050919050565b6136c6816136ab565b81146136d157600080fd5b50565b6000813590506136e3816136bd565b92915050565b6000819050919050565b6136fc816136e9565b811461370757600080fd5b50565b600081359050613719816136f3565b92915050565b6000806040838503121561373657613735613681565b5b6000613744858286016136d4565b92505060206137558582860161370a565b9150509250929050565b613768816136e9565b82525050565b6000602082019050613783600083018461375f565b92915050565b60007fffffffff0000000000000000000000000000000000000000000000000000000082169050919050565b6137be81613789565b81146137c957600080fd5b50565b6000813590506137db816137b5565b92915050565b6000602082840312156137f7576137f6613681565b5b6000613805848285016137cc565b91505092915050565b60008115159050919050565b6138238161380e565b82525050565b600060208201905061383e600083018461381a565b92915050565b600080fd5b600080fd5b6000601f19601f8301169050919050565b7f4e487b7100000000000000000000000000000000000000000000000000000000600052604160045260246000fd5b6138978261384e565b810181811067ffffffffffffffff821117156138b6576138b561385f565b5b80604052505050565b60006138c9613677565b90506138d5828261388e565b919050565b600067ffffffffffffffff8211156138f5576138f461385f565b5b6138fe8261384e565b9050602081019050919050565b82818337600083830152505050565b600061392d613928846138da565b6138bf565b90508281526020810184848401111561394957613948613849565b5b61395484828561390b565b509392505050565b600082601f83011261397157613970613844565b5b813561398184826020860161391a565b91505092915050565b6000602082840312156139a05761399f613681565b5b600082013567ffffffffffffffff8111156139be576139bd613686565b5b6139ca8482850161395c565b91505092915050565b600081519050919050565b600082825260208201905092915050565b60005b83811015613a0d5780820151818401526020810190506139f2565b83811115613a1c576000848401525b50505050565b6000613a2d826139d3565b613a3781856139de565b9350613a478185602086016139ef565b613a508161384e565b840191505092915050565b60006020820190508181036000830152613a758184613a22565b905092915050565b6000819050919050565b613a9081613a7d565b82525050565b6000602082019050613aab6000830184613a87565b92915050565b600060208284031215613ac757613ac6613681565b5b6000613ad58482850161370a565b91505092915050565b600067ffffffffffffffff821115613af957613af861385f565b5b602082029050602081019050919050565b600080fd5b6000613b22613b1d84613ade565b6138bf565b90508083825260208201905060208402830185811115613b4557613b44613b0a565b5b835b81811015613b6e5780613b5a888261370a565b845260208401935050602081019050613b47565b5050509392505050565b600082601f830112613b8d57613b8c613844565b5b8135613b9d848260208601613b0f565b91505092915050565b600067ffffffffffffffff821115613bc157613bc061385f565b5b613bca8261384e565b9050602081019050919050565b6000613bea613be584613ba6565b6138bf565b905082815260208101848484011115613c0657613c05613849565b5b613c1184828561390b565b509392505050565b600082601f830112613c2e57613c2d613844565b5b8135613c3e848260208601613bd7565b91505092915050565b60008060008060808587031215613c6157613c60613681565b5b6000613c6f878288016136d4565b945050602085013567ffffffffffffffff811115613c9057613c8f613686565b5b613c9c87828801613b78565b935050604085013567ffffffffffffffff811115613cbd57613cbc613686565b5b613cc987828801613b78565b925050606085013567ffffffffffffffff811115613cea57613ce9613686565b5b613cf687828801613c19565b91505092959194509250565b600080600080600060a08688031215613d1e57613d1d613681565b5b6000613d2c888289016136d4565b9550506020613d3d888289016136d4565b945050604086013567ffffffffffffffff811115613d5e57613d5d613686565b5b613d6a88828901613b78565b935050606086013567ffffffffffffffff811115613d8b57613d8a613686565b5b613d9788828901613b78565b925050608086013567ffffffffffffffff811115613db857613db7613686565b5b613dc488828901613c19565b9150509295509295909350565b6000613ddc826136ab565b9050919050565b613dec81613dd1565b8114613df757600080fd5b50565b600081359050613e0981613de3565b92915050565b60008060408385031215613e2657613e25613681565b5b6000613e34858286016136d4565b9250506020613e4585828601613dfa565b9150509250929050565b600067ffffffffffffffff821115613e6a57613e6961385f565b5b602082029050602081019050919050565b6000613e8e613e8984613e4f565b6138bf565b90508083825260208201905060208402830185811115613eb157613eb0613b0a565b5b835b81811015613eda5780613ec688826136d4565b845260208401935050602081019050613eb3565b5050509392505050565b600082601f830112613ef957613ef8613844565b5b8135613f09848260208601613e7b565b91505092915050565b60008060408385031215613f2957613f28613681565b5b600083013567ffffffffffffffff811115613f4757613f46613686565b5b613f5385828601613ee4565b925050602083013567ffffffffffffffff811115613f7457613f73613686565b5b613f8085828601613b78565b9150509250929050565b600081519050919050565b600082825260208201905092915050565b6000819050602082019050919050565b613fbf816136e9565b82525050565b6000613fd18383613fb6565b60208301905092915050565b6000602082019050919050565b6000613ff582613f8a565b613fff8185613f95565b935061400a83613fa6565b8060005b8381101561403b5781516140228882613fc5565b975061402d83613fdd565b92505060018101905061400e565b5085935050505092915050565b600060208201905081810360008301526140628184613fea565b905092915050565b60008060006060848603121561408357614082613681565b5b6000614091868287016136d4565b935050602084013567ffffffffffffffff8111156140b2576140b1613686565b5b6140be86828701613b78565b925050604084013567ffffffffffffffff8111156140df576140de613686565b5b6140eb86828701613b78565b9150509250925092565b6000806000806080858703121561410f5761410e613681565b5b600061411d878288016136d4565b945050602061412e8782880161370a565b935050604061413f8782880161370a565b925050606085013567ffffffffffffffff8111156141605761415f613686565b5b61416c87828801613c19565b91505092959194509250565b614181816136ab565b82525050565b600060208201905061419c6000830184614178565b92915050565b6141ab8161380e565b81146141b657600080fd5b50565b6000813590506141c8816141a2565b92915050565b600080604083850312156141e5576141e4613681565b5b60006141f3858286016136d4565b9250506020614204858286016141b9565b9150509250929050565b6000806040838503121561422557614224613681565b5b6000614233858286016136d4565b9250506020614244858286016136d4565b9150509250929050565b600080600080600060a0868803121561426a57614269613681565b5b6000614278888289016136d4565b9550506020614289888289016136d4565b945050604061429a8882890161370a565b93505060606142ab8882890161370a565b925050608086013567ffffffffffffffff8111156142cc576142cb613686565b5b6142d888828901613c19565b9150509295509295909350565b6000602082840312156142fb576142fa613681565b5b6000614309848285016136d4565b91505092915050565b60008060006060848603121561432b5761432a613681565b5b6000614339868287016136d4565b935050602061434a8682870161370a565b925050604061435b8682870161370a565b9150509250925092565b7f455243313135353a2062616c616e636520717565727920666f7220746865207a60008201527f65726f2061646472657373000000000000000000000000000000000000000000602082015250565b60006143c1602b836139de565b91506143cc82614365565b604082019050919050565b600060208201905081810360008301526143f0816143b4565b9050919050565b7f4e487b7100000000000000000000000000000000000000000000000000000000600052602260045260246000fd5b6000600282049050600182168061443e57607f821691505b60208210811415614452576144516143f7565b5b50919050565b600081905092915050565b60008190508160005260206000209050919050565b6000815461448581614426565b61448f8186614458565b945060018216600081146144aa57600181146144bb576144ee565b60ff198316865281860193506144ee565b6144c485614463565b60005b838110156144e6578154818901526001820191506020810190506144c7565b838801955050505b50505092915050565b6000614502826139d3565b61450c8185614458565b935061451c8185602086016139ef565b80840191505092915050565b60006145348285614478565b915061454082846144f7565b91508190509392505050565b7f4e487b7100000000000000000000000000000000000000000000000000000000600052603260045260246000fd5b60008151905061458a816141a2565b92915050565b6000602082840312156145a6576145a5613681565b5b60006145b48482850161457b565b91505092915050565b7f556e7472616461626c65207265736f7572636573000000000000000000000000600082015250565b60006145f36014836139de565b91506145fe826145bd565b602082019050919050565b60006020820190508181036000830152614622816145e6565b9050919050565b7f4e487b7100000000000000000000000000000000000000000000000000000000600052601160045260246000fd5b6000614663826136e9565b91507fffffffffffffffffffffffffffffffffffffffffffffffffffffffffffffffff82141561469657614695614629565b5b600182019050919050565b7f496e697469616c697a61626c653a20636f6e747261637420697320616c72656160008201527f647920696e697469616c697a6564000000000000000000000000000000000000602082015250565b60006146fd602e836139de565b9150614708826146a1565b604082019050919050565b6000602082019050818103600083015261472c816146f0565b9050919050565b7f455243313135353a206163636f756e747320616e6420696473206c656e67746860008201527f206d69736d617463680000000000000000000000000000000000000000000000602082015250565b600061478f6029836139de565b915061479a82614733565b604082019050919050565b600060208201905081810360008301526147be81614782565b9050919050565b7f4f776e61626c653a2063616c6c6572206973206e6f7420746865206f776e6572600082015250565b60006147fb6020836139de565b9150614806826147c5565b602082019050919050565b6000602082019050818103600083015261482a816147ee565b9050919050565b7f455243313135353a2073657474696e6720617070726f76616c2073746174757360008201527f20666f722073656c660000000000000000000000000000000000000000000000602082015250565b600061488d6029836139de565b915061489882614831565b604082019050919050565b600060208201905081810360008301526148bc81614880565b9050919050565b7f4f776e61626c653a206e6577206f776e657220697320746865207a65726f206160008201527f6464726573730000000000000000000000000000000000000000000000000000602082015250565b600061491f6026836139de565b915061492a826148c3565b604082019050919050565b6000602082019050818103600083015261494e81614912565b9050919050565b600060408201905061496a6000830185613a87565b6149776020830184614178565b9392505050565b7f416363657373436f6e74726f6c3a206163636f756e7420000000000000000000600082015250565b60006149b4601783614458565b91506149bf8261497e565b601782019050919050565b7f206973206d697373696e6720726f6c6520000000000000000000000000000000600082015250565b6000614a00601183614458565b9150614a0b826149ca565b601182019050919050565b6000614a21826149a7565b9150614a2d82856144f7565b9150614a38826149f3565b9150614a4482846144f7565b91508190509392505050565b7f4e487b7100000000000000000000000000000000000000000000000000000000600052601260045260246000fd5b6000614a8a826136e9565b9150614a95836136e9565b925082614aa557614aa4614a50565b5b828204905092915050565b6000614abb826136e9565b9150614ac6836136e9565b925082821015614ad957614ad8614629565b5b828203905092915050565b6000614aef826136e9565b9150614afa836136e9565b925082614b0a57614b09614a50565b5b828206905092915050565b6000614b20826136e9565b9150614b2b836136e9565b9250827fffffffffffffffffffffffffffffffffffffffffffffffffffffffffffffffff03821115614b6057614b5f614629565b5b828201905092915050565b7f455243313135353a207472616e736665722063616c6c6572206973206e6f742060008201527f6f776e6572206e6f7220617070726f7665640000000000000000000000000000602082015250565b6000614bc76032836139de565b9150614bd282614b6b565b604082019050919050565b60006020820190508181036000830152614bf681614bba565b9050919050565b7f455243313135353a2063616c6c6572206973206e6f74206f776e6572206e6f7260008201527f20617070726f7665640000000000000000000000000000000000000000000000602082015250565b6000614c596029836139de565b9150614c6482614bfd565b604082019050919050565b60006020820190508181036000830152614c8881614c4c565b9050919050565b6000614c9a826136e9565b9150614ca5836136e9565b9250817fffffffffffffffffffffffffffffffffffffffffffffffffffffffffffffffff0483118215151615614cde57614cdd614629565b5b828202905092915050565b6000614cf4826136e9565b91506000821415614d0857614d07614629565b5b600182039050919050565b7f537472696e67733a20686578206c656e67746820696e73756666696369656e74600082015250565b6000614d496020836139de565b9150614d5482614d13565b602082019050919050565b60006020820190508181036000830152614d7881614d3c565b9050919050565b7f455243313135353a206d696e7420746f20746865207a65726f2061646472657360008201527f7300000000000000000000000000000000000000000000000000000000000000602082015250565b6000614ddb6021836139de565b9150614de682614d7f565b604082019050919050565b60006020820190508181036000830152614e0a81614dce565b9050919050565b7f455243313135353a2069647320616e6420616d6f756e7473206c656e6774682060008201527f6d69736d61746368000000000000000000000000000000000000000000000000602082015250565b6000614e6d6028836139de565b9150614e7882614e11565b604082019050919050565b60006020820190508181036000830152614e9c81614e60565b9050919050565b60006040820190508181036000830152614ebd8185613fea565b90508181036020830152614ed18184613fea565b90509392505050565b7f455243313135353a207472616e7366657220746f20746865207a65726f20616460008201527f6472657373000000000000000000000000000000000000000000000000000000602082015250565b6000614f366025836139de565b9150614f4182614eda565b604082019050919050565b60006020820190508181036000830152614f6581614f29565b9050919050565b7f455243313135353a20696e73756666696369656e742062616c616e636520666f60008201527f72207472616e7366657200000000000000000000000000000000000000000000602082015250565b6000614fc8602a836139de565b9150614fd382614f6c565b604082019050919050565b60006020820190508181036000830152614ff781614fbb565b9050919050565b7f455243313135353a206275726e2066726f6d20746865207a65726f206164647260008201527f6573730000000000000000000000000000000000000000000000000000000000602082015250565b600061505a6023836139de565b915061506582614ffe565b604082019050919050565b600060208201905081810360008301526150898161504d565b9050919050565b7f455243313135353a206275726e20616d6f756e7420657863656564732062616c60008201527f616e636500000000000000000000000000000000000000000000000000000000602082015250565b60006150ec6024836139de565b91506150f782615090565b604082019050919050565b6000602082019050818103600083015261511b816150df565b9050919050565b6000604082019050615137600083018561375f565b615144602083018461375f565b9392505050565b600081519050919050565b600082825260208201905092915050565b60006151728261514b565b61517c8185615156565b935061518c8185602086016139ef565b6151958161384e565b840191505092915050565b600060a0820190506151b56000830188614178565b6151c26020830187614178565b81810360408301526151d48186613fea565b905081810360608301526151e88185613fea565b905081810360808301526151fc8184615167565b90509695505050505050565b600081519050615217816137b5565b92915050565b60006020828403121561523357615232613681565b5b600061524184828501615208565b91505092915050565b60008160e01c9050919050565b600060033d11156152765760046000803e61527360005161524a565b90505b90565b600060443d10156152895761530c565b615291613677565b60043d036004823e80513d602482011167ffffffffffffffff821117156152b957505061530c565b808201805167ffffffffffffffff8111156152d7575050505061530c565b80602083010160043d0385018111156152f457505050505061530c565b6153038260200185018661388e565b82955050505050505b90565b7f455243313135353a207472616e7366657220746f206e6f6e204552433131353560008201527f526563656976657220696d706c656d656e746572000000000000000000000000602082015250565b600061536b6034836139de565b91506153768261530f565b604082019050919050565b6000602082019050818103600083015261539a8161535e565b9050919050565b7f455243313135353a204552433131353552656365697665722072656a6563746560008201527f6420746f6b656e73000000000000000000000000000000000000000000000000602082015250565b60006153fd6028836139de565b9150615408826153a1565b604082019050919050565b6000602082019050818103600083015261542c816153f0565b9050919050565b600060a0820190506154486000830188614178565b6154556020830187614178565b615462604083018661375f565b61546f606083018561375f565b81810360808301526154818184615167565b9050969550505050505056fea2646970667358221220f093db74c6f77070595fda7fe14f7fb564af96ba72fc0dd52d82af9f749d079d64736f6c634300080c0033",
  "immutableReferences": {},
  "source": "// SPDX-License-Identifier: MIT\npragma solidity 0.8.12;\n\nimport \"@openzeppelin/contracts-upgradeable/token/ERC1155/ERC1155Upgradeable.sol\";\nimport \"@openzeppelin/contracts-upgradeable/token/ERC1155/extensions/ERC1155SupplyUpgradeable.sol\";\nimport \"@openzeppelin/contracts-upgradeable/access/OwnableUpgradeable.sol\";\nimport \"@openzeppelin/contracts-upgradeable/utils/StringsUpgradeable.sol\";\nimport \"../interfaces/IUtils.sol\";\nimport \"../utils/CentralAccessControl.sol\";\n\ncontract NFT is ERC1155SupplyUpgradeable, CentralAccessControl, OwnableUpgradeable {\n    string public name;\n    string public symbol;\n    string private _urinew;\n    IUtils private utils;\n\n    function initialize(address _roleManager, IUtils _utils) public initializer {\n        __ERC1155_init(\"\");\n        __Ownable_init();\n        __CentralAccessControl_init(_roleManager);\n        name = \"AniFi World Collection\";\n        symbol = \"ANIFINFT\";\n        utils = _utils;\n    }\n\n    function setURI(string memory newuri) public onlyRole(INITIALIZER_ROLE) {\n        _urinew = newuri;\n    }\n\n    function mint(address account, uint256 id, uint256 amount, bytes memory data) public onlyRole(NFT_MINTER_ROLE) {\n        _mint(account, id, amount, data);\n    }\n\n    function mintBatch(address to, uint256[] memory ids, uint256[] memory amounts, bytes memory data) public onlyRole(NFT_MINTER_ROLE) {\n        _mintBatch(to, ids, amounts, data);\n    }\n\n    function burn(address account, uint256 id, uint256 value) public onlyRole(NFT_BURNER_ROLE) {\n        _burn(account, id, value);\n    }\n\n    function burnBatch(address account, uint256[] memory ids, uint256[] memory values) public onlyRole(NFT_BURNER_ROLE) {\n        _burnBatch(account, ids, values);\n    }\n\n    /** ERC1155 functions override */\n\n    function safeTransferFrom(\n        address from,\n        address to,\n        uint256 id,\n        uint256 amount,\n        bytes memory data\n    ) public override {\n        require(utils.isTradable(id), \"Untradable resources\");\n        super.safeTransferFrom(from, to, id, amount, data);\n    }\n\n    function safeBatchTransferFrom(\n        address from,\n        address to,\n        uint256[] memory ids,\n        uint256[] memory amounts,\n        bytes memory data\n    ) public override {\n        for (uint256 i = 0; i < ids.length; ++i) {\n            require(utils.isTradable(ids[i]), \"Untradable resources\");\n        }\n        super.safeBatchTransferFrom(from, to, ids, amounts, data);\n    }\n\n    function uri(uint256 _tokenId) public view virtual override returns (string memory) {\n        return string.concat(_urinew, StringsUpgradeable.toString(_tokenId));\n    }\n}\n",
  "sourcePath": "/Users/poripuri/Documents/Dev/AniFi/contract_new/shin-keiyaku/contracts/tokens/NFT.sol",
  "compiler": {
    "name": "solc",
    "version": "0.8.12+commit.f00d7308.Emscripten.clang"
  },
  "schemaVersion": "3.4.2",
  "updatedAt": "2022-09-25T17:44:59.745Z",
  "networkType": "ethereum",
  "devdoc": {
    "kind": "dev",
    "methods": {
      "balanceOf(address,uint256)": {
        "details": "See {IERC1155-balanceOf}. Requirements: - `account` cannot be the zero address."
      },
      "balanceOfBatch(address[],uint256[])": {
        "details": "See {IERC1155-balanceOfBatch}. Requirements: - `accounts` and `ids` must have the same length."
      },
      "exists(uint256)": {
        "details": "Indicates weither any token exist with a given id, or not."
      },
      "isApprovedForAll(address,address)": {
        "details": "See {IERC1155-isApprovedForAll}."
      },
      "owner()": {
        "details": "Returns the address of the current owner."
      },
      "renounceOwnership()": {
        "details": "Leaves the contract without owner. It will not be possible to call `onlyOwner` functions anymore. Can only be called by the current owner. NOTE: Renouncing ownership will leave the contract without an owner, thereby removing any functionality that is only available to the owner."
      },
      "safeBatchTransferFrom(address,address,uint256[],uint256[],bytes)": {
        "details": "See {IERC1155-safeBatchTransferFrom}."
      },
      "setApprovalForAll(address,bool)": {
        "details": "See {IERC1155-setApprovalForAll}."
      },
      "supportsInterface(bytes4)": {
        "details": "See {IERC165-supportsInterface}."
      },
      "totalSupply(uint256)": {
        "details": "Total amount of tokens in with a given id."
      },
      "transferOwnership(address)": {
        "details": "Transfers ownership of the contract to a new account (`newOwner`). Can only be called by the current owner."
      }
    },
    "version": 1
  },
  "userdoc": {
    "kind": "user",
    "methods": {
      "safeTransferFrom(address,address,uint256,uint256,bytes)": {
        "notice": "ERC1155 functions override "
      }
    },
    "version": 1
  }
}