{
  "contractName": "PrivateSale",
  "abi": [
    {
      "inputs": [
        {
          "internalType": "address",
          "name": "_wallet",
          "type": "address"
        },
        {
          "internalType": "contract IERC20",
          "name": "_usdToken",
          "type": "address"
        },
        {
          "internalType": "uint256",
          "name": "_privateSaleTimestamp",
          "type": "uint256"
        },
        {
          "internalType": "uint256",
          "name": "_tgeTimestamp",
          "type": "uint256"
        }
      ],
      "stateMutability": "nonpayable",
      "type": "constructor"
    },
    {
      "anonymous": false,
      "inputs": [
        {
          "indexed": false,
          "internalType": "address",
          "name": "from",
          "type": "address"
        },
        {
          "indexed": false,
          "internalType": "uint256",
          "name": "usdAmount",
          "type": "uint256"
        },
        {
          "indexed": false,
          "internalType": "uint256",
          "name": "aniAmount",
          "type": "uint256"
        }
      ],
      "name": "OnBuy",
      "type": "event"
    },
    {
      "anonymous": false,
      "inputs": [
        {
          "indexed": false,
          "internalType": "address",
          "name": "to",
          "type": "address"
        },
        {
          "indexed": false,
          "internalType": "uint256",
          "name": "amount",
          "type": "uint256"
        },
        {
          "indexed": false,
          "internalType": "uint256",
          "name": "amountLeft",
          "type": "uint256"
        }
      ],
      "name": "OnWithdraw",
      "type": "event"
    },
    {
      "anonymous": false,
      "inputs": [
        {
          "indexed": true,
          "internalType": "address",
          "name": "previousOwner",
          "type": "address"
        },
        {
          "indexed": true,
          "internalType": "address",
          "name": "newOwner",
          "type": "address"
        }
      ],
      "name": "OwnershipTransferred",
      "type": "event"
    },
    {
      "inputs": [],
      "name": "LIMIT_SALE",
      "outputs": [
        {
          "internalType": "uint256",
          "name": "",
          "type": "uint256"
        }
      ],
      "stateMutability": "view",
      "type": "function"
    },
    {
      "inputs": [],
      "name": "MAX_BUY",
      "outputs": [
        {
          "internalType": "uint256",
          "name": "",
          "type": "uint256"
        }
      ],
      "stateMutability": "view",
      "type": "function"
    },
    {
      "inputs": [],
      "name": "MIN_BUY",
      "outputs": [
        {
          "internalType": "uint256",
          "name": "",
          "type": "uint256"
        }
      ],
      "stateMutability": "view",
      "type": "function"
    },
    {
      "inputs": [],
      "name": "PRICE_PER_STEP",
      "outputs": [
        {
          "internalType": "uint256",
          "name": "",
          "type": "uint256"
        }
      ],
      "stateMutability": "view",
      "type": "function"
    },
    {
      "inputs": [],
      "name": "START_PRICE",
      "outputs": [
        {
          "internalType": "uint256",
          "name": "",
          "type": "uint256"
        }
      ],
      "stateMutability": "view",
      "type": "function"
    },
    {
      "inputs": [],
      "name": "STEPUP_PERIOD",
      "outputs": [
        {
          "internalType": "uint256",
          "name": "",
          "type": "uint256"
        }
      ],
      "stateMutability": "view",
      "type": "function"
    },
    {
      "inputs": [],
      "name": "TOTAL_STEP",
      "outputs": [
        {
          "internalType": "uint256",
          "name": "",
          "type": "uint256"
        }
      ],
      "stateMutability": "view",
      "type": "function"
    },
    {
      "inputs": [],
      "name": "VESTING_PERIOD",
      "outputs": [
        {
          "internalType": "uint256",
          "name": "",
          "type": "uint256"
        }
      ],
      "stateMutability": "view",
      "type": "function"
    },
    {
      "inputs": [],
      "name": "aniToken",
      "outputs": [
        {
          "internalType": "contract IERC20",
          "name": "",
          "type": "address"
        }
      ],
      "stateMutability": "view",
      "type": "function"
    },
    {
      "inputs": [],
      "name": "owner",
      "outputs": [
        {
          "internalType": "address",
          "name": "",
          "type": "address"
        }
      ],
      "stateMutability": "view",
      "type": "function"
    },
    {
      "inputs": [],
      "name": "privateSaleTimestamp",
      "outputs": [
        {
          "internalType": "uint256",
          "name": "",
          "type": "uint256"
        }
      ],
      "stateMutability": "view",
      "type": "function"
    },
    {
      "inputs": [],
      "name": "renounceOwnership",
      "outputs": [],
      "stateMutability": "nonpayable",
      "type": "function"
    },
    {
      "inputs": [],
      "name": "tgeTimestamp",
      "outputs": [
        {
          "internalType": "uint256",
          "name": "",
          "type": "uint256"
        }
      ],
      "stateMutability": "view",
      "type": "function"
    },
    {
      "inputs": [],
      "name": "totalSale",
      "outputs": [
        {
          "internalType": "uint256",
          "name": "",
          "type": "uint256"
        }
      ],
      "stateMutability": "view",
      "type": "function"
    },
    {
      "inputs": [
        {
          "internalType": "address",
          "name": "newOwner",
          "type": "address"
        }
      ],
      "name": "transferOwnership",
      "outputs": [],
      "stateMutability": "nonpayable",
      "type": "function"
    },
    {
      "inputs": [],
      "name": "usdToken",
      "outputs": [
        {
          "internalType": "contract IERC20",
          "name": "",
          "type": "address"
        }
      ],
      "stateMutability": "view",
      "type": "function"
    },
    {
      "inputs": [
        {
          "internalType": "address",
          "name": "",
          "type": "address"
        }
      ],
      "name": "userBoughtAmount",
      "outputs": [
        {
          "internalType": "uint256",
          "name": "",
          "type": "uint256"
        }
      ],
      "stateMutability": "view",
      "type": "function"
    },
    {
      "inputs": [
        {
          "internalType": "address",
          "name": "",
          "type": "address"
        }
      ],
      "name": "userLastWithdrawn",
      "outputs": [
        {
          "internalType": "uint256",
          "name": "",
          "type": "uint256"
        }
      ],
      "stateMutability": "view",
      "type": "function"
    },
    {
      "inputs": [
        {
          "internalType": "address",
          "name": "",
          "type": "address"
        }
      ],
      "name": "userWallet",
      "outputs": [
        {
          "internalType": "uint256",
          "name": "",
          "type": "uint256"
        }
      ],
      "stateMutability": "view",
      "type": "function"
    },
    {
      "inputs": [
        {
          "internalType": "address",
          "name": "",
          "type": "address"
        }
      ],
      "name": "userWithdrawn",
      "outputs": [
        {
          "internalType": "uint256",
          "name": "",
          "type": "uint256"
        }
      ],
      "stateMutability": "view",
      "type": "function"
    },
    {
      "inputs": [],
      "name": "wallet",
      "outputs": [
        {
          "internalType": "address",
          "name": "",
          "type": "address"
        }
      ],
      "stateMutability": "view",
      "type": "function"
    },
    {
      "inputs": [
        {
          "internalType": "contract IERC20",
          "name": "_aniToken",
          "type": "address"
        }
      ],
      "name": "setAniToken",
      "outputs": [],
      "stateMutability": "nonpayable",
      "type": "function"
    },
    {
      "inputs": [
        {
          "internalType": "address",
          "name": "_wallet",
          "type": "address"
        }
      ],
      "name": "setWallet",
      "outputs": [],
      "stateMutability": "nonpayable",
      "type": "function"
    },
    {
      "inputs": [
        {
          "internalType": "uint256",
          "name": "_privateSaleTimestamp",
          "type": "uint256"
        }
      ],
      "name": "setPrivateSaleTimestamp",
      "outputs": [],
      "stateMutability": "nonpayable",
      "type": "function"
    },
    {
      "inputs": [
        {
          "internalType": "uint256",
          "name": "_tgeTimestamp",
          "type": "uint256"
        }
      ],
      "name": "setTGETimestamp",
      "outputs": [],
      "stateMutability": "nonpayable",
      "type": "function"
    },
    {
      "inputs": [],
      "name": "getCurrentPrice",
      "outputs": [
        {
          "internalType": "uint256",
          "name": "",
          "type": "uint256"
        }
      ],
      "stateMutability": "view",
      "type": "function"
    },
    {
      "inputs": [
        {
          "internalType": "uint256",
          "name": "_usdAmount",
          "type": "uint256"
        }
      ],
      "name": "quoteTokenAmount",
      "outputs": [
        {
          "internalType": "uint256",
          "name": "",
          "type": "uint256"
        }
      ],
      "stateMutability": "view",
      "type": "function"
    },
    {
      "inputs": [
        {
          "internalType": "address",
          "name": "_wallet",
          "type": "address"
        },
        {
          "internalType": "uint256",
          "name": "_usdAmount",
          "type": "uint256"
        },
        {
          "internalType": "uint256",
          "name": "_price",
          "type": "uint256"
        }
      ],
      "name": "addBuy",
      "outputs": [],
      "stateMutability": "nonpayable",
      "type": "function"
    },
    {
      "inputs": [
        {
          "internalType": "uint256",
          "name": "_usdAmount",
          "type": "uint256"
        }
      ],
      "name": "buy",
      "outputs": [],
      "stateMutability": "nonpayable",
      "type": "function"
    },
    {
      "inputs": [],
      "name": "withdraw",
      "outputs": [],
      "stateMutability": "nonpayable",
      "type": "function"
    },
    {
      "inputs": [],
      "name": "getWithdrawAmount",
      "outputs": [
        {
          "internalType": "uint256",
          "name": "",
          "type": "uint256"
        }
      ],
      "stateMutability": "view",
      "type": "function"
    },
    {
      "inputs": [],
      "name": "isEligibleToBuy",
      "outputs": [
        {
          "internalType": "bool",
          "name": "",
          "type": "bool"
        }
      ],
      "stateMutability": "view",
      "type": "function"
    }
  ],
  "bytecode": "0x60806040523480156200001157600080fd5b5060405162002908380380620029088339818101604052810190620000379190620003e9565b620000576200004b6200023360201b60201c565b6200023b60201b60201c565b4282116200009c576040517f08c379a00000000000000000000000000000000000000000000000000000000081526004016200009390620004bc565b60405180910390fd5b428111620000e1576040517f08c379a0000000000000000000000000000000000000000000000000000000008152600401620000d8906200052e565b60405180910390fd5b81811162000126576040517f08c379a00000000000000000000000000000000000000000000000000000000081526004016200011d90620005a0565b60405180910390fd5b600073ffffffffffffffffffffffffffffffffffffffff168473ffffffffffffffffffffffffffffffffffffffff16141562000199576040517f08c379a0000000000000000000000000000000000000000000000000000000008152600401620001909062000612565b60405180910390fd5b83600660006101000a81548173ffffffffffffffffffffffffffffffffffffffff021916908373ffffffffffffffffffffffffffffffffffffffff16021790555082600260006101000a81548173ffffffffffffffffffffffffffffffffffffffff021916908373ffffffffffffffffffffffffffffffffffffffff16021790555081600481905550806005819055505050505062000634565b600033905090565b60008060009054906101000a900473ffffffffffffffffffffffffffffffffffffffff169050816000806101000a81548173ffffffffffffffffffffffffffffffffffffffff021916908373ffffffffffffffffffffffffffffffffffffffff1602179055508173ffffffffffffffffffffffffffffffffffffffff168173ffffffffffffffffffffffffffffffffffffffff167f8be0079c531659141344cd1fd0a4f28419497f9722a3daafe3b4186f6b6457e060405160405180910390a35050565b600080fd5b600073ffffffffffffffffffffffffffffffffffffffff82169050919050565b6000620003318262000304565b9050919050565b620003438162000324565b81146200034f57600080fd5b50565b600081519050620003638162000338565b92915050565b6000620003768262000324565b9050919050565b620003888162000369565b81146200039457600080fd5b50565b600081519050620003a8816200037d565b92915050565b6000819050919050565b620003c381620003ae565b8114620003cf57600080fd5b50565b600081519050620003e381620003b8565b92915050565b60008060008060808587031215620004065762000405620002ff565b5b6000620004168782880162000352565b9450506020620004298782880162000397565b93505060406200043c87828801620003d2565b92505060606200044f87828801620003d2565b91505092959194509250565b600082825260208201905092915050565b7f496e76616c69642053616c652054696d65000000000000000000000000000000600082015250565b6000620004a46011836200045b565b9150620004b1826200046c565b602082019050919050565b60006020820190508181036000830152620004d78162000495565b9050919050565b7f496e76616c69642054474554696d650000000000000000000000000000000000600082015250565b600062000516600f836200045b565b91506200052382620004de565b602082019050919050565b60006020820190508181036000830152620005498162000507565b9050919050565b7f544745206d75737420626520616674657220707269766174652073616c650000600082015250565b600062000588601e836200045b565b9150620005958262000550565b602082019050919050565b60006020820190508181036000830152620005bb8162000579565b9050919050565b7f57616c6c65742063616e6e6f7420626520300000000000000000000000000000600082015250565b6000620005fa6012836200045b565b91506200060782620005c2565b602082019050919050565b600060208201905081810360008301526200062d81620005eb565b9050919050565b6122c480620006446000396000f3fe608060405234801561001057600080fd5b50600436106101f05760003560e01c8063a4317ef41161010f578063deaa59df116100a2578063f42f70d711610071578063f42f70d71461054f578063f897a22b1461056d578063f92b8aa81461058b578063fc9dbc69146105a9576101f0565b8063deaa59df146104db578063ea4ce239146104f7578063eb91d37e14610515578063f2fde38b14610533576101f0565b8063d83e4515116100de578063d83e451514610455578063d8bd228914610485578063d96a094a146104a3578063db8dada4146104bf576101f0565b8063a4317ef4146103cb578063cc392a9c146103e9578063d123e96814610419578063d46b136c14610437576101f0565b80634245d8ad116101875780638b2ecc19116101565780638b2ecc19146103555780638da5cb5b1461037357806394185ac0146103915780639bc8b799146103ad576101f0565b80634245d8ad146102e1578063464238f0146102fd578063521eb2731461032d578063715018a61461034b576101f0565b806333cd708d116101c357806333cd708d1461026b5780633609ac8f1461029b5780633af96b90146102b95780633ccfd60b146102d7576101f0565b80630197d972146101f5578063027932f91461021357806308db4aa1146102315780630ff8c8751461024d575b600080fd5b6101fd6105d9565b60405161020a91906118b4565b60405180910390f35b61021b6105df565b60405161022891906118b4565b60405180910390f35b61024b6004803603810190610246919061195e565b6107d7565b005b610255610a21565b60405161026291906118b4565b60405180910390f35b610285600480360381019061028091906119b1565b610a26565b60405161029291906118b4565b60405180910390f35b6102a3610a3e565b6040516102b091906118b4565b60405180910390f35b6102c1610a49565b6040516102ce91906118b4565b60405180910390f35b6102df610a56565b005b6102fb60048036038101906102f69190611a1c565b610d19565b005b610317600480360381019061031291906119b1565b610e49565b60405161032491906118b4565b60405180910390f35b610335610e61565b6040516103429190611a58565b60405180910390f35b610353610e87565b005b61035d610f0f565b60405161036a9190611ad2565b60405180910390f35b61037b610f35565b6040516103889190611a58565b60405180910390f35b6103ab60048036038101906103a69190611aed565b610f5e565b005b6103b5610fe4565b6040516103c291906118b4565b60405180910390f35b6103d3610fea565b6040516103e091906118b4565b60405180910390f35b61040360048036038101906103fe91906119b1565b610ff0565b60405161041091906118b4565b60405180910390f35b610421611008565b60405161042e91906118b4565b60405180910390f35b61043f611012565b60405161044c91906118b4565b60405180910390f35b61046f600480360381019061046a9190611aed565b61101f565b60405161047c91906118b4565b60405180910390f35b61048d611053565b60405161049a91906118b4565b60405180910390f35b6104bd60048036038101906104b89190611aed565b611062565b005b6104d960048036038101906104d49190611aed565b6113f0565b005b6104f560048036038101906104f091906119b1565b611476565b005b6104ff6115a6565b60405161050c91906118b4565b60405180910390f35b61051d6115ac565b60405161052a91906118b4565b60405180910390f35b61054d600480360381019061054891906119b1565b61164e565b005b610557611746565b60405161056491906118b4565b60405180910390f35b61057561174c565b6040516105829190611ad2565b60405180910390f35b610593611772565b6040516105a09190611b35565b60405180910390f35b6105c360048036038101906105be91906119b1565b6117b7565b6040516105d091906118b4565b60405180910390f35b610e1081565b6000806064600860006105f06117cf565b73ffffffffffffffffffffffffffffffffffffffff1673ffffffffffffffffffffffffffffffffffffffff1681526020019081526020016000205460146106379190611b7f565b6106419190611c08565b9050600081600860006106526117cf565b73ffffffffffffffffffffffffffffffffffffffff1673ffffffffffffffffffffffffffffffffffffffff168152602001908152602001600020546106979190611c39565b9050600080600a60006106a86117cf565b73ffffffffffffffffffffffffffffffffffffffff1673ffffffffffffffffffffffffffffffffffffffff1681526020019081526020016000205414156106f357600554905061073d565b600a60006106ff6117cf565b73ffffffffffffffffffffffffffffffffffffffff1673ffffffffffffffffffffffffffffffffffffffff1681526020019081526020016000205490505b6000610e1083834261074f9190611c39565b6107599190611b7f565b6107639190611c08565b9050600080600960006107746117cf565b73ffffffffffffffffffffffffffffffffffffffff1673ffffffffffffffffffffffffffffffffffffffff1681526020019081526020016000205414156107c85781856107c19190611c6d565b90506107cc565b8190505b809550505050505090565b6107df6117cf565b73ffffffffffffffffffffffffffffffffffffffff166107fd610f35565b73ffffffffffffffffffffffffffffffffffffffff1614610853576040517f08c379a000000000000000000000000000000000000000000000000000000000815260040161084a90611d20565b60405180910390fd5b660ffcb9e57d400081101561089d576040517f08c379a000000000000000000000000000000000000000000000000000000000815260040161089490611d8c565b60405180910390fd5b600081670de0b6b3a7640000846108b49190611b7f565b6108be9190611c08565b90506a108b2a2c28029094000000816003546108da9190611c6d565b111561091b576040517f08c379a000000000000000000000000000000000000000000000000000000000815260040161091290611df8565b60405180910390fd5b80600860008673ffffffffffffffffffffffffffffffffffffffff1673ffffffffffffffffffffffffffffffffffffffff168152602001908152602001600020600082825461096a9190611c6d565b9250508190555082600760008673ffffffffffffffffffffffffffffffffffffffff1673ffffffffffffffffffffffffffffffffffffffff16815260200190815260200160002060008282546109c09190611c6d565b9250508190555080600360008282546109d99190611c6d565b925050819055507fe1ec7176d5b997461b6dfac832d3dca02a6487756f5aa2bcb6d1eaeab56ce66c848483604051610a1393929190611e18565b60405180910390a150505050565b600b81565b600a6020528060005260406000206000915090505481565b660ffcb9e57d400081565b68056bc75e2d6310000081565b600554421015610a9b576040517f08c379a0000000000000000000000000000000000000000000000000000000008152600401610a9290611e9b565b60405180910390fd5b6000610aa56105df565b905060008111610aea576040517f08c379a0000000000000000000000000000000000000000000000000000000008152600401610ae190611f07565b60405180910390fd5b600060096000610af86117cf565b73ffffffffffffffffffffffffffffffffffffffff1673ffffffffffffffffffffffffffffffffffffffff16815260200190815260200160002054905060008282610b439190611c6d565b9050600060086000610b536117cf565b73ffffffffffffffffffffffffffffffffffffffff1673ffffffffffffffffffffffffffffffffffffffff16815260200190815260200160002054905080821115610bd3576040517f08c379a0000000000000000000000000000000000000000000000000000000008152600401610bca90611f73565b60405180910390fd5b8160096000610be06117cf565b73ffffffffffffffffffffffffffffffffffffffff1673ffffffffffffffffffffffffffffffffffffffff16815260200190815260200160002081905550600160009054906101000a900473ffffffffffffffffffffffffffffffffffffffff1673ffffffffffffffffffffffffffffffffffffffff1663a9059cbb610c646117cf565b866040518363ffffffff1660e01b8152600401610c82929190611f93565b6020604051808303816000875af1158015610ca1573d6000803e3d6000fd5b505050506040513d601f19601f82011682018060405250810190610cc59190611fe8565b507f2062721aee90a8bb8a5f4bd9268516248f25c0d9eddeda19278dca76aaea84d3610cef6117cf565b858484610cfc9190611c39565b604051610d0b93929190611e18565b60405180910390a150505050565b610d216117cf565b73ffffffffffffffffffffffffffffffffffffffff16610d3f610f35565b73ffffffffffffffffffffffffffffffffffffffff1614610d95576040517f08c379a0000000000000000000000000000000000000000000000000000000008152600401610d8c90611d20565b60405180910390fd5b600073ffffffffffffffffffffffffffffffffffffffff168173ffffffffffffffffffffffffffffffffffffffff161415610e05576040517f08c379a0000000000000000000000000000000000000000000000000000000008152600401610dfc90612061565b60405180910390fd5b80600160006101000a81548173ffffffffffffffffffffffffffffffffffffffff021916908373ffffffffffffffffffffffffffffffffffffffff16021790555050565b60076020528060005260406000206000915090505481565b600660009054906101000a900473ffffffffffffffffffffffffffffffffffffffff1681565b610e8f6117cf565b73ffffffffffffffffffffffffffffffffffffffff16610ead610f35565b73ffffffffffffffffffffffffffffffffffffffff1614610f03576040517f08c379a0000000000000000000000000000000000000000000000000000000008152600401610efa90611d20565b60405180910390fd5b610f0d60006117d7565b565b600160009054906101000a900473ffffffffffffffffffffffffffffffffffffffff1681565b60008060009054906101000a900473ffffffffffffffffffffffffffffffffffffffff16905090565b610f666117cf565b73ffffffffffffffffffffffffffffffffffffffff16610f84610f35565b73ffffffffffffffffffffffffffffffffffffffff1614610fda576040517f08c379a0000000000000000000000000000000000000000000000000000000008152600401610fd190611d20565b60405180910390fd5b8060048190555050565b60045481565b60055481565b60096020528060005260406000206000915090505481565b655af3107a400081565b685150ae84a8cdf0000081565b60008061102a6115ac565b670de0b6b3a76400008461103e9190611b7f565b6110489190611c08565b905080915050919050565b6a108b2a2c2802909400000081565b61106a611772565b6110a9576040517f08c379a00000000000000000000000000000000000000000000000000000000081526004016110a0906120cd565b60405180910390fd5b6000600760006110b76117cf565b73ffffffffffffffffffffffffffffffffffffffff1673ffffffffffffffffffffffffffffffffffffffff16815260200190815260200160002054905068056bc75e2d63100000828261110a9190611c6d565b101561114b576040517f08c379a000000000000000000000000000000000000000000000000000000000815260040161114290612139565b60405180910390fd5b685150ae84a8cdf0000082826111619190611c6d565b11156111a2576040517f08c379a0000000000000000000000000000000000000000000000000000000008152600401611199906121a5565b60405180910390fd5b60006111ad8361101f565b90506a108b2a2c28029094000000816003546111c99190611c6d565b111561120a576040517f08c379a000000000000000000000000000000000000000000000000000000000815260040161120190611df8565b60405180910390fd5b600260009054906101000a900473ffffffffffffffffffffffffffffffffffffffff1673ffffffffffffffffffffffffffffffffffffffff166323b872dd6112506117cf565b600660009054906101000a900473ffffffffffffffffffffffffffffffffffffffff16866040518463ffffffff1660e01b8152600401611292939291906121c5565b6020604051808303816000875af11580156112b1573d6000803e3d6000fd5b505050506040513d601f19601f820116820180604052508101906112d59190611fe8565b5080600860006112e36117cf565b73ffffffffffffffffffffffffffffffffffffffff1673ffffffffffffffffffffffffffffffffffffffff168152602001908152602001600020600082825461132c9190611c6d565b9250508190555082600760006113406117cf565b73ffffffffffffffffffffffffffffffffffffffff1673ffffffffffffffffffffffffffffffffffffffff16815260200190815260200160002060008282546113899190611c6d565b9250508190555080600360008282546113a29190611c6d565b925050819055507fe1ec7176d5b997461b6dfac832d3dca02a6487756f5aa2bcb6d1eaeab56ce66c6113d26117cf565b84836040516113e393929190611e18565b60405180910390a1505050565b6113f86117cf565b73ffffffffffffffffffffffffffffffffffffffff16611416610f35565b73ffffffffffffffffffffffffffffffffffffffff161461146c576040517f08c379a000000000000000000000000000000000000000000000000000000000815260040161146390611d20565b60405180910390fd5b8060058190555050565b61147e6117cf565b73ffffffffffffffffffffffffffffffffffffffff1661149c610f35565b73ffffffffffffffffffffffffffffffffffffffff16146114f2576040517f08c379a00000000000000000000000000000000000000000000000000000000081526004016114e990611d20565b60405180910390fd5b600073ffffffffffffffffffffffffffffffffffffffff168173ffffffffffffffffffffffffffffffffffffffff161415611562576040517f08c379a000000000000000000000000000000000000000000000000000000000815260040161155990612061565b60405180910390fd5b80600660006101000a81548173ffffffffffffffffffffffffffffffffffffffff021916908373ffffffffffffffffffffffffffffffffffffffff16021790555050565b60035481565b60008060006004544210156115ca57660ffcb9e57d40009150611646565b600b61012c600454426115dd9190611c39565b6115e79190611c08565b10611601576001600b6115fa9190611c39565b905061161f565b61012c600454426116129190611c39565b61161c9190611c08565b90505b655af3107a4000816116319190611b7f565b660ffcb9e57d40006116439190611c6d565b91505b819250505090565b6116566117cf565b73ffffffffffffffffffffffffffffffffffffffff16611674610f35565b73ffffffffffffffffffffffffffffffffffffffff16146116ca576040517f08c379a00000000000000000000000000000000000000000000000000000000081526004016116c190611d20565b60405180910390fd5b600073ffffffffffffffffffffffffffffffffffffffff168173ffffffffffffffffffffffffffffffffffffffff16141561173a576040517f08c379a00000000000000000000000000000000000000000000000000000000081526004016117319061226e565b60405180910390fd5b611743816117d7565b50565b61012c81565b600260009054906101000a900473ffffffffffffffffffffffffffffffffffffffff1681565b600080600b61012c6117849190611b7f565b6004546117919190611c6d565b9050600554421080156117a357508042105b80156117b157506004544210155b91505090565b60086020528060005260406000206000915090505481565b600033905090565b60008060009054906101000a900473ffffffffffffffffffffffffffffffffffffffff169050816000806101000a81548173ffffffffffffffffffffffffffffffffffffffff021916908373ffffffffffffffffffffffffffffffffffffffff1602179055508173ffffffffffffffffffffffffffffffffffffffff168173ffffffffffffffffffffffffffffffffffffffff167f8be0079c531659141344cd1fd0a4f28419497f9722a3daafe3b4186f6b6457e060405160405180910390a35050565b6000819050919050565b6118ae8161189b565b82525050565b60006020820190506118c960008301846118a5565b92915050565b600080fd5b600073ffffffffffffffffffffffffffffffffffffffff82169050919050565b60006118ff826118d4565b9050919050565b61190f816118f4565b811461191a57600080fd5b50565b60008135905061192c81611906565b92915050565b61193b8161189b565b811461194657600080fd5b50565b60008135905061195881611932565b92915050565b600080600060608486031215611977576119766118cf565b5b60006119858682870161191d565b935050602061199686828701611949565b92505060406119a786828701611949565b9150509250925092565b6000602082840312156119c7576119c66118cf565b5b60006119d58482850161191d565b91505092915050565b60006119e9826118f4565b9050919050565b6119f9816119de565b8114611a0457600080fd5b50565b600081359050611a16816119f0565b92915050565b600060208284031215611a3257611a316118cf565b5b6000611a4084828501611a07565b91505092915050565b611a52816118f4565b82525050565b6000602082019050611a6d6000830184611a49565b92915050565b6000819050919050565b6000611a98611a93611a8e846118d4565b611a73565b6118d4565b9050919050565b6000611aaa82611a7d565b9050919050565b6000611abc82611a9f565b9050919050565b611acc81611ab1565b82525050565b6000602082019050611ae76000830184611ac3565b92915050565b600060208284031215611b0357611b026118cf565b5b6000611b1184828501611949565b91505092915050565b60008115159050919050565b611b2f81611b1a565b82525050565b6000602082019050611b4a6000830184611b26565b92915050565b7f4e487b7100000000000000000000000000000000000000000000000000000000600052601160045260246000fd5b6000611b8a8261189b565b9150611b958361189b565b9250817fffffffffffffffffffffffffffffffffffffffffffffffffffffffffffffffff0483118215151615611bce57611bcd611b50565b5b828202905092915050565b7f4e487b7100000000000000000000000000000000000000000000000000000000600052601260045260246000fd5b6000611c138261189b565b9150611c1e8361189b565b925082611c2e57611c2d611bd9565b5b828204905092915050565b6000611c448261189b565b9150611c4f8361189b565b925082821015611c6257611c61611b50565b5b828203905092915050565b6000611c788261189b565b9150611c838361189b565b9250827fffffffffffffffffffffffffffffffffffffffffffffffffffffffffffffffff03821115611cb857611cb7611b50565b5b828201905092915050565b600082825260208201905092915050565b7f4f776e61626c653a2063616c6c6572206973206e6f7420746865206f776e6572600082015250565b6000611d0a602083611cc3565b9150611d1582611cd4565b602082019050919050565b60006020820190508181036000830152611d3981611cfd565b9050919050565b7f707269636520746f6f206c6f7700000000000000000000000000000000000000600082015250565b6000611d76600d83611cc3565b9150611d8182611d40565b602082019050919050565b60006020820190508181036000830152611da581611d69565b9050919050565b7f53616c65206c696d697420657863656564000000000000000000000000000000600082015250565b6000611de2601183611cc3565b9150611ded82611dac565b602082019050919050565b60006020820190508181036000830152611e1181611dd5565b9050919050565b6000606082019050611e2d6000830186611a49565b611e3a60208301856118a5565b611e4760408301846118a5565b949350505050565b7f4e6f742054474520796574000000000000000000000000000000000000000000600082015250565b6000611e85600b83611cc3565b9150611e9082611e4f565b602082019050919050565b60006020820190508181036000830152611eb481611e78565b9050919050565b7f4e6f7468696e6720746f20776974686472617700000000000000000000000000600082015250565b6000611ef1601383611cc3565b9150611efc82611ebb565b602082019050919050565b60006020820190508181036000830152611f2081611ee4565b9050919050565b7f45786365656465642062616c616e636500000000000000000000000000000000600082015250565b6000611f5d601083611cc3565b9150611f6882611f27565b602082019050919050565b60006020820190508181036000830152611f8c81611f50565b9050919050565b6000604082019050611fa86000830185611a49565b611fb560208301846118a5565b9392505050565b611fc581611b1a565b8114611fd057600080fd5b50565b600081519050611fe281611fbc565b92915050565b600060208284031215611ffe57611ffd6118cf565b5b600061200c84828501611fd3565b91505092915050565b7f416464726573732063616e6e6f74206265203000000000000000000000000000600082015250565b600061204b601383611cc3565b915061205682612015565b602082019050919050565b6000602082019050818103600083015261207a8161203e565b9050919050565b7f4e6f7420656c696769626c6520746f2062757900000000000000000000000000600082015250565b60006120b7601383611cc3565b91506120c282612081565b602082019050919050565b600060208201905081810360008301526120e6816120aa565b9050919050565b7f42757920616d6f756e7420746f6f206c6f770000000000000000000000000000600082015250565b6000612123601283611cc3565b915061212e826120ed565b602082019050919050565b6000602082019050818103600083015261215281612116565b9050919050565b7f42757920616d6f756e7420657863656564206c696d6974000000000000000000600082015250565b600061218f601783611cc3565b915061219a82612159565b602082019050919050565b600060208201905081810360008301526121be81612182565b9050919050565b60006060820190506121da6000830186611a49565b6121e76020830185611a49565b6121f460408301846118a5565b949350505050565b7f4f776e61626c653a206e6577206f776e657220697320746865207a65726f206160008201527f6464726573730000000000000000000000000000000000000000000000000000602082015250565b6000612258602683611cc3565b9150612263826121fc565b604082019050919050565b600060208201905081810360008301526122878161224b565b905091905056fea2646970667358221220a31e2b506b9e2d1e648e48165a0155edd44cf668e140fdf166aac683fbadb63f64736f6c634300080c0033",
  "immutableReferences": {},
  "source": "// SPDX-License-Identifier: MIT\npragma solidity 0.8.12;\n\nimport \"@openzeppelin/contracts/token/ERC20/IERC20.sol\";\nimport \"@openzeppelin/contracts/access/Ownable.sol\";\n\ncontract PrivateSale is Ownable {\n\n    IERC20 public aniToken;\n    IERC20 public usdToken;\n    uint256 public totalSale;\n    uint256 public privateSaleTimestamp;\n    uint256 public tgeTimestamp;\n    address public wallet;\n\n    // USD bought\n    mapping(address => uint256) public userBoughtAmount;\n    // AniToken to receive\n    mapping(address => uint256) public userWallet;\n    // Withdrawn AniToken\n    mapping(address => uint256) public userWithdrawn;\n    mapping(address => uint256) public userLastWithdrawn;\n\n    uint256 public constant MIN_BUY = 100 * (10 ** 18);\n    uint256 public constant MAX_BUY = 1500 * (10 ** 18);\n    uint256 public constant LIMIT_SALE = 20000000 * (10 ** 18);\n    uint256 public constant STEPUP_PERIOD = 5 * 60;//1 * 60 * 60 * 24; // 3 days\n    uint256 public constant TOTAL_STEP = 11; // 1 = single price\n    uint256 public constant PRICE_PER_STEP = 1 * (10 ** 14); // 0.0001\n    uint256 public constant VESTING_PERIOD = 60 * 60;//8 * 30 * 60 * 60 * 24; // 8 months\n    uint256 public constant START_PRICE = 45 * (10 ** 14); // 0.0045\n\n    event OnBuy(address from, uint256 usdAmount, uint256 aniAmount);\n    event OnWithdraw(address to, uint256 amount, uint256 amountLeft);\n\n    constructor(address _wallet, IERC20 _usdToken, uint256 _privateSaleTimestamp, uint256 _tgeTimestamp){\n        require(_privateSaleTimestamp > block.timestamp, \"Invalid Sale Time\");\n        require(_tgeTimestamp > block.timestamp, \"Invalid TGETime\");\n        require(_tgeTimestamp > _privateSaleTimestamp, \"TGE must be after private sale\");\n        require(_wallet != address(0), \"Wallet cannot be 0\");\n        wallet = _wallet;\n        usdToken = _usdToken;\n        privateSaleTimestamp = _privateSaleTimestamp;\n        tgeTimestamp = _tgeTimestamp;\n    }\n\n    function setAniToken(IERC20 _aniToken) external onlyOwner {\n        require(address(_aniToken) != address(0), \"Address cannot be 0\");\n        aniToken = _aniToken;\n    }\n\n    function setWallet(address _wallet) external onlyOwner {\n        require(_wallet != address(0), \"Address cannot be 0\");\n        wallet = _wallet;\n    }\n\n    function setPrivateSaleTimestamp(uint256 _privateSaleTimestamp) external onlyOwner {\n        //require(_privateSaleTimestamp > block.timestamp, \"Current time reach\");\n        //require(block.timestamp <= privateSaleTimestamp, \"Can't change privateSaleTime anymore\");\n        //require(_privateSaleTimestamp + (STEPUP_PERIOD * TOTAL_STEP) < tgeTimestamp, \"PrivateSale must end before TGE\");\n        privateSaleTimestamp = _privateSaleTimestamp;\n    }\n\n    function setTGETimestamp(uint256 _tgeTimestamp) external onlyOwner {\n        //require(_tgeTimestamp > block.timestamp, \"Current time reach\");\n        //require(block.timestamp <= tgeTimestamp, \"Can't change TGETime anymore\");\n        //require(_tgeTimestamp > privateSaleTimestamp + (STEPUP_PERIOD * TOTAL_STEP), \"TGE must after privateSale end\");\n        tgeTimestamp = _tgeTimestamp;\n    }\n\n    function getCurrentPrice() public view returns (uint256) {\n        uint256 currentPrice;\n        uint256 stepPassed;\n        if (block.timestamp < privateSaleTimestamp) {\n            currentPrice = START_PRICE;\n        } else {\n            if ((block.timestamp - privateSaleTimestamp) / STEPUP_PERIOD >= TOTAL_STEP) {\n                stepPassed = TOTAL_STEP - 1;\n            } else {\n                stepPassed = (block.timestamp - privateSaleTimestamp) / STEPUP_PERIOD;\n            }\n            currentPrice = START_PRICE + (stepPassed * PRICE_PER_STEP);\n        }\n        // Mock 0.0045\n        return currentPrice;\n    }\n\n    function quoteTokenAmount(uint256 _usdAmount) public view returns (uint256) {\n        uint256 quoteAmount = _usdAmount * (10 ** 18) / getCurrentPrice();\n        return quoteAmount;\n    }\n\n    function addBuy(address _wallet, uint256 _usdAmount, uint256 _price) external onlyOwner {\n        require(_price >= START_PRICE, \"price too low\");\n        uint256 aniAmount = (_usdAmount * (10 ** 18) / _price);\n        require(totalSale + aniAmount <= LIMIT_SALE, \"Sale limit exceed\");\n        userWallet[_wallet] += aniAmount;\n        userBoughtAmount[_wallet] += _usdAmount;\n        totalSale += aniAmount;\n        emit OnBuy(_wallet, _usdAmount, aniAmount);\n    }\n\n    // USD 18 Decimals\n    function buy(uint256 _usdAmount) external {\n        require(isEligibleToBuy(), \"Not eligible to buy\");\n        uint256 currentUSDAmount = userBoughtAmount[_msgSender()];\n        require(currentUSDAmount + _usdAmount >= MIN_BUY, \"Buy amount too low\");\n        require(currentUSDAmount + _usdAmount <= MAX_BUY, \"Buy amount exceed limit\");\n        //uint256 aniAmount = (_usdAmount * (10 ** 18) / getCurrentPrice());\n        uint256 aniAmount = quoteTokenAmount(_usdAmount);\n        require(totalSale + aniAmount <= LIMIT_SALE, \"Sale limit exceed\");\n        usdToken.transferFrom(_msgSender(), wallet, _usdAmount);\n        userWallet[_msgSender()] += aniAmount;\n        userBoughtAmount[_msgSender()] += _usdAmount;\n        totalSale += aniAmount;\n        emit OnBuy(_msgSender(), _usdAmount, aniAmount);\n    }\n\n    function withdraw() external {\n        require(block.timestamp >= tgeTimestamp, \"Not TGE yet\");\n        uint256 withdrawAmount = getWithdrawAmount();\n        require(withdrawAmount > 0, \"Nothing to withdraw\");\n        uint256 withdrawnBefore = userWithdrawn[_msgSender()];\n        uint256 withdrawnAfter = withdrawnBefore + withdrawAmount;\n        uint256 totalBalance = userWallet[_msgSender()];\n        require(withdrawnAfter <= totalBalance, \"Exceeded balance\");\n        userWithdrawn[_msgSender()] = withdrawnAfter;\n        aniToken.transfer(_msgSender(), withdrawAmount);\n        emit OnWithdraw(_msgSender(), withdrawAmount, totalBalance - withdrawnAfter);\n    }\n\n    function getWithdrawAmount() public view returns (uint256) {\n        uint256 releasingTGE = 20 * userWallet[_msgSender()] / 100;\n        uint256 afterTGE = userWallet[_msgSender()] - releasingTGE;\n        uint256 lastWithdraw;\n        if (userLastWithdrawn[_msgSender()] == 0) {\n            lastWithdraw = tgeTimestamp;\n        } else {\n            lastWithdraw = userLastWithdrawn[_msgSender()];\n        }\n        uint256 withdrawVesting = (block.timestamp - lastWithdraw) * afterTGE / VESTING_PERIOD;\n        uint256 withdrawAmount;\n        if (userWithdrawn[_msgSender()] == 0) {\n            withdrawAmount = releasingTGE + withdrawVesting;\n        } else {\n            withdrawAmount = withdrawVesting;\n        }\n        return withdrawAmount;\n    }\n\n    function isEligibleToBuy() public view returns (bool){\n        uint256 buyUntil = privateSaleTimestamp + (STEPUP_PERIOD * TOTAL_STEP);\n        return block.timestamp < tgeTimestamp && block.timestamp < buyUntil && block.timestamp >= privateSaleTimestamp;\n    }\n}\n",
  "sourcePath": "/Users/poripuri/Documents/Dev/AniFi/contract_new/shin-keiyaku/contracts/PrivateSale.sol",
  "compiler": {
    "name": "solc",
    "version": "0.8.12+commit.f00d7308.Emscripten.clang"
  },
  "schemaVersion": "3.4.2",
  "updatedAt": "2022-09-25T17:37:17.250Z",
  "devdoc": {
    "kind": "dev",
    "methods": {
      "owner()": {
        "details": "Returns the address of the current owner."
      },
      "renounceOwnership()": {
        "details": "Leaves the contract without owner. It will not be possible to call `onlyOwner` functions anymore. Can only be called by the current owner. NOTE: Renouncing ownership will leave the contract without an owner, thereby removing any functionality that is only available to the owner."
      },
      "transferOwnership(address)": {
        "details": "Transfers ownership of the contract to a new account (`newOwner`). Can only be called by the current owner."
      }
    },
    "version": 1
  },
  "userdoc": {
    "kind": "user",
    "methods": {},
    "version": 1
  }
}