{
  "contractName": "Staking",
  "abi": [
    {
      "inputs": [
        {
          "internalType": "address",
          "name": "_token",
          "type": "address"
        }
      ],
      "stateMutability": "nonpayable",
      "type": "constructor"
    },
    {
      "anonymous": false,
      "inputs": [
        {
          "indexed": false,
          "internalType": "uint256",
          "name": "amount",
          "type": "uint256"
        }
      ],
      "name": "OnClaimReward",
      "type": "event"
    },
    {
      "anonymous": false,
      "inputs": [
        {
          "indexed": false,
          "internalType": "uint256",
          "name": "amount",
          "type": "uint256"
        },
        {
          "indexed": false,
          "internalType": "uint256",
          "name": "period",
          "type": "uint256"
        },
        {
          "indexed": false,
          "internalType": "uint256",
          "name": "id",
          "type": "uint256"
        }
      ],
      "name": "OnEnterStaking",
      "type": "event"
    },
    {
      "anonymous": false,
      "inputs": [
        {
          "indexed": false,
          "internalType": "uint256",
          "name": "amount",
          "type": "uint256"
        }
      ],
      "name": "OnHarvest",
      "type": "event"
    },
    {
      "anonymous": false,
      "inputs": [
        {
          "indexed": false,
          "internalType": "uint256",
          "name": "time",
          "type": "uint256"
        }
      ],
      "name": "OnSetEndReward",
      "type": "event"
    },
    {
      "anonymous": false,
      "inputs": [
        {
          "indexed": false,
          "internalType": "uint256",
          "name": "time",
          "type": "uint256"
        }
      ],
      "name": "OnSetEndStaking",
      "type": "event"
    },
    {
      "anonymous": false,
      "inputs": [
        {
          "indexed": false,
          "internalType": "uint256",
          "name": "amount",
          "type": "uint256"
        }
      ],
      "name": "OnSetMaxDays",
      "type": "event"
    },
    {
      "anonymous": false,
      "inputs": [
        {
          "indexed": false,
          "internalType": "uint256",
          "name": "amount",
          "type": "uint256"
        }
      ],
      "name": "OnSetMaxMultiple",
      "type": "event"
    },
    {
      "anonymous": false,
      "inputs": [
        {
          "indexed": false,
          "internalType": "uint256",
          "name": "amount",
          "type": "uint256"
        }
      ],
      "name": "OnSetMinDays",
      "type": "event"
    },
    {
      "anonymous": false,
      "inputs": [
        {
          "indexed": false,
          "internalType": "uint256",
          "name": "amount",
          "type": "uint256"
        }
      ],
      "name": "OnSetMinMultiple",
      "type": "event"
    },
    {
      "anonymous": false,
      "inputs": [
        {
          "indexed": false,
          "internalType": "uint256",
          "name": "amount",
          "type": "uint256"
        }
      ],
      "name": "OnSetRewardPerYear",
      "type": "event"
    },
    {
      "anonymous": false,
      "inputs": [
        {
          "indexed": false,
          "internalType": "uint256",
          "name": "period",
          "type": "uint256"
        }
      ],
      "name": "OnSetRewardVesting",
      "type": "event"
    },
    {
      "anonymous": false,
      "inputs": [
        {
          "indexed": false,
          "internalType": "uint256",
          "name": "time",
          "type": "uint256"
        }
      ],
      "name": "OnSetStartReward",
      "type": "event"
    },
    {
      "anonymous": false,
      "inputs": [
        {
          "indexed": false,
          "internalType": "uint256",
          "name": "time",
          "type": "uint256"
        }
      ],
      "name": "OnSetStartStaking",
      "type": "event"
    },
    {
      "anonymous": false,
      "inputs": [
        {
          "indexed": false,
          "internalType": "uint256",
          "name": "amount",
          "type": "uint256"
        },
        {
          "indexed": false,
          "internalType": "uint256",
          "name": "id",
          "type": "uint256"
        }
      ],
      "name": "OnUnlock",
      "type": "event"
    },
    {
      "anonymous": false,
      "inputs": [
        {
          "indexed": true,
          "internalType": "address",
          "name": "previousOwner",
          "type": "address"
        },
        {
          "indexed": true,
          "internalType": "address",
          "name": "newOwner",
          "type": "address"
        }
      ],
      "name": "OwnershipTransferred",
      "type": "event"
    },
    {
      "inputs": [],
      "name": "endReward",
      "outputs": [
        {
          "internalType": "uint256",
          "name": "",
          "type": "uint256"
        }
      ],
      "stateMutability": "view",
      "type": "function"
    },
    {
      "inputs": [],
      "name": "endStaking",
      "outputs": [
        {
          "internalType": "uint256",
          "name": "",
          "type": "uint256"
        }
      ],
      "stateMutability": "view",
      "type": "function"
    },
    {
      "inputs": [],
      "name": "maxDays",
      "outputs": [
        {
          "internalType": "uint256",
          "name": "",
          "type": "uint256"
        }
      ],
      "stateMutability": "view",
      "type": "function"
    },
    {
      "inputs": [],
      "name": "maxMultiply",
      "outputs": [
        {
          "internalType": "uint256",
          "name": "",
          "type": "uint256"
        }
      ],
      "stateMutability": "view",
      "type": "function"
    },
    {
      "inputs": [],
      "name": "minDays",
      "outputs": [
        {
          "internalType": "uint256",
          "name": "",
          "type": "uint256"
        }
      ],
      "stateMutability": "view",
      "type": "function"
    },
    {
      "inputs": [],
      "name": "minMultiply",
      "outputs": [
        {
          "internalType": "uint256",
          "name": "",
          "type": "uint256"
        }
      ],
      "stateMutability": "view",
      "type": "function"
    },
    {
      "inputs": [],
      "name": "owner",
      "outputs": [
        {
          "internalType": "address",
          "name": "",
          "type": "address"
        }
      ],
      "stateMutability": "view",
      "type": "function"
    },
    {
      "inputs": [],
      "name": "renounceOwnership",
      "outputs": [],
      "stateMutability": "nonpayable",
      "type": "function"
    },
    {
      "inputs": [],
      "name": "rewardPerYear",
      "outputs": [
        {
          "internalType": "uint256",
          "name": "",
          "type": "uint256"
        }
      ],
      "stateMutability": "view",
      "type": "function"
    },
    {
      "inputs": [],
      "name": "rewardVestingPeriod",
      "outputs": [
        {
          "internalType": "uint256",
          "name": "",
          "type": "uint256"
        }
      ],
      "stateMutability": "view",
      "type": "function"
    },
    {
      "inputs": [],
      "name": "startReward",
      "outputs": [
        {
          "internalType": "uint256",
          "name": "",
          "type": "uint256"
        }
      ],
      "stateMutability": "view",
      "type": "function"
    },
    {
      "inputs": [],
      "name": "startStaking",
      "outputs": [
        {
          "internalType": "uint256",
          "name": "",
          "type": "uint256"
        }
      ],
      "stateMutability": "view",
      "type": "function"
    },
    {
      "inputs": [],
      "name": "token",
      "outputs": [
        {
          "internalType": "address",
          "name": "",
          "type": "address"
        }
      ],
      "stateMutability": "view",
      "type": "function"
    },
    {
      "inputs": [],
      "name": "totalStakedAmount",
      "outputs": [
        {
          "internalType": "uint256",
          "name": "",
          "type": "uint256"
        }
      ],
      "stateMutability": "view",
      "type": "function"
    },
    {
      "inputs": [],
      "name": "totalWeightedStakedAmount",
      "outputs": [
        {
          "internalType": "uint256",
          "name": "",
          "type": "uint256"
        }
      ],
      "stateMutability": "view",
      "type": "function"
    },
    {
      "inputs": [
        {
          "internalType": "address",
          "name": "newOwner",
          "type": "address"
        }
      ],
      "name": "transferOwnership",
      "outputs": [],
      "stateMutability": "nonpayable",
      "type": "function"
    },
    {
      "inputs": [
        {
          "internalType": "address",
          "name": "",
          "type": "address"
        }
      ],
      "name": "userLastClaim",
      "outputs": [
        {
          "internalType": "uint256",
          "name": "",
          "type": "uint256"
        }
      ],
      "stateMutability": "view",
      "type": "function"
    },
    {
      "inputs": [
        {
          "internalType": "address",
          "name": "",
          "type": "address"
        }
      ],
      "name": "userLastCollect",
      "outputs": [
        {
          "internalType": "uint256",
          "name": "",
          "type": "uint256"
        }
      ],
      "stateMutability": "view",
      "type": "function"
    },
    {
      "inputs": [
        {
          "internalType": "address",
          "name": "",
          "type": "address"
        }
      ],
      "name": "userReward",
      "outputs": [
        {
          "internalType": "uint256",
          "name": "",
          "type": "uint256"
        }
      ],
      "stateMutability": "view",
      "type": "function"
    },
    {
      "inputs": [
        {
          "internalType": "address",
          "name": "",
          "type": "address"
        }
      ],
      "name": "userRewardVesting",
      "outputs": [
        {
          "internalType": "uint256",
          "name": "",
          "type": "uint256"
        }
      ],
      "stateMutability": "view",
      "type": "function"
    },
    {
      "inputs": [
        {
          "internalType": "address",
          "name": "",
          "type": "address"
        },
        {
          "internalType": "uint256",
          "name": "",
          "type": "uint256"
        }
      ],
      "name": "userStakedAmount",
      "outputs": [
        {
          "internalType": "uint256",
          "name": "",
          "type": "uint256"
        }
      ],
      "stateMutability": "view",
      "type": "function"
    },
    {
      "inputs": [
        {
          "internalType": "address",
          "name": "",
          "type": "address"
        },
        {
          "internalType": "uint256",
          "name": "",
          "type": "uint256"
        }
      ],
      "name": "userStakedPeriod",
      "outputs": [
        {
          "internalType": "uint256",
          "name": "",
          "type": "uint256"
        }
      ],
      "stateMutability": "view",
      "type": "function"
    },
    {
      "inputs": [
        {
          "internalType": "address",
          "name": "",
          "type": "address"
        },
        {
          "internalType": "uint256",
          "name": "",
          "type": "uint256"
        }
      ],
      "name": "userStakedStart",
      "outputs": [
        {
          "internalType": "uint256",
          "name": "",
          "type": "uint256"
        }
      ],
      "stateMutability": "view",
      "type": "function"
    },
    {
      "inputs": [
        {
          "internalType": "address",
          "name": "",
          "type": "address"
        }
      ],
      "name": "userStakedTime",
      "outputs": [
        {
          "internalType": "uint256",
          "name": "",
          "type": "uint256"
        }
      ],
      "stateMutability": "view",
      "type": "function"
    },
    {
      "inputs": [
        {
          "internalType": "address",
          "name": "",
          "type": "address"
        }
      ],
      "name": "userTotalStakedAmount",
      "outputs": [
        {
          "internalType": "uint256",
          "name": "",
          "type": "uint256"
        }
      ],
      "stateMutability": "view",
      "type": "function"
    },
    {
      "inputs": [
        {
          "internalType": "address",
          "name": "",
          "type": "address"
        }
      ],
      "name": "userTotalWeightedStakedAmount",
      "outputs": [
        {
          "internalType": "uint256",
          "name": "",
          "type": "uint256"
        }
      ],
      "stateMutability": "view",
      "type": "function"
    },
    {
      "inputs": [
        {
          "internalType": "uint256",
          "name": "_min",
          "type": "uint256"
        }
      ],
      "name": "setMinDays",
      "outputs": [],
      "stateMutability": "nonpayable",
      "type": "function"
    },
    {
      "inputs": [
        {
          "internalType": "uint256",
          "name": "_max",
          "type": "uint256"
        }
      ],
      "name": "setMaxDays",
      "outputs": [],
      "stateMutability": "nonpayable",
      "type": "function"
    },
    {
      "inputs": [
        {
          "internalType": "uint256",
          "name": "_min",
          "type": "uint256"
        }
      ],
      "name": "setMinMultiple",
      "outputs": [],
      "stateMutability": "nonpayable",
      "type": "function"
    },
    {
      "inputs": [
        {
          "internalType": "uint256",
          "name": "_max",
          "type": "uint256"
        }
      ],
      "name": "setMaxMultiple",
      "outputs": [],
      "stateMutability": "nonpayable",
      "type": "function"
    },
    {
      "inputs": [
        {
          "internalType": "uint256",
          "name": "_amount",
          "type": "uint256"
        }
      ],
      "name": "setRewardPerYear",
      "outputs": [],
      "stateMutability": "nonpayable",
      "type": "function"
    },
    {
      "inputs": [
        {
          "internalType": "uint256",
          "name": "_period",
          "type": "uint256"
        }
      ],
      "name": "setRewardVesting",
      "outputs": [],
      "stateMutability": "nonpayable",
      "type": "function"
    },
    {
      "inputs": [
        {
          "internalType": "uint256",
          "name": "_time",
          "type": "uint256"
        }
      ],
      "name": "setStartReward",
      "outputs": [],
      "stateMutability": "nonpayable",
      "type": "function"
    },
    {
      "inputs": [
        {
          "internalType": "uint256",
          "name": "_time",
          "type": "uint256"
        }
      ],
      "name": "setEndReward",
      "outputs": [],
      "stateMutability": "nonpayable",
      "type": "function"
    },
    {
      "inputs": [
        {
          "internalType": "uint256",
          "name": "_time",
          "type": "uint256"
        }
      ],
      "name": "setStartStaking",
      "outputs": [],
      "stateMutability": "nonpayable",
      "type": "function"
    },
    {
      "inputs": [
        {
          "internalType": "uint256",
          "name": "_time",
          "type": "uint256"
        }
      ],
      "name": "setEndStaking",
      "outputs": [],
      "stateMutability": "nonpayable",
      "type": "function"
    },
    {
      "inputs": [
        {
          "internalType": "uint256",
          "name": "_amount",
          "type": "uint256"
        },
        {
          "internalType": "uint256",
          "name": "_period",
          "type": "uint256"
        }
      ],
      "name": "enterStaking",
      "outputs": [],
      "stateMutability": "nonpayable",
      "type": "function"
    },
    {
      "inputs": [],
      "name": "harvest",
      "outputs": [],
      "stateMutability": "nonpayable",
      "type": "function"
    },
    {
      "inputs": [
        {
          "internalType": "address",
          "name": "_adr",
          "type": "address"
        }
      ],
      "name": "rewardPending",
      "outputs": [
        {
          "internalType": "uint256",
          "name": "",
          "type": "uint256"
        }
      ],
      "stateMutability": "view",
      "type": "function"
    },
    {
      "inputs": [],
      "name": "claimReward",
      "outputs": [],
      "stateMutability": "nonpayable",
      "type": "function"
    },
    {
      "inputs": [
        {
          "internalType": "uint256",
          "name": "_id",
          "type": "uint256"
        }
      ],
      "name": "unlockStaking",
      "outputs": [],
      "stateMutability": "nonpayable",
      "type": "function"
    },
    {
      "inputs": [
        {
          "internalType": "address",
          "name": "_adr",
          "type": "address"
        }
      ],
      "name": "getClaimable",
      "outputs": [
        {
          "internalType": "uint256",
          "name": "",
          "type": "uint256"
        }
      ],
      "stateMutability": "view",
      "type": "function"
    },
    {
      "inputs": [
        {
          "internalType": "address",
          "name": "_adr",
          "type": "address"
        },
        {
          "internalType": "uint256",
          "name": "_id",
          "type": "uint256"
        }
      ],
      "name": "getMultiple",
      "outputs": [
        {
          "internalType": "uint256",
          "name": "",
          "type": "uint256"
        }
      ],
      "stateMutability": "view",
      "type": "function"
    },
    {
      "inputs": [
        {
          "internalType": "address",
          "name": "_adr",
          "type": "address"
        },
        {
          "internalType": "uint256",
          "name": "_id",
          "type": "uint256"
        }
      ],
      "name": "getSingleReward",
      "outputs": [
        {
          "internalType": "uint256",
          "name": "",
          "type": "uint256"
        }
      ],
      "stateMutability": "view",
      "type": "function"
    },
    {
      "inputs": [
        {
          "internalType": "address",
          "name": "_adr",
          "type": "address"
        },
        {
          "internalType": "uint256",
          "name": "_id",
          "type": "uint256"
        }
      ],
      "name": "getLockedStatus",
      "outputs": [
        {
          "internalType": "uint256",
          "name": "",
          "type": "uint256"
        }
      ],
      "stateMutability": "view",
      "type": "function"
    }
  ],
  "bytecode": "0x60a06040523480156200001157600080fd5b506040516200383a3803806200383a833981810160405281019062000037919062000269565b620000576200004b6200018660201b60201c565b6200018e60201b60201c565b600073ffffffffffffffffffffffffffffffffffffffff168173ffffffffffffffffffffffffffffffffffffffff161415620000ca576040517f08c379a0000000000000000000000000000000000000000000000000000000008152600401620000c190620002c2565b60405180910390fd5b8073ffffffffffffffffffffffffffffffffffffffff1660808173ffffffffffffffffffffffffffffffffffffffff1660601b815250506213c6806001819055506276a700600281905550614e20600381905550619c4060048190555062093a806005819055506a07dbb4082c9ad179800000600681905550426007819055506276a700426200015b9190620002f5565b600881905550426009819055506276a70042620001799190620002f5565b600a819055505062000407565b600033905090565b60008060009054906101000a900473ffffffffffffffffffffffffffffffffffffffff169050816000806101000a81548173ffffffffffffffffffffffffffffffffffffffff021916908373ffffffffffffffffffffffffffffffffffffffff1602179055508173ffffffffffffffffffffffffffffffffffffffff168173ffffffffffffffffffffffffffffffffffffffff167f8be0079c531659141344cd1fd0a4f28419497f9722a3daafe3b4186f6b6457e060405160405180910390a35050565b6000815190506200026381620003ed565b92915050565b600060208284031215620002825762000281620003bf565b5b6000620002928482850162000252565b91505092915050565b6000620002aa600c83620002e4565b9150620002b782620003c4565b602082019050919050565b60006020820190508181036000830152620002dd816200029b565b9050919050565b600082825260208201905092915050565b6000620003028262000386565b91506200030f8362000386565b9250827fffffffffffffffffffffffffffffffffffffffffffffffffffffffffffffffff0382111562000347576200034662000390565b5b828201905092915050565b60006200035f8262000366565b9050919050565b600073ffffffffffffffffffffffffffffffffffffffff82169050919050565b6000819050919050565b7f4e487b7100000000000000000000000000000000000000000000000000000000600052601160045260246000fd5b600080fd5b7f5a65726f20616464726573730000000000000000000000000000000000000000600082015250565b620003f88162000352565b81146200040457600080fd5b50565b60805160601c6133ff6200043b600039600081816110d5015281816118b1015281816121a801526128e401526133ff6000f3fe608060405234801561001057600080fd5b506004361061027e5760003560e01c80638bd5080e1161015c578063b9204221116100ce578063de2b3bb911610087578063de2b3bb9146107bf578063decac4f5146107db578063e8f5fb1c146107f9578063ed4d64af14610817578063f2fde38b14610847578063fc0c546a146108635761027e565b8063b9204221146106db578063bb0acd45146106f7578063c1e8bacb14610727578063ceedec4014610743578063cf95b0471461075f578063d4a881821461078f5761027e565b8063a583024b11610120578063a583024b14610605578063af72d38e14610635578063b065f35414610665578063b13f114914610683578063b51e9b79146106b3578063b88a802f146106d15761027e565b80638bd5080e146105755780638da5cb5b14610593578063990b466c146105b15780639be31633146105cd578063a1bfaa67146105e95761027e565b806335acb5da116101f557806364fca472116101b957806364fca472146104c55780636dbc96cf146104e1578063715018a61461051157806371b0cbfa1461051b578063746c8ae11461053957806384deed7c146105575761027e565b806335acb5da1461040d578063425a51771461043d5780634641257d1461046d578063567e98f9146104775780635ed43cf1146104955761027e565b8063201bb19b11610247578063201bb19b1461035f578063244db55d1461037d5780632507190a1461039957806329ad27d7146103b75780632cb7f4e8146103d55780632e93f4cc146103f15761027e565b80620a74be146102835780630ac329f5146102b357806311de9057146102e35780631357587b1461031357806316a6d94a14610343575b600080fd5b61029d60048036038101906102989190612ba6565b610881565b6040516102aa9190612fa1565b60405180910390f35b6102cd60048036038101906102c89190612bd3565b610899565b6040516102da9190612fa1565b60405180910390f35b6102fd60048036038101906102f89190612ba6565b6108be565b60405161030a9190612fa1565b60405180910390f35b61032d60048036038101906103289190612bd3565b6108d6565b60405161033a9190612fa1565b60405180910390f35b61035d60048036038101906103589190612c6d565b610a38565b005b610367611217565b6040516103749190612fa1565b60405180910390f35b61039760048036038101906103929190612c40565b61121d565b005b6103a16112da565b6040516103ae9190612fa1565b60405180910390f35b6103bf6112e0565b6040516103cc9190612fa1565b60405180910390f35b6103ef60048036038101906103ea9190612c40565b6112e6565b005b61040b60048036038101906104069190612c40565b6113a3565b005b61042760048036038101906104229190612ba6565b611460565b6040516104349190612fa1565b60405180910390f35b61045760048036038101906104529190612ba6565b611478565b6040516104649190612fa1565b60405180910390f35b610475611490565b005b61047f611517565b60405161048c9190612fa1565b60405180910390f35b6104af60048036038101906104aa9190612ba6565b61151d565b6040516104bc9190612fa1565b60405180910390f35b6104df60048036038101906104da9190612c40565b611535565b005b6104fb60048036038101906104f69190612bd3565b611600565b6040516105089190612fa1565b60405180910390f35b610519611625565b005b6105236116ad565b6040516105309190612fa1565b60405180910390f35b6105416116b3565b60405161054e9190612fa1565b60405180910390f35b61055f6116b9565b60405161056c9190612fa1565b60405180910390f35b61057d6116bf565b60405161058a9190612fa1565b60405180910390f35b61059b6116c5565b6040516105a89190612e06565b60405180910390f35b6105cb60048036038101906105c69190612c40565b6116ee565b005b6105e760048036038101906105e29190612c40565b6117b9565b005b61060360048036038101906105fe9190612c40565b611dcf565b005b61061f600480360381019061061a9190612ba6565b611e9a565b60405161062c9190612fa1565b60405180910390f35b61064f600480360381019061064a9190612bd3565b611fd4565b60405161065c9190612fa1565b60405180910390f35b61066d612104565b60405161067a9190612fa1565b60405180910390f35b61069d60048036038101906106989190612bd3565b61210a565b6040516106aa9190612fa1565b60405180910390f35b6106bb61212f565b6040516106c89190612fa1565b60405180910390f35b6106d9612135565b005b6106f560048036038101906106f09190612c40565b6122e0565b005b610711600480360381019061070c9190612ba6565b61239d565b60405161071e9190612fa1565b60405180910390f35b610741600480360381019061073c9190612c40565b6123b5565b005b61075d60048036038101906107589190612c40565b612480565b005b61077960048036038101906107749190612ba6565b61253d565b6040516107869190612fa1565b60405180910390f35b6107a960048036038101906107a49190612ba6565b61265b565b6040516107b69190612fa1565b60405180910390f35b6107d960048036038101906107d49190612c40565b612673565b005b6107e3612730565b6040516107f09190612fa1565b60405180910390f35b610801612736565b60405161080e9190612fa1565b60405180910390f35b610831600480360381019061082c9190612bd3565b61273c565b60405161083e9190612fa1565b60405180910390f35b610861600480360381019061085c9190612ba6565b6127ea565b005b61086b6128e2565b6040516108789190612e06565b60405180910390f35b60146020528060005260406000206000915090505481565b600d602052816000526040600020602052806000526040600020600091509150505481565b60166020528060005260406000206000915090505481565b6000806000600d60008673ffffffffffffffffffffffffffffffffffffffff1673ffffffffffffffffffffffffffffffffffffffff168152602001908152602001600020600085815260200190815260200160002054141561093b5760009050610a2e565b6127106301e13380600c5461095091906130b4565b61095a91906130b4565b600654601260008773ffffffffffffffffffffffffffffffffffffffff1673ffffffffffffffffffffffffffffffffffffffff16815260200190815260200160002054426109a8919061310e565b6109b2878761273c565b600d60008973ffffffffffffffffffffffffffffffffffffffff1673ffffffffffffffffffffffffffffffffffffffff168152602001908152602001600020600088815260200190815260200160002054610a0d91906130b4565b610a1791906130b4565b610a2191906130b4565b610a2b9190613083565b90505b8091505092915050565b600954421015610a7d576040517f08c379a0000000000000000000000000000000000000000000000000000000008152600401610a7490612f01565b60405180910390fd5b600a54421115610ac2576040517f08c379a0000000000000000000000000000000000000000000000000000000008152600401610ab990612e81565b60405180910390fd5b600154811015610b07576040517f08c379a0000000000000000000000000000000000000000000000000000000008152600401610afe90612ee1565b60405180910390fd5b600254811115610b4c576040517f08c379a0000000000000000000000000000000000000000000000000000000008152600401610b4390612f81565b60405180910390fd5b600060166000610b5a612906565b73ffffffffffffffffffffffffffffffffffffffff1673ffffffffffffffffffffffffffffffffffffffff168152602001908152602001600020541415610be7574260126000610ba8612906565b73ffffffffffffffffffffffffffffffffffffffff1673ffffffffffffffffffffffffffffffffffffffff168152602001908152602001600020819055505b600160166000610bf5612906565b73ffffffffffffffffffffffffffffffffffffffff1673ffffffffffffffffffffffffffffffffffffffff1681526020019081526020016000206000828254610c3e919061302d565b925050819055506000600d6000610c53612906565b73ffffffffffffffffffffffffffffffffffffffff1673ffffffffffffffffffffffffffffffffffffffff168152602001908152602001600020600060166000610c9b612906565b73ffffffffffffffffffffffffffffffffffffffff1673ffffffffffffffffffffffffffffffffffffffff1681526020019081526020016000205481526020019081526020016000205414610d25576040517f08c379a0000000000000000000000000000000000000000000000000000000008152600401610d1c90612f61565b60405180910390fd5b81600d6000610d32612906565b73ffffffffffffffffffffffffffffffffffffffff1673ffffffffffffffffffffffffffffffffffffffff168152602001908152602001600020600060166000610d7a612906565b73ffffffffffffffffffffffffffffffffffffffff1673ffffffffffffffffffffffffffffffffffffffff1681526020019081526020016000205481526020019081526020016000208190555080600f6000610dd4612906565b73ffffffffffffffffffffffffffffffffffffffff1673ffffffffffffffffffffffffffffffffffffffff168152602001908152602001600020600060166000610e1c612906565b73ffffffffffffffffffffffffffffffffffffffff1673ffffffffffffffffffffffffffffffffffffffff1681526020019081526020016000205481526020019081526020016000208190555042600e6000610e76612906565b73ffffffffffffffffffffffffffffffffffffffff1673ffffffffffffffffffffffffffffffffffffffff168152602001908152602001600020600060166000610ebe612906565b73ffffffffffffffffffffffffffffffffffffffff1673ffffffffffffffffffffffffffffffffffffffff168152602001908152602001600020548152602001908152602001600020819055508160106000610f18612906565b73ffffffffffffffffffffffffffffffffffffffff1673ffffffffffffffffffffffffffffffffffffffff1681526020019081526020016000206000828254610f61919061302d565b9250508190555081600b6000828254610f7a919061302d565b92505081905550612710610fdb610f8f612906565b60166000610f9b612906565b73ffffffffffffffffffffffffffffffffffffffff1673ffffffffffffffffffffffffffffffffffffffff1681526020019081526020016000205461273c565b83610fe691906130b4565b610ff09190613083565b60116000610ffc612906565b73ffffffffffffffffffffffffffffffffffffffff1673ffffffffffffffffffffffffffffffffffffffff1681526020019081526020016000206000828254611045919061302d565b925050819055506127106110a661105a612906565b60166000611066612906565b73ffffffffffffffffffffffffffffffffffffffff1673ffffffffffffffffffffffffffffffffffffffff1681526020019081526020016000205461273c565b836110b191906130b4565b6110bb9190613083565b600c60008282546110cc919061302d565b925050819055507f000000000000000000000000000000000000000000000000000000000000000073ffffffffffffffffffffffffffffffffffffffff166323b872dd611117612906565b30856040518463ffffffff1660e01b815260040161113793929190612e21565b602060405180830381600087803b15801561115157600080fd5b505af1158015611165573d6000803e3d6000fd5b505050506040513d601f19601f820116820180604052508101906111899190612c13565b5061119261290e565b7f587c8e35735edb8b67e90d06d9aada110d40954032fcb81fe88520ffad8c9a358282601660006111c1612906565b73ffffffffffffffffffffffffffffffffffffffff1673ffffffffffffffffffffffffffffffffffffffff1681526020019081526020016000205460405161120b93929190612fe5565b60405180910390a15050565b60065481565b611225612906565b73ffffffffffffffffffffffffffffffffffffffff166112436116c5565b73ffffffffffffffffffffffffffffffffffffffff1614611299576040517f08c379a000000000000000000000000000000000000000000000000000000000815260040161129090612f21565b60405180910390fd5b806005819055507f121f3ce007534e54457fb1c77df19778f20380a8b311c78fff65e1de0461fb62816040516112cf9190612fa1565b60405180910390a150565b600a5481565b60025481565b6112ee612906565b73ffffffffffffffffffffffffffffffffffffffff1661130c6116c5565b73ffffffffffffffffffffffffffffffffffffffff1614611362576040517f08c379a000000000000000000000000000000000000000000000000000000000815260040161135990612f21565b60405180910390fd5b806004819055507fe7f1194a7f912626c39295839e35332f67583dbf37566c48d71fa6cce3573248816040516113989190612fa1565b60405180910390a150565b6113ab612906565b73ffffffffffffffffffffffffffffffffffffffff166113c96116c5565b73ffffffffffffffffffffffffffffffffffffffff161461141f576040517f08c379a000000000000000000000000000000000000000000000000000000000815260040161141690612f21565b60405180910390fd5b806003819055507f0d0b349ae9112d28eae6f2c39b9861f072c573d7e033de7e8bbf95b5cda26885816040516114559190612fa1565b60405180910390a150565b60156020528060005260406000206000915090505481565b60136020528060005260406000206000915090505481565b61149861290e565b7f885705fa0cc04cbe01070c96f350aefa203579ee1f5e512d51331cd45c1ff36e601460006114c5612906565b73ffffffffffffffffffffffffffffffffffffffff1673ffffffffffffffffffffffffffffffffffffffff1681526020019081526020016000205460405161150d9190612fa1565b60405180910390a1565b600b5481565b60106020528060005260406000206000915090505481565b61153d612906565b73ffffffffffffffffffffffffffffffffffffffff1661155b6116c5565b73ffffffffffffffffffffffffffffffffffffffff16146115b1576040517f08c379a00000000000000000000000000000000000000000000000000000000081526004016115a890612f21565b60405180910390fd5b60095481116115bf57600080fd5b80600a819055507fb0f44445f2eb02af0c3ef5e22f7c1cc986f3694c9dc9f50c67a3b4827265d714816040516115f59190612fa1565b60405180910390a150565b600e602052816000526040600020602052806000526040600020600091509150505481565b61162d612906565b73ffffffffffffffffffffffffffffffffffffffff1661164b6116c5565b73ffffffffffffffffffffffffffffffffffffffff16146116a1576040517f08c379a000000000000000000000000000000000000000000000000000000000815260040161169890612f21565b60405180910390fd5b6116ab6000612aa3565b565b60095481565b60075481565b60035481565b60045481565b60008060009054906101000a900473ffffffffffffffffffffffffffffffffffffffff16905090565b6116f6612906565b73ffffffffffffffffffffffffffffffffffffffff166117146116c5565b73ffffffffffffffffffffffffffffffffffffffff161461176a576040517f08c379a000000000000000000000000000000000000000000000000000000000815260040161176190612f21565b60405180910390fd5b600854811161177857600080fd5b806007819055507f8a49433791607375dbbd7674588a72c950bf9defff4e45f35bfc2c162eb8dca8816040516117ae9190612fa1565b60405180910390a150565b60016117cc6117c6612906565b83611fd4565b1461180c576040517f08c379a000000000000000000000000000000000000000000000000000000000815260040161180390612ec1565b60405180910390fd5b6000600d600061181a612906565b73ffffffffffffffffffffffffffffffffffffffff1673ffffffffffffffffffffffffffffffffffffffff16815260200190815260200160002060008381526020019081526020016000205414156118a7576040517f08c379a000000000000000000000000000000000000000000000000000000000815260040161189e90612f41565b60405180910390fd5b6118af61290e565b7f000000000000000000000000000000000000000000000000000000000000000073ffffffffffffffffffffffffffffffffffffffff1663a9059cbb6118f3612906565b600d60006118ff612906565b73ffffffffffffffffffffffffffffffffffffffff1673ffffffffffffffffffffffffffffffffffffffff1681526020019081526020016000206000858152602001908152602001600020546040518363ffffffff1660e01b8152600401611968929190612e58565b602060405180830381600087803b15801561198257600080fd5b505af1158015611996573d6000803e3d6000fd5b505050506040513d601f19601f820116820180604052508101906119ba9190612c13565b50612710611a156119c9612906565b601660006119d5612906565b73ffffffffffffffffffffffffffffffffffffffff1673ffffffffffffffffffffffffffffffffffffffff1681526020019081526020016000205461273c565b600d6000611a21612906565b73ffffffffffffffffffffffffffffffffffffffff1673ffffffffffffffffffffffffffffffffffffffff168152602001908152602001600020600084815260200190815260200160002054611a7791906130b4565b611a819190613083565b600c6000828254611a92919061310e565b92505081905550612710611af3611aa7612906565b60166000611ab3612906565b73ffffffffffffffffffffffffffffffffffffffff1673ffffffffffffffffffffffffffffffffffffffff1681526020019081526020016000205461273c565b600d6000611aff612906565b73ffffffffffffffffffffffffffffffffffffffff1673ffffffffffffffffffffffffffffffffffffffff168152602001908152602001600020600084815260200190815260200160002054611b5591906130b4565b611b5f9190613083565b60116000611b6b612906565b73ffffffffffffffffffffffffffffffffffffffff1673ffffffffffffffffffffffffffffffffffffffff1681526020019081526020016000206000828254611bb4919061310e565b92505081905550600d6000611bc7612906565b73ffffffffffffffffffffffffffffffffffffffff1673ffffffffffffffffffffffffffffffffffffffff168152602001908152602001600020600082815260200190815260200160002054600b6000828254611c24919061310e565b92505081905550600d6000611c37612906565b73ffffffffffffffffffffffffffffffffffffffff1673ffffffffffffffffffffffffffffffffffffffff16815260200190815260200160002060008281526020019081526020016000205460106000611c8f612906565b73ffffffffffffffffffffffffffffffffffffffff1673ffffffffffffffffffffffffffffffffffffffff1681526020019081526020016000206000828254611cd8919061310e565b925050819055506000600d6000611ced612906565b73ffffffffffffffffffffffffffffffffffffffff1673ffffffffffffffffffffffffffffffffffffffff1681526020019081526020016000206000838152602001908152602001600020819055507f933f35f751f8adf217540787afff8058df4bdcc265054d4a8de79a44c1f46120600d6000611d69612906565b73ffffffffffffffffffffffffffffffffffffffff1673ffffffffffffffffffffffffffffffffffffffff16815260200190815260200160002060008381526020019081526020016000205482604051611dc4929190612fbc565b60405180910390a150565b611dd7612906565b73ffffffffffffffffffffffffffffffffffffffff16611df56116c5565b73ffffffffffffffffffffffffffffffffffffffff1614611e4b576040517f08c379a0000000000000000000000000000000000000000000000000000000008152600401611e4290612f21565b60405180910390fd5b6007548111611e5957600080fd5b806008819055507fadb0129736659ded05bc3f926dd6c06da27c5dcc85f556469955b73b481fb3b681604051611e8f9190612fa1565b60405180910390a150565b600080600554601560008573ffffffffffffffffffffffffffffffffffffffff1673ffffffffffffffffffffffffffffffffffffffff16815260200190815260200160002054601360008673ffffffffffffffffffffffffffffffffffffffff1673ffffffffffffffffffffffffffffffffffffffff1681526020019081526020016000205442611f2b919061310e565b611f3591906130b4565b611f3f9190613083565b9050601460008473ffffffffffffffffffffffffffffffffffffffff1673ffffffffffffffffffffffffffffffffffffffff16815260200190815260200160002054811115611fcb57601460008473ffffffffffffffffffffffffffffffffffffffff1673ffffffffffffffffffffffffffffffffffffffff1681526020019081526020016000205490505b80915050919050565b600080600f60008573ffffffffffffffffffffffffffffffffffffffff1673ffffffffffffffffffffffffffffffffffffffff168152602001908152602001600020600084815260200190815260200160002054600e60008673ffffffffffffffffffffffffffffffffffffffff1673ffffffffffffffffffffffffffffffffffffffff168152602001908152602001600020600085815260200190815260200160002054612083919061302d565b42106120f5576000600d60008673ffffffffffffffffffffffffffffffffffffffff1673ffffffffffffffffffffffffffffffffffffffff16815260200190815260200160002060008581526020019081526020016000205414156120eb57600290506120f0565b600190505b6120fa565b600090505b8091505092915050565b60085481565b600f602052816000526040600020602052806000526040600020600091509150505481565b600c5481565b6000612147612142612906565b611e9a565b90508060146000612156612906565b73ffffffffffffffffffffffffffffffffffffffff1673ffffffffffffffffffffffffffffffffffffffff168152602001908152602001600020600082825461219f919061310e565b925050819055507f000000000000000000000000000000000000000000000000000000000000000073ffffffffffffffffffffffffffffffffffffffff1663a9059cbb6121ea612906565b836040518363ffffffff1660e01b8152600401612208929190612e58565b602060405180830381600087803b15801561222257600080fd5b505af1158015612236573d6000803e3d6000fd5b505050506040513d601f19601f8201168201806040525081019061225a9190612c13565b504260136000612268612906565b73ffffffffffffffffffffffffffffffffffffffff1673ffffffffffffffffffffffffffffffffffffffff168152602001908152602001600020819055507fd485f79f4de1dd99a014555c8dfe20fef8f8590c5c5a47534db6cd018946f56f816040516122d59190612fa1565b60405180910390a150565b6122e8612906565b73ffffffffffffffffffffffffffffffffffffffff166123066116c5565b73ffffffffffffffffffffffffffffffffffffffff161461235c576040517f08c379a000000000000000000000000000000000000000000000000000000000815260040161235390612f21565b60405180910390fd5b806001819055507f0e71a6cf9c54d60ec7484e29a6d86332b724d727d586fcc175549c22bffbe285816040516123929190612fa1565b60405180910390a150565b60116020528060005260406000206000915090505481565b6123bd612906565b73ffffffffffffffffffffffffffffffffffffffff166123db6116c5565b73ffffffffffffffffffffffffffffffffffffffff1614612431576040517f08c379a000000000000000000000000000000000000000000000000000000000815260040161242890612f21565b60405180910390fd5b600a54811061243f57600080fd5b806009819055507f71422cf38b1415091955abec77541a01bcb3a8ec78f7de338e57840a78901e97816040516124759190612fa1565b60405180910390a150565b612488612906565b73ffffffffffffffffffffffffffffffffffffffff166124a66116c5565b73ffffffffffffffffffffffffffffffffffffffff16146124fc576040517f08c379a00000000000000000000000000000000000000000000000000000000081526004016124f390612f21565b60405180910390fd5b806002819055507f2ca205cb2941e4e0a34906d5f260b7a8f5453176513c71a03ee15bebdb609388816040516125329190612fa1565b60405180910390a150565b6000806000601160008573ffffffffffffffffffffffffffffffffffffffff1673ffffffffffffffffffffffffffffffffffffffff1681526020019081526020016000205414156125915760009050612652565b6301e13380600c546125a391906130b4565b600654601260008673ffffffffffffffffffffffffffffffffffffffff1673ffffffffffffffffffffffffffffffffffffffff16815260200190815260200160002054426125f1919061310e565b601160008773ffffffffffffffffffffffffffffffffffffffff1673ffffffffffffffffffffffffffffffffffffffff1681526020019081526020016000205461263b91906130b4565b61264591906130b4565b61264f9190613083565b90505b80915050919050565b60126020528060005260406000206000915090505481565b61267b612906565b73ffffffffffffffffffffffffffffffffffffffff166126996116c5565b73ffffffffffffffffffffffffffffffffffffffff16146126ef576040517f08c379a00000000000000000000000000000000000000000000000000000000081526004016126e690612f21565b60405180910390fd5b806006819055507fae000f2ecd779ee5ee3bb9a26025c07d6cad24bcffe18c9f07674bbca27b6515816040516127259190612fa1565b60405180910390a150565b60055481565b60015481565b60008060015460025461274f919061310e565b60035460045461275f919061310e565b600154600f60008873ffffffffffffffffffffffffffffffffffffffff1673ffffffffffffffffffffffffffffffffffffffff1681526020019081526020016000206000878152602001908152602001600020546127bd919061310e565b6127c791906130b4565b6127d19190613083565b6003546127de919061302d565b90508091505092915050565b6127f2612906565b73ffffffffffffffffffffffffffffffffffffffff166128106116c5565b73ffffffffffffffffffffffffffffffffffffffff1614612866576040517f08c379a000000000000000000000000000000000000000000000000000000000815260040161285d90612f21565b60405180910390fd5b600073ffffffffffffffffffffffffffffffffffffffff168173ffffffffffffffffffffffffffffffffffffffff1614156128d6576040517f08c379a00000000000000000000000000000000000000000000000000000000081526004016128cd90612ea1565b60405180910390fd5b6128df81612aa3565b50565b7f000000000000000000000000000000000000000000000000000000000000000081565b600033905090565b61291e612919612906565b61253d565b6014600061292a612906565b73ffffffffffffffffffffffffffffffffffffffff1673ffffffffffffffffffffffffffffffffffffffff1681526020019081526020016000206000828254612973919061302d565b9250508190555060146000612986612906565b73ffffffffffffffffffffffffffffffffffffffff1673ffffffffffffffffffffffffffffffffffffffff16815260200190815260200160002054601560006129cd612906565b73ffffffffffffffffffffffffffffffffffffffff1673ffffffffffffffffffffffffffffffffffffffff168152602001908152602001600020819055504260126000612a18612906565b73ffffffffffffffffffffffffffffffffffffffff1673ffffffffffffffffffffffffffffffffffffffff168152602001908152602001600020819055504260136000612a63612906565b73ffffffffffffffffffffffffffffffffffffffff1673ffffffffffffffffffffffffffffffffffffffff16815260200190815260200160002081905550565b60008060009054906101000a900473ffffffffffffffffffffffffffffffffffffffff169050816000806101000a81548173ffffffffffffffffffffffffffffffffffffffff021916908373ffffffffffffffffffffffffffffffffffffffff1602179055508173ffffffffffffffffffffffffffffffffffffffff168173ffffffffffffffffffffffffffffffffffffffff167f8be0079c531659141344cd1fd0a4f28419497f9722a3daafe3b4186f6b6457e060405160405180910390a35050565b600081359050612b7681613384565b92915050565b600081519050612b8b8161339b565b92915050565b600081359050612ba0816133b2565b92915050565b600060208284031215612bbc57612bbb6131e8565b5b6000612bca84828501612b67565b91505092915050565b60008060408385031215612bea57612be96131e8565b5b6000612bf885828601612b67565b9250506020612c0985828601612b91565b9150509250929050565b600060208284031215612c2957612c286131e8565b5b6000612c3784828501612b7c565b91505092915050565b600060208284031215612c5657612c556131e8565b5b6000612c6484828501612b91565b91505092915050565b60008060408385031215612c8457612c836131e8565b5b6000612c9285828601612b91565b9250506020612ca385828601612b91565b9150509250929050565b612cb681613142565b82525050565b6000612cc9600d8361301c565b9150612cd4826131ed565b602082019050919050565b6000612cec60268361301c565b9150612cf782613216565b604082019050919050565b6000612d0f600d8361301c565b9150612d1a82613265565b602082019050919050565b6000612d32601a8361301c565b9150612d3d8261328e565b602082019050919050565b6000612d55600d8361301c565b9150612d60826132b7565b602082019050919050565b6000612d7860208361301c565b9150612d83826132e0565b602082019050919050565b6000612d9b60098361301c565b9150612da682613309565b602082019050919050565b6000612dbe60058361301c565b9150612dc982613332565b602082019050919050565b6000612de1601b8361301c565b9150612dec8261335b565b602082019050919050565b612e0081613180565b82525050565b6000602082019050612e1b6000830184612cad565b92915050565b6000606082019050612e366000830186612cad565b612e436020830185612cad565b612e506040830184612df7565b949350505050565b6000604082019050612e6d6000830185612cad565b612e7a6020830184612df7565b9392505050565b60006020820190508181036000830152612e9a81612cbc565b9050919050565b60006020820190508181036000830152612eba81612cdf565b9050919050565b60006020820190508181036000830152612eda81612d02565b9050919050565b60006020820190508181036000830152612efa81612d25565b9050919050565b60006020820190508181036000830152612f1a81612d48565b9050919050565b60006020820190508181036000830152612f3a81612d6b565b9050919050565b60006020820190508181036000830152612f5a81612d8e565b9050919050565b60006020820190508181036000830152612f7a81612db1565b9050919050565b60006020820190508181036000830152612f9a81612dd4565b9050919050565b6000602082019050612fb66000830184612df7565b92915050565b6000604082019050612fd16000830185612df7565b612fde6020830184612df7565b9392505050565b6000606082019050612ffa6000830186612df7565b6130076020830185612df7565b6130146040830184612df7565b949350505050565b600082825260208201905092915050565b600061303882613180565b915061304383613180565b9250827fffffffffffffffffffffffffffffffffffffffffffffffffffffffffffffffff038211156130785761307761318a565b5b828201905092915050565b600061308e82613180565b915061309983613180565b9250826130a9576130a86131b9565b5b828204905092915050565b60006130bf82613180565b91506130ca83613180565b9250817fffffffffffffffffffffffffffffffffffffffffffffffffffffffffffffffff04831182151516156131035761310261318a565b5b828202905092915050565b600061311982613180565b915061312483613180565b9250828210156131375761313661318a565b5b828203905092915050565b600061314d82613160565b9050919050565b60008115159050919050565b600073ffffffffffffffffffffffffffffffffffffffff82169050919050565b6000819050919050565b7f4e487b7100000000000000000000000000000000000000000000000000000000600052601160045260246000fd5b7f4e487b7100000000000000000000000000000000000000000000000000000000600052601260045260246000fd5b600080fd5b7f416c726561647920656e64656400000000000000000000000000000000000000600082015250565b7f4f776e61626c653a206e6577206f776e657220697320746865207a65726f206160008201527f6464726573730000000000000000000000000000000000000000000000000000602082015250565b7f43616e6e6f7420756e6c6f636b00000000000000000000000000000000000000600082015250565b7f4c6f776572207468616e206d696e206c6f636b20706572696f64000000000000600082015250565b7f4e6f742073746172742079657400000000000000000000000000000000000000600082015250565b7f4f776e61626c653a2063616c6c6572206973206e6f7420746865206f776e6572600082015250565b7f4e6f742076616c69640000000000000000000000000000000000000000000000600082015250565b7f4572726f72000000000000000000000000000000000000000000000000000000600082015250565b7f486967686572207468616e206d6178206c6f636b20706572696f640000000000600082015250565b61338d81613142565b811461339857600080fd5b50565b6133a481613154565b81146133af57600080fd5b50565b6133bb81613180565b81146133c657600080fd5b5056fea26469706673582212206862fd736de99cc3f909a0229891aeeba509c29f0e181d73812a45a8016dc68064736f6c63430008060033",
  "immutableReferences": {
    "4210": [
      {
        "length": 32,
        "start": 4309
      },
      {
        "length": 32,
        "start": 6321
      },
      {
        "length": 32,
        "start": 8616
      },
      {
        "length": 32,
        "start": 10468
      }
    ]
  },
  "source": "// SPDX-License-Identifier: MIT\npragma solidity 0.8.6;\n\nimport \"@openzeppelin/contracts/token/ERC20/IERC20.sol\";\nimport \"@openzeppelin/contracts/access/Ownable.sol\";\n\ncontract Staking is Ownable {\n\n    uint256 public minDays;\n    uint256 public maxDays;\n    uint256 public minMultiply;\n    uint256 public maxMultiply;\n    uint256 public rewardVestingPeriod;\n    uint256 public rewardPerYear;\n    uint256 public startReward;\n    uint256 public endReward;\n    uint256 public startStaking;\n    uint256 public endStaking;\n    uint256 public totalStakedAmount;\n    uint256 public totalWeightedStakedAmount;\n    address public immutable token;\n\n    mapping(address => mapping(uint256 => uint256)) public userStakedAmount;\n    mapping(address => mapping(uint256 => uint256)) public userStakedStart;\n    mapping(address => mapping(uint256 => uint256)) public userStakedPeriod;\n    mapping(address => uint256) public userTotalStakedAmount;\n    mapping(address => uint256) public userTotalWeightedStakedAmount;\n    mapping(address => uint256) public userLastCollect;\n    mapping(address => uint256) public userLastClaim;\n    mapping(address => uint256) public userReward;\n    mapping(address => uint256) public userRewardVesting; // Full amount of vesting\n    mapping(address => uint256) public userStakedTime;\n\n    event OnEnterStaking(uint256 amount, uint256 period, uint256 id);\n    event OnClaimReward(uint256 amount);\n    event OnUnlock(uint256 amount, uint256 id);\n    event OnHarvest(uint256 amount);\n    event OnSetMinDays(uint256 amount);\n    event OnSetMaxDays(uint256 amount);\n    event OnSetMinMultiple(uint256 amount);\n    event OnSetMaxMultiple(uint256 amount);\n    event OnSetRewardPerYear(uint256 amount);\n    event OnSetRewardVesting(uint256 period);\n    event OnSetStartReward(uint256 time);\n    event OnSetEndReward(uint256 time);\n    event OnSetStartStaking(uint256 time);\n    event OnSetEndStaking(uint256 time);\n\n    constructor(address _token){\n        require(_token != address(0), \"Zero address\");\n        token = _token;\n        minDays = 15 * 24 * 60 * 60;\n        maxDays = 90 * 24 * 60 * 60;\n        minMultiply = 20000; // 2\n        maxMultiply = 40000; // 4\n        rewardVestingPeriod = 7 * 24 * 60 * 60;\n        rewardPerYear =  9500000 * 10 ** 18;\n        startReward = block.timestamp;\n        endReward = block.timestamp + (90 * 24 * 60 * 60);\n        startStaking = block.timestamp;\n        endStaking = block.timestamp + (90 * 24 * 60 * 60);\n    }\n\n    function setMinDays (uint256 _min) external onlyOwner {\n        minDays = _min;\n\n        emit OnSetMinDays (_min);\n    }\n\n    function setMaxDays (uint256 _max) external onlyOwner {\n        maxDays = _max;\n\n        emit OnSetMaxDays (_max);\n    }\n\n    function setMinMultiple (uint256 _min) external onlyOwner {\n        minMultiply = _min;\n\n        emit OnSetMinMultiple (_min);\n    }\n\n    function setMaxMultiple (uint256 _max) external onlyOwner {\n        maxMultiply = _max;\n\n        emit OnSetMaxMultiple (_max);\n    }\n\n    function setRewardPerYear (uint256 _amount) external onlyOwner {\n        rewardPerYear = _amount;\n\n        emit OnSetRewardPerYear (_amount);\n    }\n\n    function setRewardVesting (uint256 _period) external onlyOwner {\n        rewardVestingPeriod = _period;\n\n        emit OnSetRewardVesting (_period);\n    }\n\n    function setStartReward (uint256 _time) external onlyOwner {\n        require(_time > endReward);\n        startReward = _time;\n\n        emit OnSetStartReward (_time);\n    }\n\n    function setEndReward (uint256 _time) external onlyOwner {\n        require(_time > startReward);\n        endReward = _time;\n\n        emit OnSetEndReward (_time);\n    }\n\n    function setStartStaking (uint256 _time) external onlyOwner {\n        require(_time < endStaking);\n        startStaking = _time;\n\n        emit OnSetStartStaking (_time);\n    }\n\n    function setEndStaking (uint256 _time) external onlyOwner {\n        require(_time > startStaking);\n        endStaking = _time;\n\n        emit OnSetEndStaking (_time);\n    }\n\n    function enterStaking (uint256 _amount, uint256 _period) external {\n        require(block.timestamp >= startStaking, \"Not start yet\");\n        require(block.timestamp <= endStaking, \"Already ended\");\n        require(_period >= minDays, \"Lower than min lock period\");\n        require(_period <= maxDays, \"Higher than max lock period\");\n        if(userStakedTime[_msgSender()] == 0) {\n            userLastCollect[_msgSender()] = block.timestamp;\n        }\n        userStakedTime[_msgSender()] += 1;\n        require(userStakedAmount[_msgSender()][userStakedTime[_msgSender()]] == 0, \"Error\");\n        userStakedAmount[_msgSender()][userStakedTime[_msgSender()]] = _amount;\n        userStakedPeriod[_msgSender()][userStakedTime[_msgSender()]] = _period;\n        userStakedStart[_msgSender()][userStakedTime[_msgSender()]] = block.timestamp;\n        userTotalStakedAmount[_msgSender()] += _amount;\n        totalStakedAmount += _amount;\n        userTotalWeightedStakedAmount[_msgSender()] += _amount * getMultiple(_msgSender(), userStakedTime[_msgSender()]) /10000;\n        totalWeightedStakedAmount += _amount * getMultiple(_msgSender(), userStakedTime[_msgSender()]) / 10000;\n        IERC20(token).transferFrom(_msgSender(), address(this), _amount);\n        collectRewards();\n\n        emit OnEnterStaking(_amount, _period, userStakedTime[_msgSender()]);\n    }\n\n    function harvest () public {\n        collectRewards();\n\n        emit OnHarvest(userReward[_msgSender()]);\n    }\n\n    function collectRewards () internal {\n        userReward[_msgSender()] += rewardPending(_msgSender());\n        userRewardVesting[_msgSender()] = userReward[_msgSender()];\n        userLastCollect[_msgSender()] = block.timestamp;\n        userLastClaim[_msgSender()] = block.timestamp;\n    }\n\n    function rewardPending(address _adr) public view returns (uint256) {\n        uint256 _rewards;\n        if (userTotalWeightedStakedAmount[_adr] == 0) {\n            _rewards = 0;\n        } else {\n            _rewards = userTotalWeightedStakedAmount[_adr] * (block.timestamp - userLastCollect[_adr]) * rewardPerYear / (totalWeightedStakedAmount * (365*24*60*60));\n        }\n        return _rewards;\n    }\n\n    function claimReward () public {\n        uint256 claimAmount = getClaimable (_msgSender());\n        userReward[_msgSender()] -= claimAmount;\n\n        IERC20(token).transfer(_msgSender(), claimAmount);\n        userLastClaim[_msgSender()] = block.timestamp;\n\n        emit OnClaimReward(claimAmount);\n    }\n\n    function unlockStaking (uint256 _id) external {\n        require(getLockedStatus(_msgSender(), _id) == 1, \"Cannot unlock\");\n        require(userStakedAmount[_msgSender()][_id] != 0, \"Not valid\");\n        collectRewards();\n        IERC20(token).transfer(_msgSender(), userStakedAmount[_msgSender()][_id]);\n        totalWeightedStakedAmount -= userStakedAmount[_msgSender()][_id] * getMultiple(_msgSender(), userStakedTime[_msgSender()]) / 10000;\n        userTotalWeightedStakedAmount[_msgSender()] -= userStakedAmount[_msgSender()][_id] * getMultiple(_msgSender(), userStakedTime[_msgSender()]) /10000;\n        totalStakedAmount -= userStakedAmount[_msgSender()][_id];\n        userTotalStakedAmount[_msgSender()] -= userStakedAmount[_msgSender()][_id];\n        userStakedAmount[_msgSender()][_id] = 0;\n\n        emit OnUnlock (userStakedAmount[_msgSender()][_id], _id);\n    }\n\n    function getClaimable (address _adr) public view returns (uint256) {\n        uint256 claimAmount;\n        claimAmount = (block.timestamp - userLastClaim[_adr]) * userRewardVesting[_adr] / rewardVestingPeriod;\n        if (claimAmount > userReward[_adr]) {\n            claimAmount = userReward[_adr];\n        }\n\n        return claimAmount;\n    }\n\n    function getMultiple(address _adr, uint256 _id) public view returns (uint256) {\n        uint256 _multiple;\n        _multiple = minMultiply + ((userStakedPeriod[_adr][_id]-minDays)*(maxMultiply-minMultiply)/(maxDays-minDays));\n\n        return _multiple;\n    }\n\n    function getSingleReward(address _adr, uint256 _id) public view returns (uint256) {\n        uint256 _rewards;\n        if (userStakedAmount[_adr][_id] == 0) {\n            _rewards = 0;\n        } else {\n            _rewards = userStakedAmount[_adr][_id] * getMultiple(_adr, _id) * (block.timestamp - userLastCollect[_adr]) * rewardPerYear / (totalWeightedStakedAmount * (365*24*60*60) * 10000);\n        }\n        return _rewards;\n    }\n\n    function getLockedStatus (address _adr, uint256 _id) public view returns (uint256) {\n        uint256 status;\n        if (block.timestamp >= userStakedStart[_adr][_id] + userStakedPeriod[_adr][_id]) {\n            if (userStakedAmount[_adr][_id] == 0) {\n                status = 2;\n            } else {\n                status = 1;\n            }\n        }else{\n            status = 0;\n        }\n\n        return status;\n    }\n}\n",
  "sourcePath": "/Users/ktn/Workspace/shin-keiyaku/contracts/Staking.sol",
  "compiler": {
    "name": "solc",
    "version": "0.8.6+commit.11564f7e.Emscripten.clang"
  },
  "schemaVersion": "3.4.2",
  "updatedAt": "2022-08-18T15:51:11.767Z",
  "devdoc": {
    "kind": "dev",
    "methods": {
      "owner()": {
        "details": "Returns the address of the current owner."
      },
      "renounceOwnership()": {
        "details": "Leaves the contract without owner. It will not be possible to call `onlyOwner` functions anymore. Can only be called by the current owner. NOTE: Renouncing ownership will leave the contract without an owner, thereby removing any functionality that is only available to the owner."
      },
      "transferOwnership(address)": {
        "details": "Transfers ownership of the contract to a new account (`newOwner`). Can only be called by the current owner."
      }
    },
    "version": 1
  },
  "userdoc": {
    "kind": "user",
    "methods": {},
    "version": 1
  }
}