{
  "contractName": "Utils",
  "abi": [
    {
      "inputs": [
        {
          "internalType": "uint256",
          "name": "id",
          "type": "uint256"
        }
      ],
      "name": "isTradable",
      "outputs": [
        {
          "internalType": "bool",
          "name": "",
          "type": "bool"
        }
      ],
      "stateMutability": "pure",
      "type": "function",
      "constant": true
    },
    {
      "inputs": [
        {
          "internalType": "uint256",
          "name": "id",
          "type": "uint256"
        }
      ],
      "name": "isHero",
      "outputs": [
        {
          "internalType": "bool",
          "name": "",
          "type": "bool"
        }
      ],
      "stateMutability": "pure",
      "type": "function",
      "constant": true
    },
    {
      "inputs": [
        {
          "internalType": "uint256",
          "name": "id",
          "type": "uint256"
        }
      ],
      "name": "isItem",
      "outputs": [
        {
          "internalType": "bool",
          "name": "",
          "type": "bool"
        }
      ],
      "stateMutability": "pure",
      "type": "function",
      "constant": true
    },
    {
      "inputs": [
        {
          "internalType": "uint256",
          "name": "id",
          "type": "uint256"
        }
      ],
      "name": "itemId",
      "outputs": [
        {
          "internalType": "uint96",
          "name": "",
          "type": "uint96"
        }
      ],
      "stateMutability": "pure",
      "type": "function",
      "constant": true
    },
    {
      "inputs": [
        {
          "internalType": "uint256",
          "name": "id",
          "type": "uint256"
        }
      ],
      "name": "resourceType",
      "outputs": [
        {
          "internalType": "uint16",
          "name": "",
          "type": "uint16"
        }
      ],
      "stateMutability": "pure",
      "type": "function",
      "constant": true
    },
    {
      "inputs": [
        {
          "internalType": "uint256",
          "name": "id",
          "type": "uint256"
        }
      ],
      "name": "heroID",
      "outputs": [
        {
          "internalType": "uint64",
          "name": "",
          "type": "uint64"
        }
      ],
      "stateMutability": "pure",
      "type": "function",
      "constant": true
    },
    {
      "inputs": [
        {
          "internalType": "uint256",
          "name": "id",
          "type": "uint256"
        }
      ],
      "name": "heroRarity",
      "outputs": [
        {
          "internalType": "uint8",
          "name": "",
          "type": "uint8"
        }
      ],
      "stateMutability": "pure",
      "type": "function",
      "constant": true
    },
    {
      "inputs": [
        {
          "internalType": "uint256",
          "name": "id",
          "type": "uint256"
        }
      ],
      "name": "heroClass",
      "outputs": [
        {
          "internalType": "uint8",
          "name": "",
          "type": "uint8"
        }
      ],
      "stateMutability": "pure",
      "type": "function",
      "constant": true
    },
    {
      "inputs": [
        {
          "internalType": "uint256",
          "name": "id",
          "type": "uint256"
        }
      ],
      "name": "heroType",
      "outputs": [
        {
          "internalType": "uint16",
          "name": "",
          "type": "uint16"
        }
      ],
      "stateMutability": "pure",
      "type": "function",
      "constant": true
    },
    {
      "inputs": [
        {
          "internalType": "bool",
          "name": "_isTradable",
          "type": "bool"
        },
        {
          "internalType": "uint16",
          "name": "_type",
          "type": "uint16"
        },
        {
          "internalType": "uint8",
          "name": "_class",
          "type": "uint8"
        },
        {
          "internalType": "uint8",
          "name": "_rarity",
          "type": "uint8"
        },
        {
          "internalType": "uint64",
          "name": "_id",
          "type": "uint64"
        }
      ],
      "name": "getHeroTokenId",
      "outputs": [
        {
          "internalType": "uint256",
          "name": "",
          "type": "uint256"
        }
      ],
      "stateMutability": "pure",
      "type": "function",
      "constant": true
    },
    {
      "inputs": [
        {
          "internalType": "bool",
          "name": "_isTradable",
          "type": "bool"
        },
        {
          "internalType": "uint96",
          "name": "_itemId",
          "type": "uint96"
        }
      ],
      "name": "getItemTokenId",
      "outputs": [
        {
          "internalType": "uint256",
          "name": "",
          "type": "uint256"
        }
      ],
      "stateMutability": "pure",
      "type": "function",
      "constant": true
    }
  ],
  "bytecode": "0x608060405234801561001057600080fd5b506108af806100206000396000f3fe608060405234801561001057600080fd5b50600436106100a95760003560e01c80638a779afa116100715780638a779afa1461019e578063ae9f5d15146101ce578063b43cf236146101fe578063bd63c6291461022e578063d6f705661461025e578063e27aa1d81461028e576100a9565b806303e1649c146100ae57806324dd17cc146100de57806336a54b901461010e5780633836cbb11461013e5780636fa3fdfd1461016e575b600080fd5b6100c860048036038101906100c391906104e1565b6102be565b6040516100d59190610529565b60405180910390f35b6100f860048036038101906100f391906104e1565b6102d7565b6040516101059190610567565b60405180910390f35b610128600480360381019061012391906104e1565b6102eb565b6040516101359190610529565b60405180910390f35b6101586004803603810190610153919061064d565b610304565b60405161016591906106d7565b60405180910390f35b610188600480360381019061018391906104e1565b6103b8565b6040516101959190610701565b60405180910390f35b6101b860048036038101906101b391906104e1565b6103ca565b6040516101c59190610743565b60405180910390f35b6101e860048036038101906101e391906104e1565b6103e2565b6040516101f5919061076d565b60405180910390f35b610218600480360381019061021391906104e1565b6103f3565b6040516102259190610701565b60405180910390f35b610248600480360381019061024391906104e1565b610405565b604051610255919061076d565b60405180910390f35b610278600480360381019061027391906107b4565b610416565b60405161028591906106d7565b60405180910390f35b6102a860048036038101906102a391906104e1565b610493565b6040516102b59190610529565b60405180910390f35b600060026102cb836103b8565b61ffff16149050919050565b600067ffffffffffffffff82169050919050565b600060016102f8836103b8565b61ffff16149050919050565b600080600090508615610340577f80000000000000000000000000000000000000000000000000000000000000008161033d9190610823565b90505b60606001901b816103519190610823565b905060508661ffff16901b816103679190610823565b905060488560ff16901b8161037c9190610823565b905060408460ff16901b816103919190610823565b90508267ffffffffffffffff16816103a99190610823565b90508091505095945050505050565b600061ffff606083901c169050919050565b60006bffffffffffffffffffffffff82169050919050565b600060ff604883901c169050919050565b600061ffff605083901c169050919050565b600060ff604083901c169050919050565b600080600090508315610452577f80000000000000000000000000000000000000000000000000000000000000008161044f9190610823565b90505b6c020000000000000000000000008161046b9190610823565b9050826bffffffffffffffffffffffff16816104879190610823565b90508091505092915050565b600060018060ff84901c16149050919050565b600080fd5b6000819050919050565b6104be816104ab565b81146104c957600080fd5b50565b6000813590506104db816104b5565b92915050565b6000602082840312156104f7576104f66104a6565b5b6000610505848285016104cc565b91505092915050565b60008115159050919050565b6105238161050e565b82525050565b600060208201905061053e600083018461051a565b92915050565b600067ffffffffffffffff82169050919050565b61056181610544565b82525050565b600060208201905061057c6000830184610558565b92915050565b61058b8161050e565b811461059657600080fd5b50565b6000813590506105a881610582565b92915050565b600061ffff82169050919050565b6105c5816105ae565b81146105d057600080fd5b50565b6000813590506105e2816105bc565b92915050565b600060ff82169050919050565b6105fe816105e8565b811461060957600080fd5b50565b60008135905061061b816105f5565b92915050565b61062a81610544565b811461063557600080fd5b50565b60008135905061064781610621565b92915050565b600080600080600060a08688031215610669576106686104a6565b5b600061067788828901610599565b9550506020610688888289016105d3565b94505060406106998882890161060c565b93505060606106aa8882890161060c565b92505060806106bb88828901610638565b9150509295509295909350565b6106d1816104ab565b82525050565b60006020820190506106ec60008301846106c8565b92915050565b6106fb816105ae565b82525050565b600060208201905061071660008301846106f2565b92915050565b60006bffffffffffffffffffffffff82169050919050565b61073d8161071c565b82525050565b60006020820190506107586000830184610734565b92915050565b610767816105e8565b82525050565b6000602082019050610782600083018461075e565b92915050565b6107918161071c565b811461079c57600080fd5b50565b6000813590506107ae81610788565b92915050565b600080604083850312156107cb576107ca6104a6565b5b60006107d985828601610599565b92505060206107ea8582860161079f565b9150509250929050565b7f4e487b7100000000000000000000000000000000000000000000000000000000600052601160045260246000fd5b600061082e826104ab565b9150610839836104ab565b9250827fffffffffffffffffffffffffffffffffffffffffffffffffffffffffffffffff0382111561086e5761086d6107f4565b5b82820190509291505056fea26469706673582212206070836c469bef04ff7404bba9369eee4d173a931d3dbb0c4221e1be1999b51364736f6c634300080c0033",
  "immutableReferences": {},
  "source": "// SPDX-License-Identifier: MIT\npragma solidity 0.8.12;\n\nimport \"./interfaces/IUtils.sol\";\n\ncontract Utils {\n    function isTradable(uint256 id) external pure returns (bool) {\n        return ((id >> 255 & 0x1) == 1);\n    }\n\n    function isHero(uint256 id) external pure returns (bool) {\n        return (resourceType(id) == 1);\n    }\n\n    function isItem(uint256 id) external pure returns (bool) {\n        return (resourceType(id) == 2);\n    }\n\n    function itemId(uint256 id) external pure returns (uint96) {\n        return uint96(id & 0xFFFFFFFFFFFFFFFFFFFFFFFF);\n    }\n\n    function resourceType(uint256 id) public pure returns (uint16) {\n        return uint16(id >> (64 + 8 + 8 + 16)) & 0xFFFF;\n    }\n\n    function heroID(uint256 id) external pure returns (uint64) {\n        return uint64(id & 0xFFFFFFFFFFFFFFFF);\n    }\n\n    function heroRarity(uint256 id) external pure returns (uint8) {\n        return uint8(id >> 64) & 0xFF;\n    }\n\n    function heroClass(uint256 id) external pure returns (uint8) {\n        return uint8(id >> (64 + 8)) & 0xFF;\n    }\n\n    function heroType(uint256 id) external pure returns (uint16) {\n        return uint16(id >> (64 + 8 + 8)) & 0xFFFF;\n    }\n\n    function getHeroTokenId(bool _isTradable, uint16 _type, uint8 _class, uint8 _rarity, uint64 _id) external pure returns (uint256){\n        uint256 resultId = 0;\n        if (_isTradable) {\n            resultId += (1 << 255);\n        }\n        resultId += uint256(1) << 96;\n        resultId += uint256(_type) << 80;\n        resultId += uint256(_class) << 72;\n        resultId += uint256(_rarity) << 64;\n        resultId += _id;\n        return resultId;\n    }\n\n    function getItemTokenId(bool _isTradable, uint96 _itemId) external pure returns (uint256){\n        uint256 resultId = 0;\n        if (_isTradable) {\n            resultId += (1 << 255);\n        }\n        resultId += 2 << 96;\n        resultId += _itemId;\n        return resultId;\n    }\n}\n",
  "sourcePath": "/Users/poripuri/Documents/Dev/AniFi/contract_new/shin-keiyaku/contracts/Utils.sol",
  "compiler": {
    "name": "solc",
    "version": "0.8.12+commit.f00d7308.Emscripten.clang"
  },
  "schemaVersion": "3.4.2",
  "updatedAt": "2022-09-25T17:44:59.702Z",
  "networkType": "ethereum",
  "devdoc": {
    "kind": "dev",
    "methods": {},
    "version": 1
  },
  "userdoc": {
    "kind": "user",
    "methods": {},
    "version": 1
  }
}