{
  "contractName": "Vendor",
  "abi": [
    {
      "inputs": [
        {
          "internalType": "address",
          "name": "have",
          "type": "address"
        },
        {
          "internalType": "address",
          "name": "want",
          "type": "address"
        }
      ],
      "name": "OnlyCoordinatorCanFulfill",
      "type": "error"
    },
    {
      "anonymous": false,
      "inputs": [
        {
          "indexed": false,
          "internalType": "uint256",
          "name": "requestId",
          "type": "uint256"
        },
        {
          "indexed": false,
          "internalType": "address",
          "name": "to",
          "type": "address"
        }
      ],
      "name": "HeroPending",
      "type": "event"
    },
    {
      "anonymous": false,
      "inputs": [
        {
          "indexed": false,
          "internalType": "uint256",
          "name": "requestId",
          "type": "uint256"
        },
        {
          "indexed": false,
          "internalType": "uint256[]",
          "name": "tokenId",
          "type": "uint256[]"
        },
        {
          "indexed": false,
          "internalType": "address",
          "name": "to",
          "type": "address"
        }
      ],
      "name": "HeroTransferred",
      "type": "event"
    },
    {
      "anonymous": false,
      "inputs": [
        {
          "indexed": false,
          "internalType": "uint256",
          "name": "itemId",
          "type": "uint256"
        },
        {
          "indexed": false,
          "internalType": "uint256",
          "name": "price",
          "type": "uint256"
        },
        {
          "indexed": false,
          "internalType": "uint256",
          "name": "rentalTime",
          "type": "uint256"
        }
      ],
      "name": "ItemPriceSet",
      "type": "event"
    },
    {
      "anonymous": false,
      "inputs": [
        {
          "indexed": false,
          "internalType": "uint256",
          "name": "itemId",
          "type": "uint256"
        },
        {
          "indexed": false,
          "internalType": "uint256",
          "name": "amount",
          "type": "uint256"
        },
        {
          "indexed": false,
          "internalType": "uint256",
          "name": "expirationDate",
          "type": "uint256"
        },
        {
          "indexed": false,
          "internalType": "address",
          "name": "to",
          "type": "address"
        }
      ],
      "name": "ItemTransferred",
      "type": "event"
    },
    {
      "inputs": [],
      "name": "ASSET_CONTROLLER_ROLE",
      "outputs": [
        {
          "internalType": "bytes32",
          "name": "",
          "type": "bytes32"
        }
      ],
      "stateMutability": "view",
      "type": "function",
      "constant": true
    },
    {
      "inputs": [],
      "name": "GAME_MANAGER_ROLE",
      "outputs": [
        {
          "internalType": "bytes32",
          "name": "",
          "type": "bytes32"
        }
      ],
      "stateMutability": "view",
      "type": "function",
      "constant": true
    },
    {
      "inputs": [],
      "name": "HERO_MANAGER_ROLE",
      "outputs": [
        {
          "internalType": "bytes32",
          "name": "",
          "type": "bytes32"
        }
      ],
      "stateMutability": "view",
      "type": "function",
      "constant": true
    },
    {
      "inputs": [],
      "name": "INITIALIZER_ROLE",
      "outputs": [
        {
          "internalType": "bytes32",
          "name": "",
          "type": "bytes32"
        }
      ],
      "stateMutability": "view",
      "type": "function",
      "constant": true
    },
    {
      "inputs": [],
      "name": "NFT_BURNER_ROLE",
      "outputs": [
        {
          "internalType": "bytes32",
          "name": "",
          "type": "bytes32"
        }
      ],
      "stateMutability": "view",
      "type": "function",
      "constant": true
    },
    {
      "inputs": [],
      "name": "NFT_MINTER_ROLE",
      "outputs": [
        {
          "internalType": "bytes32",
          "name": "",
          "type": "bytes32"
        }
      ],
      "stateMutability": "view",
      "type": "function",
      "constant": true
    },
    {
      "inputs": [],
      "name": "ORACLE_ROLE",
      "outputs": [
        {
          "internalType": "bytes32",
          "name": "",
          "type": "bytes32"
        }
      ],
      "stateMutability": "view",
      "type": "function",
      "constant": true
    },
    {
      "inputs": [],
      "name": "VENDOR_MANAGER_ROLE",
      "outputs": [
        {
          "internalType": "bytes32",
          "name": "",
          "type": "bytes32"
        }
      ],
      "stateMutability": "view",
      "type": "function",
      "constant": true
    },
    {
      "inputs": [
        {
          "internalType": "address",
          "name": "",
          "type": "address"
        },
        {
          "internalType": "uint256",
          "name": "",
          "type": "uint256"
        }
      ],
      "name": "_expirationDate",
      "outputs": [
        {
          "internalType": "uint256",
          "name": "",
          "type": "uint256"
        }
      ],
      "stateMutability": "view",
      "type": "function",
      "constant": true
    },
    {
      "inputs": [
        {
          "internalType": "uint256",
          "name": "",
          "type": "uint256"
        }
      ],
      "name": "_priceMap",
      "outputs": [
        {
          "internalType": "uint256",
          "name": "",
          "type": "uint256"
        }
      ],
      "stateMutability": "view",
      "type": "function",
      "constant": true
    },
    {
      "inputs": [
        {
          "internalType": "uint256",
          "name": "",
          "type": "uint256"
        }
      ],
      "name": "_rentalTimeMap",
      "outputs": [
        {
          "internalType": "uint256",
          "name": "",
          "type": "uint256"
        }
      ],
      "stateMutability": "view",
      "type": "function",
      "constant": true
    },
    {
      "inputs": [
        {
          "internalType": "uint256",
          "name": "",
          "type": "uint256"
        }
      ],
      "name": "_requestIdPendingBoxTypeMap",
      "outputs": [
        {
          "internalType": "uint8",
          "name": "",
          "type": "uint8"
        }
      ],
      "stateMutability": "view",
      "type": "function",
      "constant": true
    },
    {
      "inputs": [
        {
          "internalType": "uint256",
          "name": "",
          "type": "uint256"
        }
      ],
      "name": "_requestIdToAddressMap",
      "outputs": [
        {
          "internalType": "address",
          "name": "",
          "type": "address"
        }
      ],
      "stateMutability": "view",
      "type": "function",
      "constant": true
    },
    {
      "inputs": [
        {
          "internalType": "address",
          "name": "",
          "type": "address"
        }
      ],
      "name": "gacha",
      "outputs": [
        {
          "internalType": "bool",
          "name": "_requestingGacha",
          "type": "bool"
        },
        {
          "internalType": "bool",
          "name": "_finishedRandom",
          "type": "bool"
        },
        {
          "internalType": "uint8",
          "name": "_boxAmount",
          "type": "uint8"
        },
        {
          "internalType": "uint256",
          "name": "_requestId",
          "type": "uint256"
        }
      ],
      "stateMutability": "view",
      "type": "function",
      "constant": true
    },
    {
      "inputs": [],
      "name": "hero",
      "outputs": [
        {
          "internalType": "contract IHero",
          "name": "",
          "type": "address"
        }
      ],
      "stateMutability": "view",
      "type": "function",
      "constant": true
    },
    {
      "inputs": [
        {
          "internalType": "address",
          "name": "",
          "type": "address"
        },
        {
          "internalType": "uint256",
          "name": "",
          "type": "uint256"
        }
      ],
      "name": "lastClaim",
      "outputs": [
        {
          "internalType": "uint256",
          "name": "",
          "type": "uint256"
        }
      ],
      "stateMutability": "view",
      "type": "function",
      "constant": true
    },
    {
      "inputs": [],
      "name": "lp",
      "outputs": [
        {
          "internalType": "contract ILP",
          "name": "",
          "type": "address"
        }
      ],
      "stateMutability": "view",
      "type": "function",
      "constant": true
    },
    {
      "inputs": [],
      "name": "lpAddress",
      "outputs": [
        {
          "internalType": "address",
          "name": "",
          "type": "address"
        }
      ],
      "stateMutability": "view",
      "type": "function",
      "constant": true
    },
    {
      "inputs": [],
      "name": "nft",
      "outputs": [
        {
          "internalType": "contract INFT",
          "name": "",
          "type": "address"
        }
      ],
      "stateMutability": "view",
      "type": "function",
      "constant": true
    },
    {
      "inputs": [
        {
          "internalType": "uint256",
          "name": "requestId",
          "type": "uint256"
        },
        {
          "internalType": "uint256[]",
          "name": "randomWords",
          "type": "uint256[]"
        }
      ],
      "name": "rawFulfillRandomWords",
      "outputs": [],
      "stateMutability": "nonpayable",
      "type": "function"
    },
    {
      "inputs": [],
      "name": "receiver",
      "outputs": [
        {
          "internalType": "address",
          "name": "",
          "type": "address"
        }
      ],
      "stateMutability": "view",
      "type": "function",
      "constant": true
    },
    {
      "inputs": [],
      "name": "s_requestId",
      "outputs": [
        {
          "internalType": "uint256",
          "name": "",
          "type": "uint256"
        }
      ],
      "stateMutability": "view",
      "type": "function",
      "constant": true
    },
    {
      "inputs": [],
      "name": "token",
      "outputs": [
        {
          "internalType": "contract IERC20",
          "name": "",
          "type": "address"
        }
      ],
      "stateMutability": "view",
      "type": "function",
      "constant": true
    },
    {
      "inputs": [],
      "name": "utils",
      "outputs": [
        {
          "internalType": "contract IUtils",
          "name": "",
          "type": "address"
        }
      ],
      "stateMutability": "view",
      "type": "function",
      "constant": true
    },
    {
      "inputs": [
        {
          "internalType": "address",
          "name": "_roleManager",
          "type": "address"
        },
        {
          "internalType": "contract IUtils",
          "name": "_utils",
          "type": "address"
        },
        {
          "internalType": "contract IERC20",
          "name": "_token",
          "type": "address"
        },
        {
          "internalType": "contract INFT",
          "name": "_nft",
          "type": "address"
        },
        {
          "internalType": "contract IHero",
          "name": "_hero",
          "type": "address"
        },
        {
          "internalType": "address",
          "name": "_vrfCoordinator",
          "type": "address"
        },
        {
          "internalType": "bytes32",
          "name": "_keyHash",
          "type": "bytes32"
        },
        {
          "internalType": "uint64",
          "name": "subscriptionId",
          "type": "uint64"
        }
      ],
      "name": "initialize",
      "outputs": [],
      "stateMutability": "nonpayable",
      "type": "function"
    },
    {
      "inputs": [
        {
          "internalType": "address",
          "name": "_lp",
          "type": "address"
        }
      ],
      "name": "setLP",
      "outputs": [],
      "stateMutability": "nonpayable",
      "type": "function"
    },
    {
      "inputs": [
        {
          "internalType": "address",
          "name": "_receiver",
          "type": "address"
        }
      ],
      "name": "setReceiver",
      "outputs": [],
      "stateMutability": "nonpayable",
      "type": "function"
    },
    {
      "inputs": [
        {
          "internalType": "uint256[]",
          "name": "_itemIds",
          "type": "uint256[]"
        },
        {
          "internalType": "uint256[]",
          "name": "_prices",
          "type": "uint256[]"
        },
        {
          "internalType": "uint256[]",
          "name": "_rentalTime",
          "type": "uint256[]"
        }
      ],
      "name": "setItemPriceBatch",
      "outputs": [],
      "stateMutability": "nonpayable",
      "type": "function"
    },
    {
      "inputs": [
        {
          "internalType": "uint256",
          "name": "_itemId",
          "type": "uint256"
        },
        {
          "internalType": "uint256",
          "name": "_price",
          "type": "uint256"
        },
        {
          "internalType": "uint256",
          "name": "_rentalTime",
          "type": "uint256"
        }
      ],
      "name": "setItemPrice",
      "outputs": [],
      "stateMutability": "nonpayable",
      "type": "function"
    },
    {
      "inputs": [
        {
          "internalType": "uint256",
          "name": "_itemId",
          "type": "uint256"
        },
        {
          "internalType": "uint256",
          "name": "_amount",
          "type": "uint256"
        }
      ],
      "name": "buyItem",
      "outputs": [],
      "stateMutability": "nonpayable",
      "type": "function"
    },
    {
      "inputs": [
        {
          "internalType": "uint8",
          "name": "_boxType",
          "type": "uint8"
        },
        {
          "internalType": "uint8",
          "name": "_boxAmount",
          "type": "uint8"
        }
      ],
      "name": "openGachaHero",
      "outputs": [],
      "stateMutability": "nonpayable",
      "type": "function"
    },
    {
      "inputs": [],
      "name": "claimGacha",
      "outputs": [
        {
          "internalType": "uint256[]",
          "name": "",
          "type": "uint256[]"
        }
      ],
      "stateMutability": "nonpayable",
      "type": "function"
    },
    {
      "inputs": [
        {
          "internalType": "address",
          "name": "_owner",
          "type": "address"
        },
        {
          "internalType": "uint256",
          "name": "_itemTokenId",
          "type": "uint256"
        }
      ],
      "name": "getExpirationDate",
      "outputs": [
        {
          "internalType": "uint256",
          "name": "expirationDate",
          "type": "uint256"
        }
      ],
      "stateMutability": "view",
      "type": "function",
      "constant": true
    },
    {
      "inputs": [
        {
          "internalType": "uint256",
          "name": "_price",
          "type": "uint256"
        }
      ],
      "name": "getActualPrice",
      "outputs": [
        {
          "internalType": "uint256",
          "name": "",
          "type": "uint256"
        }
      ],
      "stateMutability": "view",
      "type": "function",
      "constant": true
    }
  ],
  "bytecode": "0x608060405234801561001057600080fd5b50614d55806100206000396000f3fe608060405234801561001057600080fd5b50600436106102065760003560e01c80637dfccc811161011a578063aedc8e38116100ad578063cec38d5d1161007c578063cec38d5d146105f4578063e89e106a14610624578063f7260d3e14610642578063fc0c546a14610660578063ff6fcdbd1461067e57610206565b8063aedc8e381461056a578063b25963141461059a578063b5363bb5146105b8578063c0833ee4146105d657610206565b80639f2b6898116100e95780639f2b6898146104e2578063a3ea06ba14610512578063a9ef387314610530578063ac5242b81461054c57610206565b80637dfccc811461046e5780637f513d5d1461048a5780639979c009146104a85780639b4dc8cc146104c457610206565b80632f34d2821161019d57806347ccca021161016c57806347ccca02146103dc5780634ca80540146103fa5780635a29638d146104165780635e8248c014610434578063718da7ee1461045257610206565b80632f34d2821461034257806330f81f7a1461035e578063313c06a01461038e57806331dfba5f146103ac57610206565b80631978dc45116101d95780631978dc45146102a55780631fe543e3146102d55780632506e7f6146102f157806327df3d3e1461032457610206565b806307e2cea51461020b578063091a1dd71461022957806309e6dfe31461025957806318b6d26614610275575b600080fd5b61021361069c565b6040516102209190613262565b60405180910390f35b610243600480360381019061023e91906132c7565b6106c0565b6040516102509190613303565b60405180910390f35b610273600480360381019061026e9190613477565b6106d8565b005b61028f600480360381019061028a91906132c7565b6107da565b60405161029c919061355f565b60405180910390f35b6102bf60048036038101906102ba91906135a6565b61080d565b6040516102cc9190613303565b60405180910390f35b6102ef60048036038101906102ea91906135e6565b610832565b005b61030b60048036038101906103069190613642565b6108f6565b60405161031b94939291906136a6565b60405180910390f35b61032c61094d565b6040516103399190613262565b60405180910390f35b61035c60048036038101906103579190613642565b610971565b005b610378600480360381019061037391906132c7565b610a99565b60405161038591906136eb565b60405180910390f35b610396610ab9565b6040516103a39190613765565b60405180910390f35b6103c660048036038101906103c191906135a6565b610adf565b6040516103d39190613303565b60405180910390f35b6103e4610b10565b6040516103f191906137a1565b60405180910390f35b610414600480360381019061040f91906137e8565b610b36565b005b61041e611032565b60405161042b9190613849565b60405180910390f35b61043c611058565b6040516104499190613262565b60405180910390f35b61046c60048036038101906104679190613642565b61107c565b005b610488600480360381019061048391906139c8565b611163565b005b6104926114bf565b60405161049f9190613a9f565b60405180910390f35b6104c260048036038101906104bd9190613aba565b6114e5565b005b6104cc6119ef565b6040516104d9919061355f565b60405180910390f35b6104fc60048036038101906104f791906135a6565b611a15565b6040516105099190613303565b60405180910390f35b61051a611a70565b6040516105279190613262565b60405180910390f35b61054a60048036038101906105459190613afa565b611a94565b005b610554611e0c565b6040516105619190613262565b60405180910390f35b610584600480360381019061057f91906132c7565b611e30565b6040516105919190613303565b60405180910390f35b6105a26120cc565b6040516105af9190613262565b60405180910390f35b6105c06120f0565b6040516105cd9190613c0b565b60405180910390f35b6105de6127d5565b6040516105eb9190613262565b60405180910390f35b61060e600480360381019061060991906132c7565b6127f9565b60405161061b9190613303565b60405180910390f35b61062c612811565b6040516106399190613303565b60405180910390f35b61064a612817565b604051610657919061355f565b60405180910390f35b61066861283d565b6040516106759190613c4e565b60405180910390f35b610686612863565b6040516106939190613262565b60405180910390f35b7f68e79a7bf1e0bc45d0a330c573bc367f9cf464fd326078812f301165fbda4ef181565b60416020528060005260406000206000915090505481565b7fa29120b87765615bebca1f1e843c7f216a8bd4c48a5a77241db99f1fa258593561070a81610705612887565b61288f565b8251845114801561071c575081518451145b61075b576040517f08c379a000000000000000000000000000000000000000000000000000000000815260040161075290613cc6565b60405180910390fd5b60005b84518110156107d3576107c085828151811061077d5761077c613ce6565b5b602002602001015185838151811061079857610797613ce6565b5b60200260200101518584815181106107b3576107b2613ce6565b5b6020026020010151611a94565b80806107cb90613d44565b91505061075e565b5050505050565b60446020528060005260406000206000915054906101000a900473ffffffffffffffffffffffffffffffffffffffff1681565b6043602052816000526040600020602052806000526040600020600091509150505481565b603460009054906101000a900473ffffffffffffffffffffffffffffffffffffffff1673ffffffffffffffffffffffffffffffffffffffff163373ffffffffffffffffffffffffffffffffffffffff16146108e85733603460009054906101000a900473ffffffffffffffffffffffffffffffffffffffff166040517f1cf993f40000000000000000000000000000000000000000000000000000000081526004016108df929190613d8d565b60405180910390fd5b6108f282826129c0565b5050565b60476020528060005260406000206000915090508060000160009054906101000a900460ff16908060000160019054906101000a900460ff16908060000160029054906101000a900460ff16908060010154905084565b7f30d41a597cac127d8249d31298b50e481ee82c3f4a49ff93c76a22735aa9f3ad81565b7fa29120b87765615bebca1f1e843c7f216a8bd4c48a5a77241db99f1fa25859356109a38161099e612887565b61288f565b600073ffffffffffffffffffffffffffffffffffffffff168273ffffffffffffffffffffffffffffffffffffffff161415610a13576040517f08c379a0000000000000000000000000000000000000000000000000000000008152600401610a0a90613e02565b60405180910390fd5b81603560006101000a81548173ffffffffffffffffffffffffffffffffffffffff021916908373ffffffffffffffffffffffffffffffffffffffff16021790555081603660006101000a81548173ffffffffffffffffffffffffffffffffffffffff021916908373ffffffffffffffffffffffffffffffffffffffff1602179055505050565b60456020528060005260406000206000915054906101000a900460ff1681565b603560009054906101000a900473ffffffffffffffffffffffffffffffffffffffff1681565b60466020528160005260406000208181548110610afb57600080fd5b90600052602060002001600091509150505481565b603860009054906101000a900473ffffffffffffffffffffffffffffffffffffffff1681565b60018260ff1610158015610b4e575060048260ff1611155b610b8d576040517f08c379a0000000000000000000000000000000000000000000000000000000008152600401610b8490613e6e565b60405180910390fd5b600a8160ff161115610bd4576040517f08c379a0000000000000000000000000000000000000000000000000000000008152600401610bcb90613eda565b60405180910390fd5b6000151560476000610be4612887565b73ffffffffffffffffffffffffffffffffffffffff1673ffffffffffffffffffffffffffffffffffffffff16815260200190815260200160002060000160009054906101000a900460ff16151514610c71576040517f08c379a0000000000000000000000000000000000000000000000000000000008152600401610c6890613f46565b60405180910390fd5b6000151560476000610c81612887565b73ffffffffffffffffffffffffffffffffffffffff1673ffffffffffffffffffffffffffffffffffffffff16815260200190815260200160002060000160019054906101000a900460ff16151514610d0e576040517f08c379a0000000000000000000000000000000000000000000000000000000008152600401610d0590613fb2565b60405180910390fd5b6000603a60009054906101000a900473ffffffffffffffffffffffffffffffffffffffff1673ffffffffffffffffffffffffffffffffffffffff1663d6f705666001856040518363ffffffff1660e01b8152600401610d6e92919061401b565b602060405180830381865afa158015610d8b573d6000803e3d6000fd5b505050506040513d601f19601f82011682018060405250810190610daf9190614059565b9050603860009054906101000a900473ffffffffffffffffffffffffffffffffffffffff1673ffffffffffffffffffffffffffffffffffffffff1663f5298aca610df7612887565b83856040518463ffffffff1660e01b8152600401610e17939291906140b7565b600060405180830381600087803b158015610e3157600080fd5b505af1158015610e45573d6000803e3d6000fd5b505050506000610e53612c35565b9050610e5d612887565b6044600083815260200190815260200160002060006101000a81548173ffffffffffffffffffffffffffffffffffffffff021916908373ffffffffffffffffffffffffffffffffffffffff160217905550836045600083815260200190815260200160002060006101000a81548160ff021916908360ff1602179055508060476000610ee7612887565b73ffffffffffffffffffffffffffffffffffffffff1673ffffffffffffffffffffffffffffffffffffffff16815260200190815260200160002060010181905550600160476000610f36612887565b73ffffffffffffffffffffffffffffffffffffffff1673ffffffffffffffffffffffffffffffffffffffff16815260200190815260200160002060000160006101000a81548160ff0219169083151502179055508260476000610f97612887565b73ffffffffffffffffffffffffffffffffffffffff1673ffffffffffffffffffffffffffffffffffffffff16815260200190815260200160002060000160026101000a81548160ff021916908360ff1602179055507f9c32ec1628f0115f01a499eb28355bff923b5ed48ec7ba63625bf92b75aacd9b81611016612887565b6040516110249291906140ee565b60405180910390a150505050565b603a60009054906101000a900473ffffffffffffffffffffffffffffffffffffffff1681565b7f51f8f2c5ee2fca3a67ad56221434bd562ae85739b13d878dc7708a17bb93bfb081565b7fa29120b87765615bebca1f1e843c7f216a8bd4c48a5a77241db99f1fa25859356110ae816110a9612887565b61288f565b600073ffffffffffffffffffffffffffffffffffffffff168273ffffffffffffffffffffffffffffffffffffffff16141561111e576040517f08c379a000000000000000000000000000000000000000000000000000000000815260040161111590613e02565b60405180910390fd5b81603b60006101000a81548173ffffffffffffffffffffffffffffffffffffffff021916908373ffffffffffffffffffffffffffffffffffffffff1602179055505050565b600060019054906101000a900460ff1680611189575060008054906101000a900460ff16155b6111c8576040517f08c379a00000000000000000000000000000000000000000000000000000000081526004016111bf90614189565b60405180910390fd5b60008060019054906101000a900460ff161590508015611218576001600060016101000a81548160ff02191690831515021790555060016000806101000a81548160ff0219169083151502179055505b61122189612d37565b61122a84612e52565b83603c60006101000a81548173ffffffffffffffffffffffffffffffffffffffff021916908373ffffffffffffffffffffffffffffffffffffffff160217905550611273612887565b604060006101000a81548173ffffffffffffffffffffffffffffffffffffffff021916908373ffffffffffffffffffffffffffffffffffffffff16021790555081603c60146101000a81548167ffffffffffffffff021916908367ffffffffffffffff16021790555082603d8190555086603760006101000a81548173ffffffffffffffffffffffffffffffffffffffff021916908373ffffffffffffffffffffffffffffffffffffffff16021790555085603860006101000a81548173ffffffffffffffffffffffffffffffffffffffff021916908373ffffffffffffffffffffffffffffffffffffffff16021790555084603960006101000a81548173ffffffffffffffffffffffffffffffffffffffff021916908373ffffffffffffffffffffffffffffffffffffffff16021790555087603a60006101000a81548173ffffffffffffffffffffffffffffffffffffffff021916908373ffffffffffffffffffffffffffffffffffffffff160217905550620186a0603e60006101000a81548163ffffffff021916908363ffffffff1602179055506003603e60046101000a81548161ffff021916908361ffff1602179055506001603e60066101000a81548163ffffffff021916908363ffffffff160217905550611453612887565b603b60006101000a81548173ffffffffffffffffffffffffffffffffffffffff021916908373ffffffffffffffffffffffffffffffffffffffff16021790555080156114b45760008060016101000a81548160ff0219169083151502179055505b505050505050505050565b603960009054906101000a900473ffffffffffffffffffffffffffffffffffffffff1681565b600060416000848152602001908152602001600020541161153b576040517f08c379a0000000000000000000000000000000000000000000000000000000008152600401611532906141f5565b60405180910390fd5b6000811161157e576040517f08c379a000000000000000000000000000000000000000000000000000000000815260040161157590614261565b60405180910390fd5b603760009054906101000a900473ffffffffffffffffffffffffffffffffffffffff1673ffffffffffffffffffffffffffffffffffffffff166323b872dd6115c4612887565b603b60009054906101000a900473ffffffffffffffffffffffffffffffffffffffff16846116046041600089815260200190815260200160002054611e30565b61160e9190614281565b6040518463ffffffff1660e01b815260040161162c939291906142db565b6020604051808303816000875af115801561164b573d6000803e3d6000fd5b505050506040513d601f19601f8201168201806040525081019061166f919061433e565b50600060426000848152602001908152602001600020549050600081111561190c576000603860009054906101000a900473ffffffffffffffffffffffffffffffffffffffff1673ffffffffffffffffffffffffffffffffffffffff1662fdd58e6116d8612887565b866040518363ffffffff1660e01b81526004016116f692919061436b565b602060405180830381865afa158015611713573d6000803e3d6000fd5b505050506040513d601f19601f820116820180604052508101906117379190614059565b14156117d757603860009054906101000a900473ffffffffffffffffffffffffffffffffffffffff1673ffffffffffffffffffffffffffffffffffffffff1663731133e9611783612887565b8560016040518463ffffffff1660e01b81526004016117a493929190614406565b600060405180830381600087803b1580156117be57600080fd5b505af11580156117d2573d6000803e3d6000fd5b505050505b6000604360006117e5612887565b73ffffffffffffffffffffffffffffffffffffffff1673ffffffffffffffffffffffffffffffffffffffff1681526020019081526020016000206000858152602001908152602001600020549050600081148061184157504281105b1561184a574290505b600082846118589190614281565b826118639190614450565b90508060436000611872612887565b73ffffffffffffffffffffffffffffffffffffffff1673ffffffffffffffffffffffffffffffffffffffff1681526020019081526020016000206000878152602001908152602001600020819055507f600ea730d672fa2d10aa104b9c06c571f5df817c48986f2ea7753b3089a0b2498585836118ed612887565b6040516118fd94939291906144a6565b60405180910390a150506119ea565b603860009054906101000a900473ffffffffffffffffffffffffffffffffffffffff1673ffffffffffffffffffffffffffffffffffffffff1663731133e9611952612887565b85856040518463ffffffff1660e01b8152600401611972939291906144eb565b600060405180830381600087803b15801561198c57600080fd5b505af11580156119a0573d6000803e3d6000fd5b505050507f600ea730d672fa2d10aa104b9c06c571f5df817c48986f2ea7753b3089a0b249838360006119d1612887565b6040516119e19493929190614570565b60405180910390a15b505050565b603660009054906101000a900473ffffffffffffffffffffffffffffffffffffffff1681565b6000604360008473ffffffffffffffffffffffffffffffffffffffff1673ffffffffffffffffffffffffffffffffffffffff168152602001908152602001600020600083815260200190815260200160002054905092915050565b7fa29120b87765615bebca1f1e843c7f216a8bd4c48a5a77241db99f1fa258593581565b7fa29120b87765615bebca1f1e843c7f216a8bd4c48a5a77241db99f1fa2585935611ac681611ac1612887565b61288f565b60011515603a60009054906101000a900473ffffffffffffffffffffffffffffffffffffffff1673ffffffffffffffffffffffffffffffffffffffff166303e1649c866040518263ffffffff1660e01b8152600401611b259190613303565b602060405180830381865afa158015611b42573d6000803e3d6000fd5b505050506040513d601f19601f82011682018060405250810190611b66919061433e565b151514611ba8576040517f08c379a0000000000000000000000000000000000000000000000000000000008152600401611b9f90614601565b60405180910390fd5b6000821115611db3576103e8603a60009054906101000a900473ffffffffffffffffffffffffffffffffffffffff1673ffffffffffffffffffffffffffffffffffffffff16638a779afa866040518263ffffffff1660e01b8152600401611c0f9190613303565b602060405180830381865afa158015611c2c573d6000803e3d6000fd5b505050506040513d601f19601f82011682018060405250810190611c50919061464d565b6bffffffffffffffffffffffff1611611c9e576040517f08c379a0000000000000000000000000000000000000000000000000000000008152600401611c95906146c6565b60405180910390fd5b6000603860009054906101000a900473ffffffffffffffffffffffffffffffffffffffff1673ffffffffffffffffffffffffffffffffffffffff1663bd85b039866040518263ffffffff1660e01b8152600401611cfb9190613303565b602060405180830381865afa158015611d18573d6000803e3d6000fd5b505050506040513d601f19601f82011682018060405250810190611d3c9190614059565b1480611d5b575060006042600086815260200190815260200160002054115b611d9a576040517f08c379a0000000000000000000000000000000000000000000000000000000008152600401611d9190614732565b60405180910390fd5b8160426000868152602001908152602001600020819055505b8260416000868152602001908152602001600020819055507fda6e6f41b404de73be018d7cd3c193dcc894800a1c78351aec57f64a53187606848484604051611dfe93929190614752565b60405180910390a150505050565b7fe2e48373e7e83dec5a305c3b1f25465a29e74a534a34c2e3f3b73a15ffa4a6fb81565b6000670de0b6b3a764000082603560009054906101000a900473ffffffffffffffffffffffffffffffffffffffff1673ffffffffffffffffffffffffffffffffffffffff1663d21220a76040518163ffffffff1660e01b8152600401602060405180830381865afa158015611ea9573d6000803e3d6000fd5b505050506040513d601f19601f82011682018060405250810190611ecd919061479e565b73ffffffffffffffffffffffffffffffffffffffff166370a08231603660009054906101000a900473ffffffffffffffffffffffffffffffffffffffff166040518263ffffffff1660e01b8152600401611f27919061355f565b602060405180830381865afa158015611f44573d6000803e3d6000fd5b505050506040513d601f19601f82011682018060405250810190611f689190614059565b670de0b6b3a7640000603560009054906101000a900473ffffffffffffffffffffffffffffffffffffffff1673ffffffffffffffffffffffffffffffffffffffff16630dfe16816040518163ffffffff1660e01b8152600401602060405180830381865afa158015611fde573d6000803e3d6000fd5b505050506040513d601f19601f82011682018060405250810190612002919061479e565b73ffffffffffffffffffffffffffffffffffffffff166370a08231603660009054906101000a900473ffffffffffffffffffffffffffffffffffffffff166040518263ffffffff1660e01b815260040161205c919061355f565b602060405180830381865afa158015612079573d6000803e3d6000fd5b505050506040513d601f19601f8201168201806040525081019061209d9190614059565b6120a79190614281565b6120b191906147fa565b6120bb9190614281565b6120c591906147fa565b9050919050565b7f93c2de005b627b4148f1ed7c443ee399c7341c199aab7243d5c24d1c32a0463681565b60606000151560476000612102612887565b73ffffffffffffffffffffffffffffffffffffffff1673ffffffffffffffffffffffffffffffffffffffff16815260200190815260200160002060000160019054906101000a900460ff1615151415612190576040517f08c379a000000000000000000000000000000000000000000000000000000000815260040161218790614877565b60405180910390fd5b600060446000604760006121a2612887565b73ffffffffffffffffffffffffffffffffffffffff1673ffffffffffffffffffffffffffffffffffffffff16815260200190815260200160002060010154815260200190815260200160002060009054906101000a900473ffffffffffffffffffffffffffffffffffffffff169050600073ffffffffffffffffffffffffffffffffffffffff168173ffffffffffffffffffffffffffffffffffffffff161415612281576040517f08c379a0000000000000000000000000000000000000000000000000000000008152600401612278906148e3565b60405180910390fd5b60006045600060476000612293612887565b73ffffffffffffffffffffffffffffffffffffffff1673ffffffffffffffffffffffffffffffffffffffff16815260200190815260200160002060010154815260200190815260200160002060009054906101000a900460ff16905060008160ff1611612335576040517f08c379a000000000000000000000000000000000000000000000000000000000815260040161232c9061494f565b60405180910390fd5b600060476000612343612887565b73ffffffffffffffffffffffffffffffffffffffff1673ffffffffffffffffffffffffffffffffffffffff16815260200190815260200160002060000160029054906101000a900460ff1660ff1667ffffffffffffffff8111156123aa576123a9613334565b5b6040519080825280602002602001820160405280156123d85781602001602082028036833780820191505090505b50905060005b604760006123ea612887565b73ffffffffffffffffffffffffffffffffffffffff1673ffffffffffffffffffffffffffffffffffffffff16815260200190815260200160002060000160029054906101000a900460ff1660ff1681101561256557603960009054906101000a900473ffffffffffffffffffffffffffffffffffffffff1673ffffffffffffffffffffffffffffffffffffffff1663eec0525b8560016124d08560486000612490612887565b73ffffffffffffffffffffffffffffffffffffffff1673ffffffffffffffffffffffffffffffffffffffff16815260200190815260200160002054612f6d565b876040518563ffffffff1660e01b81526004016124f0949392919061496f565b6020604051808303816000875af115801561250f573d6000803e3d6000fd5b505050506040513d601f19601f820116820180604052508101906125339190614059565b82828151811061254657612545613ce6565b5b602002602001018181525050808061255d90613d44565b9150506123de565b508060466000612573612887565b73ffffffffffffffffffffffffffffffffffffffff1673ffffffffffffffffffffffffffffffffffffffff16815260200190815260200160002090805190602001906125c09291906131df565b50600060456000604760006125d3612887565b73ffffffffffffffffffffffffffffffffffffffff1673ffffffffffffffffffffffffffffffffffffffff16815260200190815260200160002060010154815260200190815260200160002060006101000a81548160ff021916908360ff160217905550600060486000612645612887565b73ffffffffffffffffffffffffffffffffffffffff1673ffffffffffffffffffffffffffffffffffffffff16815260200190815260200160002081905550600060476000612691612887565b73ffffffffffffffffffffffffffffffffffffffff1673ffffffffffffffffffffffffffffffffffffffff16815260200190815260200160002060000160026101000a81548160ff021916908360ff1602179055506000604760006126f4612887565b73ffffffffffffffffffffffffffffffffffffffff1673ffffffffffffffffffffffffffffffffffffffff16815260200190815260200160002060000160016101000a81548160ff0219169083151502179055507faeacb360d2e517522a9af8dea01b48e09d4006322ea32eaf81a5920bfe498a9960476000612775612887565b73ffffffffffffffffffffffffffffffffffffffff1673ffffffffffffffffffffffffffffffffffffffff1681526020019081526020016000206001015482856040516127c4939291906149b4565b60405180910390a180935050505090565b7f3a5b873628a2c49bf313473942acc8932f6f84c76b74bf3db0e4d8b51277a62381565b60426020528060005260406000206000915090505481565b603f5481565b603b60009054906101000a900473ffffffffffffffffffffffffffffffffffffffff1681565b603760009054906101000a900473ffffffffffffffffffffffffffffffffffffffff1681565b7fef17b1f3c5a412f9c8e887e3abd186802afec7dc657fd3b7002bf87b128dd0b181565b600033905090565b603360009054906101000a900473ffffffffffffffffffffffffffffffffffffffff1673ffffffffffffffffffffffffffffffffffffffff166391d1485483836040518363ffffffff1660e01b81526004016128ec9291906149f2565b602060405180830381865afa158015612909573d6000803e3d6000fd5b505050506040513d601f19601f8201168201806040525081019061292d919061433e565b6129bc576129528173ffffffffffffffffffffffffffffffffffffffff166014612fa3565b6129608360001c6020612fa3565b604051602001612971929190614b2d565b6040516020818303038152906040526040517f08c379a00000000000000000000000000000000000000000000000000000000081526004016129b39190614ba0565b60405180910390fd5b5050565b60006044600084815260200190815260200160002060009054906101000a900473ffffffffffffffffffffffffffffffffffffffff169050600073ffffffffffffffffffffffffffffffffffffffff168173ffffffffffffffffffffffffffffffffffffffff161415612a68576040517f08c379a0000000000000000000000000000000000000000000000000000000008152600401612a5f906148e3565b60405180910390fd5b60006045600085815260200190815260200160002060009054906101000a900460ff16905060008160ff1611612ad3576040517f08c379a0000000000000000000000000000000000000000000000000000000008152600401612aca9061494f565b60405180910390fd5b82600081518110612ae757612ae6613ce6565b5b6020026020010151604860008473ffffffffffffffffffffffffffffffffffffffff1673ffffffffffffffffffffffffffffffffffffffff1681526020019081526020016000208190555083604760008473ffffffffffffffffffffffffffffffffffffffff1673ffffffffffffffffffffffffffffffffffffffff168152602001908152602001600020600101819055506000604760008473ffffffffffffffffffffffffffffffffffffffff1673ffffffffffffffffffffffffffffffffffffffff16815260200190815260200160002060000160006101000a81548160ff0219169083151502179055506001604760008473ffffffffffffffffffffffffffffffffffffffff1673ffffffffffffffffffffffffffffffffffffffff16815260200190815260200160002060000160016101000a81548160ff02191690831515021790555050505050565b6000603c60009054906101000a900473ffffffffffffffffffffffffffffffffffffffff1673ffffffffffffffffffffffffffffffffffffffff16635d3b1d30603d54603c60149054906101000a900467ffffffffffffffff16603e60049054906101000a900461ffff16603e60009054906101000a900463ffffffff16603e60069054906101000a900463ffffffff166040518663ffffffff1660e01b8152600401612ce6959493929190614c0d565b6020604051808303816000875af1158015612d05573d6000803e3d6000fd5b505050506040513d601f19601f82011682018060405250810190612d299190614059565b603f81905550603f54905090565b600060019054906101000a900460ff1680612d5d575060008054906101000a900460ff16155b612d9c576040517f08c379a0000000000000000000000000000000000000000000000000000000008152600401612d9390614189565b60405180910390fd5b60008060019054906101000a900460ff161590508015612dec576001600060016101000a81548160ff02191690831515021790555060016000806101000a81548160ff0219169083151502179055505b81603360006101000a81548173ffffffffffffffffffffffffffffffffffffffff021916908373ffffffffffffffffffffffffffffffffffffffff1602179055508015612e4e5760008060016101000a81548160ff0219169083151502179055505b5050565b600060019054906101000a900460ff1680612e78575060008054906101000a900460ff16155b612eb7576040517f08c379a0000000000000000000000000000000000000000000000000000000008152600401612eae90614189565b60405180910390fd5b60008060019054906101000a900460ff161590508015612f07576001600060016101000a81548160ff02191690831515021790555060016000806101000a81548160ff0219169083151502179055505b81603460006101000a81548173ffffffffffffffffffffffffffffffffffffffff021916908373ffffffffffffffffffffffffffffffffffffffff1602179055508015612f695760008060016101000a81548160ff0219169083151502179055505b5050565b60008282604051602001612f82929190614c60565b6040516020818303038152906040528051906020012060001c905092915050565b606060006002836002612fb69190614281565b612fc09190614450565b67ffffffffffffffff811115612fd957612fd8613334565b5b6040519080825280601f01601f19166020018201604052801561300b5781602001600182028036833780820191505090505b5090507f30000000000000000000000000000000000000000000000000000000000000008160008151811061304357613042613ce6565b5b60200101907effffffffffffffffffffffffffffffffffffffffffffffffffffffffffffff1916908160001a9053507f7800000000000000000000000000000000000000000000000000000000000000816001815181106130a7576130a6613ce6565b5b60200101907effffffffffffffffffffffffffffffffffffffffffffffffffffffffffffff1916908160001a905350600060018460026130e79190614281565b6130f19190614450565b90505b6001811115613191577f3031323334353637383961626364656600000000000000000000000000000000600f86166010811061313357613132613ce6565b5b1a60f81b82828151811061314a57613149613ce6565b5b60200101907effffffffffffffffffffffffffffffffffffffffffffffffffffffffffffff1916908160001a905350600485901c94508061318a90614c89565b90506130f4565b50600084146131d5576040517f08c379a00000000000000000000000000000000000000000000000000000000081526004016131cc90614cff565b60405180910390fd5b8091505092915050565b82805482825590600052602060002090810192821561321b579160200282015b8281111561321a5782518255916020019190600101906131ff565b5b509050613228919061322c565b5090565b5b8082111561324557600081600090555060010161322d565b5090565b6000819050919050565b61325c81613249565b82525050565b60006020820190506132776000830184613253565b92915050565b6000604051905090565b600080fd5b600080fd5b6000819050919050565b6132a481613291565b81146132af57600080fd5b50565b6000813590506132c18161329b565b92915050565b6000602082840312156132dd576132dc613287565b5b60006132eb848285016132b2565b91505092915050565b6132fd81613291565b82525050565b600060208201905061331860008301846132f4565b92915050565b600080fd5b6000601f19601f8301169050919050565b7f4e487b7100000000000000000000000000000000000000000000000000000000600052604160045260246000fd5b61336c82613323565b810181811067ffffffffffffffff8211171561338b5761338a613334565b5b80604052505050565b600061339e61327d565b90506133aa8282613363565b919050565b600067ffffffffffffffff8211156133ca576133c9613334565b5b602082029050602081019050919050565b600080fd5b60006133f36133ee846133af565b613394565b90508083825260208201905060208402830185811115613416576134156133db565b5b835b8181101561343f578061342b88826132b2565b845260208401935050602081019050613418565b5050509392505050565b600082601f83011261345e5761345d61331e565b5b813561346e8482602086016133e0565b91505092915050565b6000806000606084860312156134905761348f613287565b5b600084013567ffffffffffffffff8111156134ae576134ad61328c565b5b6134ba86828701613449565b935050602084013567ffffffffffffffff8111156134db576134da61328c565b5b6134e786828701613449565b925050604084013567ffffffffffffffff8111156135085761350761328c565b5b61351486828701613449565b9150509250925092565b600073ffffffffffffffffffffffffffffffffffffffff82169050919050565b60006135498261351e565b9050919050565b6135598161353e565b82525050565b60006020820190506135746000830184613550565b92915050565b6135838161353e565b811461358e57600080fd5b50565b6000813590506135a08161357a565b92915050565b600080604083850312156135bd576135bc613287565b5b60006135cb85828601613591565b92505060206135dc858286016132b2565b9150509250929050565b600080604083850312156135fd576135fc613287565b5b600061360b858286016132b2565b925050602083013567ffffffffffffffff81111561362c5761362b61328c565b5b61363885828601613449565b9150509250929050565b60006020828403121561365857613657613287565b5b600061366684828501613591565b91505092915050565b60008115159050919050565b6136848161366f565b82525050565b600060ff82169050919050565b6136a08161368a565b82525050565b60006080820190506136bb600083018761367b565b6136c8602083018661367b565b6136d56040830185613697565b6136e260608301846132f4565b95945050505050565b60006020820190506137006000830184613697565b92915050565b6000819050919050565b600061372b6137266137218461351e565b613706565b61351e565b9050919050565b600061373d82613710565b9050919050565b600061374f82613732565b9050919050565b61375f81613744565b82525050565b600060208201905061377a6000830184613756565b92915050565b600061378b82613732565b9050919050565b61379b81613780565b82525050565b60006020820190506137b66000830184613792565b92915050565b6137c58161368a565b81146137d057600080fd5b50565b6000813590506137e2816137bc565b92915050565b600080604083850312156137ff576137fe613287565b5b600061380d858286016137d3565b925050602061381e858286016137d3565b9150509250929050565b600061383382613732565b9050919050565b61384381613828565b82525050565b600060208201905061385e600083018461383a565b92915050565b600061386f8261353e565b9050919050565b61387f81613864565b811461388a57600080fd5b50565b60008135905061389c81613876565b92915050565b60006138ad8261353e565b9050919050565b6138bd816138a2565b81146138c857600080fd5b50565b6000813590506138da816138b4565b92915050565b60006138eb8261353e565b9050919050565b6138fb816138e0565b811461390657600080fd5b50565b600081359050613918816138f2565b92915050565b60006139298261353e565b9050919050565b6139398161391e565b811461394457600080fd5b50565b60008135905061395681613930565b92915050565b61396581613249565b811461397057600080fd5b50565b6000813590506139828161395c565b92915050565b600067ffffffffffffffff82169050919050565b6139a581613988565b81146139b057600080fd5b50565b6000813590506139c28161399c565b92915050565b600080600080600080600080610100898b0312156139e9576139e8613287565b5b60006139f78b828c01613591565b9850506020613a088b828c0161388d565b9750506040613a198b828c016138cb565b9650506060613a2a8b828c01613909565b9550506080613a3b8b828c01613947565b94505060a0613a4c8b828c01613591565b93505060c0613a5d8b828c01613973565b92505060e0613a6e8b828c016139b3565b9150509295985092959890939650565b6000613a8982613732565b9050919050565b613a9981613a7e565b82525050565b6000602082019050613ab46000830184613a90565b92915050565b60008060408385031215613ad157613ad0613287565b5b6000613adf858286016132b2565b9250506020613af0858286016132b2565b9150509250929050565b600080600060608486031215613b1357613b12613287565b5b6000613b21868287016132b2565b9350506020613b32868287016132b2565b9250506040613b43868287016132b2565b9150509250925092565b600081519050919050565b600082825260208201905092915050565b6000819050602082019050919050565b613b8281613291565b82525050565b6000613b948383613b79565b60208301905092915050565b6000602082019050919050565b6000613bb882613b4d565b613bc28185613b58565b9350613bcd83613b69565b8060005b83811015613bfe578151613be58882613b88565b9750613bf083613ba0565b925050600181019050613bd1565b5085935050505092915050565b60006020820190508181036000830152613c258184613bad565b905092915050565b6000613c3882613732565b9050919050565b613c4881613c2d565b82525050565b6000602082019050613c636000830184613c3f565b92915050565b600082825260208201905092915050565b7f4c656e677468206d69736d617463680000000000000000000000000000000000600082015250565b6000613cb0600f83613c69565b9150613cbb82613c7a565b602082019050919050565b60006020820190508181036000830152613cdf81613ca3565b9050919050565b7f4e487b7100000000000000000000000000000000000000000000000000000000600052603260045260246000fd5b7f4e487b7100000000000000000000000000000000000000000000000000000000600052601160045260246000fd5b6000613d4f82613291565b91507fffffffffffffffffffffffffffffffffffffffffffffffffffffffffffffffff821415613d8257613d81613d15565b5b600182019050919050565b6000604082019050613da26000830185613550565b613daf6020830184613550565b9392505050565b7f496e76616c696420616464726573730000000000000000000000000000000000600082015250565b6000613dec600f83613c69565b9150613df782613db6565b602082019050919050565b60006020820190508181036000830152613e1b81613ddf565b9050919050565b7f496e76616c696420626f78547970650000000000000000000000000000000000600082015250565b6000613e58600f83613c69565b9150613e6382613e22565b602082019050919050565b60006020820190508181036000830152613e8781613e4b565b9050919050565b7f4d757374206c657373207468616e20313020626f786573000000000000000000600082015250565b6000613ec4601783613c69565b9150613ecf82613e8e565b602082019050919050565b60006020820190508181036000830152613ef381613eb7565b9050919050565b7f52657175657374696e6720476163686100000000000000000000000000000000600082015250565b6000613f30601083613c69565b9150613f3b82613efa565b602082019050919050565b60006020820190508181036000830152613f5f81613f23565b9050919050565b7f4e6f7420636c61696d2047616368612079657400000000000000000000000000600082015250565b6000613f9c601383613c69565b9150613fa782613f66565b602082019050919050565b60006020820190508181036000830152613fcb81613f8f565b9050919050565b60006bffffffffffffffffffffffff82169050919050565b6000614005614000613ffb8461368a565b613706565b613fd2565b9050919050565b61401581613fea565b82525050565b6000604082019050614030600083018561367b565b61403d602083018461400c565b9392505050565b6000815190506140538161329b565b92915050565b60006020828403121561406f5761406e613287565b5b600061407d84828501614044565b91505092915050565b60006140a161409c6140978461368a565b613706565b613291565b9050919050565b6140b181614086565b82525050565b60006060820190506140cc6000830186613550565b6140d960208301856132f4565b6140e660408301846140a8565b949350505050565b600060408201905061410360008301856132f4565b6141106020830184613550565b9392505050565b7f496e697469616c697a61626c653a20636f6e747261637420697320616c72656160008201527f647920696e697469616c697a6564000000000000000000000000000000000000602082015250565b6000614173602e83613c69565b915061417e82614117565b604082019050919050565b600060208201905081810360008301526141a281614166565b9050919050565b7f496e76616c6964206974656d0000000000000000000000000000000000000000600082015250565b60006141df600c83613c69565b91506141ea826141a9565b602082019050919050565b6000602082019050818103600083015261420e816141d2565b9050919050565b7f496e76616c696420616d6f756e74000000000000000000000000000000000000600082015250565b600061424b600e83613c69565b915061425682614215565b602082019050919050565b6000602082019050818103600083015261427a8161423e565b9050919050565b600061428c82613291565b915061429783613291565b9250817fffffffffffffffffffffffffffffffffffffffffffffffffffffffffffffffff04831182151516156142d0576142cf613d15565b5b828202905092915050565b60006060820190506142f06000830186613550565b6142fd6020830185613550565b61430a60408301846132f4565b949350505050565b61431b8161366f565b811461432657600080fd5b50565b60008151905061433881614312565b92915050565b60006020828403121561435457614353613287565b5b600061436284828501614329565b91505092915050565b60006040820190506143806000830185613550565b61438d60208301846132f4565b9392505050565b6000819050919050565b60006143b96143b46143af84614394565b613706565b613291565b9050919050565b6143c98161439e565b82525050565b600082825260208201905092915050565b50565b60006143f06000836143cf565b91506143fb826143e0565b600082019050919050565b600060808201905061441b6000830186613550565b61442860208301856132f4565b61443560408301846143c0565b8181036060830152614446816143e3565b9050949350505050565b600061445b82613291565b915061446683613291565b9250827fffffffffffffffffffffffffffffffffffffffffffffffffffffffffffffffff0382111561449b5761449a613d15565b5b828201905092915050565b60006080820190506144bb60008301876132f4565b6144c860208301866132f4565b6144d560408301856132f4565b6144e26060830184613550565b95945050505050565b60006080820190506145006000830186613550565b61450d60208301856132f4565b61451a60408301846132f4565b818103606083015261452b816143e3565b9050949350505050565b6000819050919050565b600061455a61455561455084614535565b613706565b613291565b9050919050565b61456a8161453f565b82525050565b600060808201905061458560008301876132f4565b61459260208301866132f4565b61459f6040830185614561565b6145ac6060830184613550565b95945050505050565b7f496e76616c696420746f6b656e49640000000000000000000000000000000000600082015250565b60006145eb600f83613c69565b91506145f6826145b5565b602082019050919050565b6000602082019050818103600083015261461a816145de565b9050919050565b61462a81613fd2565b811461463557600080fd5b50565b60008151905061464781614621565b92915050565b60006020828403121561466357614662613287565b5b600061467184828501614638565b91505092915050565b7f5265736572766564206974656d2063616e27742072656e740000000000000000600082015250565b60006146b0601883613c69565b91506146bb8261467a565b602082019050919050565b600060208201905081810360008301526146df816146a3565b9050919050565b7f43616e277427206368616e67652072656e74616c54696d650000000000000000600082015250565b600061471c601883613c69565b9150614727826146e6565b602082019050919050565b6000602082019050818103600083015261474b8161470f565b9050919050565b600060608201905061476760008301866132f4565b61477460208301856132f4565b61478160408301846132f4565b949350505050565b6000815190506147988161357a565b92915050565b6000602082840312156147b4576147b3613287565b5b60006147c284828501614789565b91505092915050565b7f4e487b7100000000000000000000000000000000000000000000000000000000600052601260045260246000fd5b600061480582613291565b915061481083613291565b9250826148205761481f6147cb565b5b828204905092915050565b7f4e6f742066696e69736865642079657400000000000000000000000000000000600082015250565b6000614861601083613c69565b915061486c8261482b565b602082019050919050565b6000602082019050818103600083015261489081614854565b9050919050565b7f4e6f207265717565737465644964000000000000000000000000000000000000600082015250565b60006148cd600e83613c69565b91506148d882614897565b602082019050919050565b600060208201905081810360008301526148fc816148c0565b9050919050565b7f526571756573742066756c66696c6c6564000000000000000000000000000000600082015250565b6000614939601183613c69565b915061494482614903565b602082019050919050565b600060208201905081810360008301526149688161492c565b9050919050565b60006080820190506149846000830187613550565b614991602083018661367b565b61499e60408301856132f4565b6149ab6060830184613697565b95945050505050565b60006060820190506149c960008301866132f4565b81810360208301526149db8185613bad565b90506149ea6040830184613550565b949350505050565b6000604082019050614a076000830185613253565b614a146020830184613550565b9392505050565b600081905092915050565b7f416363657373436f6e74726f6c3a206163636f756e7420000000000000000000600082015250565b6000614a5c601783614a1b565b9150614a6782614a26565b601782019050919050565b600081519050919050565b60005b83811015614a9b578082015181840152602081019050614a80565b83811115614aaa576000848401525b50505050565b6000614abb82614a72565b614ac58185614a1b565b9350614ad5818560208601614a7d565b80840191505092915050565b7f206973206d697373696e6720726f6c6520000000000000000000000000000000600082015250565b6000614b17601183614a1b565b9150614b2282614ae1565b601182019050919050565b6000614b3882614a4f565b9150614b448285614ab0565b9150614b4f82614b0a565b9150614b5b8284614ab0565b91508190509392505050565b6000614b7282614a72565b614b7c8185613c69565b9350614b8c818560208601614a7d565b614b9581613323565b840191505092915050565b60006020820190508181036000830152614bba8184614b67565b905092915050565b614bcb81613988565b82525050565b600061ffff82169050919050565b614be881614bd1565b82525050565b600063ffffffff82169050919050565b614c0781614bee565b82525050565b600060a082019050614c226000830188613253565b614c2f6020830187614bc2565b614c3c6040830186614bdf565b614c496060830185614bfe565b614c566080830184614bfe565b9695505050505050565b6000604082019050614c7560008301856132f4565b614c8260208301846132f4565b9392505050565b6000614c9482613291565b91506000821415614ca857614ca7613d15565b5b600182039050919050565b7f537472696e67733a20686578206c656e67746820696e73756666696369656e74600082015250565b6000614ce9602083613c69565b9150614cf482614cb3565b602082019050919050565b60006020820190508181036000830152614d1881614cdc565b905091905056fea26469706673582212208bbcdd3b3e83f4b3a9b3fdb1e33c2ee079fe6ab32e71099e7436e9dd16f8cd6a64736f6c634300080c0033",
  "immutableReferences": {},
  "source": "// SPDX-License-Identifier: MIT\npragma solidity 0.8.12;\n\nimport \"./interfaces/INFT.sol\";\nimport \"./interfaces/IHero.sol\";\nimport \"./interfaces/IUtils.sol\";\nimport \"./interfaces/ILP.sol\";\nimport \"./utils/CentralAccessControl.sol\";\nimport \"./vrf/VRFConsumerBaseV2.sol\";\nimport \"./vrf/VRFCoordinatorV2Interface.sol\";\nimport \"@openzeppelin/contracts/token/ERC20/IERC20.sol\";\n\ncontract Vendor is CentralAccessControl, VRFConsumerBaseV2 {\n\n    ILP public lp;\n    address public lpAddress;\n    IERC20 public token;\n    INFT public nft;\n    IHero public hero;\n    IUtils public utils;\n    address public receiver;\n\n    //Chainlink\n    VRFCoordinatorV2Interface COORDINATOR;\n    uint64 s_subscriptionId;\n    bytes32 keyHash;\n    uint32 callbackGasLimit;\n    uint16 requestConfirmations;\n    uint32 numWords;\n    uint256 public s_requestId;\n    address s_owner;\n\n    mapping(uint256 => uint256) public _priceMap;\n    mapping(uint256 => uint256) public _rentalTimeMap;\n    // Adddress => ItemId => TimeStamp\n    mapping(address => mapping(uint256 => uint256)) public _expirationDate;\n    mapping(uint256 => address) public _requestIdToAddressMap;\n    mapping(uint256 => uint8) public _requestIdPendingBoxTypeMap;\n    mapping(address => uint256[]) public lastClaim;\n\n    struct Gacha {\n        bool _requestingGacha;\n        bool _finishedRandom;\n        uint8 _boxAmount;\n        uint256 _requestId;\n    }\n\n    mapping(address => Gacha) public gacha;\n    mapping(address => uint256) private seed;\n\n    event HeroPending(uint256 requestId, address to);\n    event HeroTransferred(uint256 requestId, uint256[] tokenId, address to);\n    event ItemTransferred(uint256 itemId, uint256 amount, uint256 expirationDate, address to);\n    event ItemPriceSet(uint256 itemId, uint256 price, uint256 rentalTime);\n\n    function initialize(address _roleManager, IUtils _utils, IERC20 _token, INFT _nft, IHero _hero, address _vrfCoordinator, bytes32 _keyHash, uint64 subscriptionId) public initializer {\n        __CentralAccessControl_init(_roleManager);\n        __VRFConsumerBase_init(_vrfCoordinator);\n        COORDINATOR = VRFCoordinatorV2Interface(_vrfCoordinator);\n        s_owner = _msgSender();\n        s_subscriptionId = subscriptionId;\n        keyHash = _keyHash;\n        token = _token;\n        nft = _nft;\n        hero = _hero;\n        utils = _utils;\n        callbackGasLimit = 100000;\n        requestConfirmations = 3;\n        numWords =  1;\n        receiver = _msgSender();\n    }\n\n    function setLP(address _lp) public onlyRole(VENDOR_MANAGER_ROLE) {\n        require(address(_lp) != address(0), \"Invalid address\");\n        lp = ILP(_lp);\n        lpAddress = _lp;\n    }\n\n    function setReceiver(address _receiver) public onlyRole(VENDOR_MANAGER_ROLE) {\n        require(address(_receiver) != address(0), \"Invalid address\");\n        receiver = _receiver;\n    }\n\n    function setItemPriceBatch(uint256[] memory _itemIds, uint256[] memory _prices, uint256[] memory _rentalTime) public onlyRole(VENDOR_MANAGER_ROLE) {\n        require(_itemIds.length == _prices.length && _itemIds.length == _rentalTime.length, \"Length mismatch\");\n        for (uint256 i = 0; i < _itemIds.length; i++) {\n            setItemPrice(_itemIds[i], _prices[i], _rentalTime[i]);\n        }\n    }\n\n    function setItemPrice(uint256 _itemId, uint256 _price, uint256 _rentalTime) public onlyRole(VENDOR_MANAGER_ROLE) {\n        require(utils.isItem(_itemId) == true, \"Invalid tokenId\");\n        if (_rentalTime > 0) {\n            require(utils.itemId(_itemId) > 1000, \"Reserved item can't rent\");\n            require(nft.totalSupply(_itemId) == 0 || _rentalTimeMap[_itemId] > 0, \"Can't' change rentalTime\");\n            _rentalTimeMap[_itemId] = _rentalTime;\n        }\n        _priceMap[_itemId] = _price;\n        emit ItemPriceSet(_itemId, _price, _rentalTime);\n    }\n\n    function buyItem(uint256 _itemId, uint256 _amount) external {\n        require(_priceMap[_itemId] > 0, \"Invalid item\");\n        require(_amount > 0, \"Invalid amount\");\n        token.transferFrom(_msgSender(), receiver, getActualPrice(_priceMap[_itemId]) * _amount);\n        uint256 rentalTime = _rentalTimeMap[_itemId];\n        if (rentalTime > 0) {\n            if (nft.balanceOf(_msgSender(), _itemId) == 0) {\n                nft.mint(_msgSender(), _itemId, 1, \"\");\n            }\n\n            uint256 expirationDate = _expirationDate[_msgSender()][_itemId];\n            if (expirationDate == 0 || expirationDate < block.timestamp) {\n                expirationDate = block.timestamp;\n            }\n            uint256 nextExpire = expirationDate + (_amount * rentalTime);\n            _expirationDate[_msgSender()][_itemId] = nextExpire;\n            emit ItemTransferred(_itemId, _amount, nextExpire, _msgSender());\n        } else {\n            nft.mint(_msgSender(), _itemId, _amount, \"\");\n            emit ItemTransferred(_itemId, _amount, 0, _msgSender());\n        }\n    }\n\n    function openGachaHero(uint8 _boxType, uint8 _boxAmount) external {\n        require(_boxType >= 1 && _boxType <= 4, \"Invalid boxType\");\n        require(_boxAmount <= 10, \"Must less than 10 boxes\");\n        require(gacha[_msgSender()]._requestingGacha == false, \"Requesting Gacha\");\n        require(gacha[_msgSender()]._finishedRandom == false, \"Not claim Gacha yet\");\n        uint256 gachaItemId = utils.getItemTokenId(true, _boxType);\n        nft.burn(_msgSender(), gachaItemId, _boxAmount);\n        uint256 requestId = getRandomNumber();\n        _requestIdToAddressMap[requestId] = _msgSender();\n        _requestIdPendingBoxTypeMap[requestId] = _boxType;\n        gacha[_msgSender()]._requestId = requestId;\n        gacha[_msgSender()]._requestingGacha = true;\n        gacha[_msgSender()]._boxAmount = _boxAmount;\n        emit HeroPending(requestId, _msgSender());\n    }\n\n    function getRandomNumber() private returns (uint256 requestId) {\n        s_requestId = COORDINATOR.requestRandomWords(\n            keyHash,\n            s_subscriptionId,\n            requestConfirmations,\n            callbackGasLimit,\n            numWords\n        );\n        return s_requestId;\n    }\n\n    function fulfillRandomWords(uint256 requestId, uint256[] memory randomness) internal override {\n        address owner = _requestIdToAddressMap[requestId];\n        require(owner != address(0), \"No requestedId\");\n        uint8 pendingBox = _requestIdPendingBoxTypeMap[requestId];\n        require(pendingBox > 0, \"Request fulfilled\");\n        seed[owner] = randomness[0];\n        gacha[owner]._requestId = requestId;\n        gacha[owner]._requestingGacha = false;\n        gacha[owner]._finishedRandom = true;\n    }\n\n    function claimGacha() external returns (uint256[] memory) {\n        require(gacha[_msgSender()]._finishedRandom != false, \"Not finished yet\");\n        address owner = _requestIdToAddressMap[gacha[_msgSender()]._requestId];\n        require(owner != address(0), \"No requestedId\");\n        uint8 pendingBox = _requestIdPendingBoxTypeMap[gacha[_msgSender()]._requestId];\n        require(pendingBox > 0, \"Request fulfilled\");\n        uint256[] memory tokenId = new uint[](gacha[_msgSender()]._boxAmount);\n        for (uint256 i = 0; i < gacha[_msgSender()]._boxAmount; i++) {\n            tokenId[i] = hero.randomHero(owner, true, selfRandom(i, seed[_msgSender()]), pendingBox);\n        }\n        lastClaim[_msgSender()] = tokenId;\n        _requestIdPendingBoxTypeMap[gacha[_msgSender()]._requestId] = 0;\n        seed[_msgSender()] = 0;\n        gacha[_msgSender()]._boxAmount = 0;\n        gacha[_msgSender()]._finishedRandom = false;\n        emit HeroTransferred(gacha[_msgSender()]._requestId, tokenId, owner);\n\n        return tokenId;\n    }\n\n    function selfRandom(uint256 num, uint256 pRandom) internal pure returns (uint256) {\n        return (uint256(keccak256(abi.encode(num, pRandom))));\n    }\n\n    function getExpirationDate(address _owner, uint256 _itemTokenId) external view returns (uint256 expirationDate) {\n        return _expirationDate[_owner][_itemTokenId];\n    }\n\n    function getActualPrice(uint256 _price) public view returns (uint256){\n        return (((IERC20(lp.token0()).balanceOf(lpAddress) * (10 ** 18)) / IERC20(lp.token1()).balanceOf(lpAddress)) * _price) / (10 ** 18);\n    }\n}\n",
  "sourcePath": "/Users/poripuri/Documents/Dev/AniFi/contract_new/shin-keiyaku/contracts/Vendor.sol",
  "compiler": {
    "name": "solc",
    "version": "0.8.12+commit.f00d7308.Emscripten.clang"
  },
  "schemaVersion": "3.4.2",
  "updatedAt": "2022-09-25T17:46:15.176Z",
  "networkType": "ethereum",
  "devdoc": {
    "kind": "dev",
    "methods": {},
    "version": 1
  },
  "userdoc": {
    "kind": "user",
    "methods": {},
    "version": 1
  }
}